:1000000065C1000081C100007FC100007DC100000A
:100010007BC1000079C1000077C1000075C10000FC
:1000200073C1000071C10000E8C500006DC100008F
:100030006BC1000069C1000067C1000065C100001C
:1000400063C1000061C100005FC100005DC100002C
:100050005BC1000059C1000057C1000055C100003C
:1000600053C1000051C100004FC100004DC100004C
:100070004BC1000049C1000047C1000045C100005C
:1000800043C1000041C100003FC100003DC100006C
:100090003BC1000039C100001B5B33316D44657604
:1000A00020456E756D204572726F720D0A202D2DE0
:1000B000204572726F7220436F64652025640D0ABB
:1000C000202D2D20537562204572726F7220436F70
:1000D00064652025640D0A202D2D20496E2053745F
:1000E0006174652025640D0A1B5B33376D001B5B53
:1000F00033316D486F7374204D6F646520457272A3
:100100006F720D0A202D2D204572726F7220436F81
:1001100064652025640D0A1B5B33376D00507269DE
:100120006E7465722044657669636520456E756DF1
:100130006572617465642E0D0A004572726F7220DB
:1001400053657474696E672042696469726563748B
:10015000696F6E616C204D6F64652E0D0A004572EB
:10016000726F722053657474696E67204465766996
:10017000636520436F6E66696775726174696F6E3F
:100180002E0D0A00417474616368656420446576CD
:10019000696365204E6F7420612056616C6964202C
:1001A0005072696E74657220436C6173732044658C
:1001B000766963652E0D0A004572726F7220526572
:1001C0007472696576696E6720436F6E66696775DC
:1001D000726174696F6E2044657363726970746FC5
:1001E000722E0D0A000D0A44657669636520556E0E
:1001F00061747461636865642E0D0A0044657669F4
:1002000063652041747461636865642E0D0A00544F
:1002100065737420506167652053656E742E0D0AF6
:10022000004572726F722053656E64696E6720506C
:1002300061676520446174612E0D0A0053656E6428
:10024000696E6720546573742050616765202825A6
:1002500064206279746573292E2E2E0D0A00446580
:10026000766963652049443A2025732E0D0A0045BE
:1002700072726F722047657474696E672044657688
:100280006963652049442E0D0A00526574726965E0
:1002900076696E67204465766963652049442E2E31
:1002A0002E0D0A001B5B33366D5072696E746572D9
:1002B00020486F73742044656D6F2072756E6E698F
:1002C0006E672E0D0A1B5B33376D000011241FBEB5
:1002D000CFEFD0E2DEBFCDBF11E0A0E0B1E0E4E9B6
:1002E000FBE100E00BBF02C007900D92A634B107FE
:1002F000D9F711E0A6E4B1E001C01D92A836B1071C
:10030000E1F785D10C94C80D7BCE909153012DB7A8
:100310003EB7285030400FB6F8943EBF0FBE2DBFF9
:10032000EDB7FEB7319628E930E0ADB7BEB712960B
:100330003C932E9311978283138264831582968354
:1003400017820E94D80A8BB18F7080698BB92DB744
:100350003EB7285F3F4F0FB6F8943EBF0FBE2DBF8C
:1003600008951F93182F24D400D000D0EDB7FEB706
:1003700031968EEE90E0ADB7BEB712969C938E93F9
:100380001197128313820E94D80A8BB18F708069F3
:100390008BB90F900F900F900F90FFCF85EE91E0EB
:1003A0000E94FA0A8BB18F7080618BB908958CEF2F
:1003B00091E00E94FA0A8BB18F70806A8BB9089520
:1003C0000F931F93DF93CF93CDB7DEB7C250D240C8
:1003D0000FB6F894DEBF0FBECDBF8BB18F70806AB1
:1003E0008BB98E010D5F1F4F81E0BE016F5F7F4FA4
:1003F000A80120E032E02FD5882319F088EB91E0A6
:1004000011C069817A8189E291E0A801E9D7882346
:1004100019F084E891E006C081E0BFD6882341F05E
:100420008EE591E00E94FA0A8BB18F70806917C047
:1004300089E291E0CDD7882359F08AE391E00E94C8
:10044000FA0A8BB18F7080698BB980E0A6D608C09C
:100450008DE191E00E94FA0A8BB18F7080668BB9B2
:10046000CE5FDD4F0FB6F894DEBF0FBECDBFCF918C
:10047000DF911F910F910895EF92FF920F931F93B9
:10048000DF93CF93CDB7DEB7C555D1400FB6F89403
:10049000DEBF0FBECDBF809153018B3009F05FC02E
:1004A0008BB18F7080628BB98AE892E00E94FA0A61
:1004B0008E01065D1F4F89E291E0B8014CE251E0E8
:1004C000C4D6882319F08FE692E039C000D000D05E
:1004D0008EE592E0EDB7FEB79283818314830383A8
:1004E0000E94D80ADE011196E0E0F1E089E2019075
:1004F0000D928150E1F77E010894E11CF11CF70197
:1005000001900020E9F78F01015010400E191F09DA
:100510008CE392E0EDB7FEB792838183148303836B
:100520000E94D80A0F900F900F900F9089E291E0EF
:10053000B701A801EAD6882341F081E292E00E9447
:10054000FA0A8BB18F70806907C08FE092E00E9439
:10055000FA0A8BB18F7080668BB980E01ED6CB5AB9
:10056000DE4F0FB6F894DEBF0FBECDBFCF91DF9147
:100570001F910F91FF90EF90089584B7877F84BFFC
:1005800038E10FB6F89430936000109260000FBE0F
:1005900080E090E020E80FB6F8942093610080930B
:1005A00061000FBE83E390E09093CD008093CC0078
:1005B00086E08093CA001092C8003093C900539A15
:1005C0005A9A8AB1806F8AB98BB18F708BB9E7D292
:1005D000E4E5F1E0F0936301E0936201F0936501DB
:1005E000E09364018EE0DF011D928A95E9F783E0D4
:1005F0008093570180EA9AE090935D0180935C01BB
:100600008AEA9AE090935F0180935E010895B5DFD6
:1006100084EA92E0EFD78BB18F7080618BB97894C8
:100620002BDF89E291E0C9D6DDD5FACF982F209152
:100630009E003091A0008091A0008F7D8093A0004B
:1006400080919F008F7D80939F0080919E008160AC
:1006500080939E0028C080919F0085FF06C08091F6
:100660009F008F7D80939F00915080915301813036
:1006700011F491E01AC08091A60084FF09C0109285
:10068000F5008091A6008F7E8093A60092E00DC0B9
:100690008091A60081FF07C08091A6008D7F809386
:1006A000A60093E002C09923B1F620FD05C0809119
:1006B0009E008E7F80939E0035FF05C08091A00034
:1006C00080628093A000892F089560919E008091A0
:1006D000A0008D7F8093A00080919E008260809317
:1006E0009E0080919E0081FDFCCF80919E008160E4
:1006F00080939E00109249013091A0008091A0004B
:100700008F7D8093A00080919F008F7D80939F00BC
:100710002AE040ED57E080919F0085FF0BC080915B
:100720009F008F7D80939F0080919F008D7F80939D
:100730009F0005C0CA010197F1F7215061F735FF0D
:1007400005C08091A00080628093A00060FD05C07C
:1007500080919E008E7F80939E008091A000826099
:100760008093A0000895EF920F931F93DF93CF9390
:10077000CDB7DEB728970FB6F894DEBF0FBECDBF5A
:1007800080915301853009F494C0863068F482303A
:10079000B9F1833018F48823A1F004C18330D1F17A
:1007A000843009F0FFC05DC0873009F49BC08730FA
:1007B00008F48AC0883009F4B3C0893009F0F2C067
:1007C000D7C000914701109148010115110509F4A6
:1007D000E9C081E02BDF682F882331F0809146014A
:1007E0008093530191E0DAC0C801019790934801CA
:1007F00080934701892B09F0D5C08091460107C03D
:1008000088EE93E0909348018093470183E08093C2
:100810005301C8C08091470190914801019790937E
:10082000480180934701019629F080ED97E00197F8
:10083000F1F7B8C077988091D80080618093D80094
:100840008091DD008B7F8093DD008091D7008061F7
:100850008093D7008091DD0082608093DD0084E08A
:10086000D6CF80919F0080FF9DC080919F008E7F9A
:1008700080939F0080919F008D7F80939F00809147
:10088000DF008D7F8093DF008091DE0082608093A7
:10089000DE0080919E00816080939E00EDD01092DA
:1008A000530184E690E0909348018093470185E0EE
:1008B0005CC00BDF1092530188EC90E090934801EC
:1008C0008093470186E051C080E060E040E020E096
:1008D00000E410E0EE2472D08091AC0087FF5CC091
:1008E00087E095CFABE4B1E0ECE3F1E088E0019084
:1008F0000D928150E1F7CE01019631D3682F882304
:1009000009F048C0888580934401DFDE10925301CE
:1009100088EC90E0909348018093470188E025C0DF
:100920000091440180E060E040E020E010E0EE242F
:1009300045D08091AC0087FF2FC0ABE4B1E0E4E389
:10094000F1E088E001900D928150E1F780E090E0C5
:1009500006D3682F8823F1F41092530184E690E0C7
:10096000909348018093470189E0809346011AC023
:1009700081E08093A1008AE08093530121DD12C0C1
:10098000892FC3DC8091DD0081608093DD0006DD6E
:10099000B6D008C093E002C094E060E080915301BB
:1009A000813071F728960FB6F894DEBF0FBECDBF29
:1009B000CF91DF911F910F91EF900895EF920F93D8
:1009C0001F93E82F7E2D6295660F660F607C642B67
:1009D0002F70622B382F726045C03093A7003E17EE
:1009E000A1F488E090E020E003C02F5F880F991FFA
:1009F0008017910710F42530C1F7922F9295907FC0
:100A0000972B562F40E020E008C05091AA0090910B
:100A1000AB004091AD002091AE0091FF22C08091CB
:100A2000A9008E7F8093A9008091AB008D7F809379
:100A3000AB008091A90081608093A9005093AA0027
:100A40009093AB004093AD002093AE008091A9003D
:100A500080628093A9008091AC0087FD02C080E095
:100A600007C03F5F373008F4B8CFE093A70081E0BC
:100A70001F910F91EF9008951092F80090E09093DD
:100A8000A7001092AE001092A6001092AB008091C9
:100A9000A9008E7F8093A9009F5F973081F708950A
:100AA0004091A2005091A30024E68091AA00807397
:100AB000803129F48091A60080FF05C01EC080917E
:100AC000A60082FD1AC08091A60081FF02C081E0CD
:100AD000089580915301813011F482E0089580914E
:100AE000A2009091A30084179507F9F2222311F434
:100AF00083E008952150AC01D8CF80E0089570D0F4
:100B000077D08091D8008F778093D8008091D800DB
:100B100080688093D8008091D8008F7D8093D80022
:100B20008091D7008F778093D7008CE089BD8EE0CD
:100B300089BD09B400FEFDCF81E08093530110927E
:100B4000490180E4809344018091D80080648093BF
:100B5000D8008091DD0081608093DD008091DD0010
:100B600084608093DD008091D7008F7E8093D700D2
:100B70006F9A779A8091DE0081608093DE00809189
:100B8000DE0084608093DE008091E0008E7F8093A1
:100B9000E0008091D80080618093D8000895E7ED4F
:100BA000F0E080818160808381E080934A01A7CF5B
:100BB00017D01ED0E0EEF0E0808181608083A8ED48
:100BC000B0E08C918F778C9319BCE7EDF0E08081D9
:100BD0008E7F80838C918F7E8C9310924A01089532
:100BE000E8EDF0E080818C7F80831092A000089572
:100BF0001092DA0010929F0008951F920F920FB684
:100C00000F920BB60F9211242F933F934F935F9344
:100C10006F937F938F939F93AF93BF93EF93FF93C4
:100C200080919F0085FF0AC08091A00085FF06C0CB
:100C300080919F008F7D80939F0067D180919F005E
:100C400081FF15C08091A00081FF11C080919F009D
:100C50008D7F80939F0080919F008E7F80939F0067
:100C60008091A0008D7F8093A00098DB48DF809169
:100C7000DF0081FF15C08091DE0081FF11C08091EF
:100C8000DF008D7F8093DF0077988091DD008160A9
:100C90008093DD0080E065DB81DB81E080935301A0
:100CA0008091DF0080FF17C08091DE0080FF13C0BD
:100CB0008091DF008E7F8093DF008091DE008E7F49
:100CC0008093DE0074DB8091A00082608093A0009E
:100CD00082E0809353018091DF0082FF0EC08091FB
:100CE000DE0082FF0AC08091DF008B7F8093DF00EF
:100CF00082E060E00ADB52DB02DFFF91EF91BF91FF
:100D0000AF919F918F917F916F915F914F913F91A3
:100D10002F910F900BBE0F900FBE0F901F90189544
:100D2000BF92CF92DF92EF92FF920F931F93CF93D8
:100D3000DF93182F092F7B016A018091AA008F7C15
:100D400080628093AA00ACDEB82E8823A9F5812F9B
:100D5000902F9C01E901C114D10439F0F601808182
:100D60009181E81AF90AC80FD91F00E010E021C0EC
:100D70008091A60085FD15C08091A6008B77809399
:100D8000A600C114D10449F0F60180819181800F41
:100D9000911F9183808384E010C082DE882349F014
:100DA0000CC089918093AF000894E108F1080F5FAF
:100DB0001F4FE114F104E1F68B2DDF91CF911F91CC
:100DC0000F91FF90EF90DF90CF90BF900895AF927A
:100DD000BF92CF92DF92EF92FF920F931F93CF9328
:100DE000DF937C01EB016A0124C0E881F981BE2E0A
:100DF000AF2E808190E098018017910708F49C0144
:100E0000E20FF31FF983E883F70180819181821B50
:100E1000930B9183808388819981F60109958230B3
:100E200041F0813069F4B882A982F701118300830F
:100E300007C0F7010081118101151105B1F682E0AB
:100E4000DF91CF911F910F91FF90EF90DF90CF90A6
:100E5000BF90AF900895CF92DF92EF92FF920F93E1
:100E60001F93DF93CF93CDB7DEB729970FB6F894D2
:100E7000DEBF0FBECDBF6B018A01790190E8909370
:100E80004B0196E090934C0190E001979260909313
:100E90004E0180934D011092500110924F0189E054
:100EA00090E090935201809351011092A700CE01DF
:100EB000019655D0282F8823C1F48B819C81F6019F
:100EC00091838083E816F90610F425E00EC0909314
:100ED000520180935101C80142D0282F882329F460
:100EE000F8018181823009F026E0822F29960FB621
:100EF000F894DEBF0FBECDBFCF91DF911F910F9150
:100F0000FF90EF90DF90CF90089508951F93CF93B7
:100F1000DF93182FC8EED3E009C081E087DB882378
:100F2000D1F4209711F484E016C02197112329F4FD
:100F30008091A60083FFF1CF0DC0113029F480917C
:100F4000A60080FFEACF06C0123039F78091A600D4
:100F500082FFE3CF80E0DF91CF911F910895FF9250
:100F60000F931F93CF93DF93182F092FF0909E00BC
:100F7000C0915101D091520180919E008160809377
:100F80009E0081E053DB982F882309F0D7C0809121
:100F9000AA008F7C8093AA001092F5008091A60091
:100FA0008F7E8093A6008091A9008F7B8093A900FB
:100FB000EBE4F1E081918093AF0081E0E335F80745
:100FC000C9F78091A60087778093A60080E09EDF16
:100FD000982F882309F0B2C08091A9008064809383
:100FE000A90081E023DB982F882309F0A7C0212FD7
:100FF000302FC9018C0180914B0187FF52C0809135
:10100000AA008F7C80618093AA000115110569F503
:101010002EC08091A9008F7B8093A90081E076DFAC
:10102000982F882309F08AC08091F6009091F700EC
:10103000892B49F4C0E0D0E006C08091AF00F801F0
:1010400081938F0121978091F6009091F700892B71
:1010500011F0209791F78091A90080648093A900F6
:101060008091A6008E778093A600209791F68091BC
:10107000AA008F7C80628093AA008091A9008F7B58
:101080008093A90082E042DF982F882309F056C0A0
:101090008091A6008B778093A60082E037DF982F9F
:1010A0004DC001151105A9F18091AA008F7C8062C5
:1010B0008093AA008091A9008F7B8093A9001DC016
:1010C00082E024DF982F8823C9F580914401282FDE
:1010D00030E007C0F80181918F018093AF00219724
:1010E00039F08091F6009091F7008217930790F302
:1010F0008091A6008B778093A600209709F782E065
:1011000005DF982F8823D1F48091A9008064809313
:10111000A9008091AA008F7C80618093AA008091B1
:10112000A9008F7B8093A90081E0F0DE982F8823AF
:1011300029F48091A6008E778093A6008091A90063
:1011400080648093A900F0FC05C080919E008E7F92
:1011500080939E0081E08093A8001092A800892FC0
:10116000DF91CF911F910F91FF900895EBE4F1E093
:1011700091E090934B019BE090934C0160934D0163
:10118000138280934F0115821092520110925101E7
:101190001092A70080E090E0E2CE1F93182F1092EB
:1011A0004B0189E080934C0110934D0110924E0148
:1011B0001092500110924F01109252011092510161
:1011C0001092A70080E090E0CADE882349F41093D3
:1011D0004901112311F49AE001C09BE0909353015F
:1011E0001F910895FF920F931F9307EA10E0F801F3
:1011F000F080F7E0FF22F8011082B5DAF801F08202
:101200001F910F91FF900895FC018181843059F462
:101210008581873041F48681813029F4878182304D
:1012200011F480E0089582E00895FC018181853009
:1012300031F483818370823031F480E0089584300A
:1012400011F481E0089582E00895CF92DF92FF9239
:101250000F931F93DF93CF9300D0CDB7DEB78B01F1
:101260006A011A821982FC01958181EA80934B01FF
:1012700010924C0110924E0110924D0190934F012B
:101280001092500182E090E09093520180935101BE
:101290001092A700CE01019662DEF82E882351F548
:1012A00029813A812115310519F1832F922F9A83D3
:1012B0008983C816D90610F4DA82C98289819A8195
:1012C0009093520180935101C80149DEF82E882382
:1012D00089F4B8016E5F7F4F49815A814250504076
:1012E000C80155D189819A81080F191F02501040F9
:1012F000F80110828F2D0F900F90CF91DF911F91E9
:101300000F91FF90DF90CF900895FC0180915301E1
:101310008B3001F584818823E9F082818093A700D6
:101320008091A9008F7B8093A900CB01BA0140E096
:1013300050E0F6DC982F882371F48091A6008B771B
:101340008093A600ADDB982F8091A90080648093E4
:10135000A90001C092E0892F0895FC0180915301FA
:101360008B3049F58481882331F182818093A700F5
:101370008091A9008F7B8093A9008091F6009091C5
:10138000F700892BB1F09091A6008091A6008B7791
:101390008093A60095FD08C083DB882369F48091C3
:1013A000A6008B778093A6008091A900806480932B
:1013B000A90080E0089582E00895FC018091530126
:1013C0008B3029F48481882311F0CF01C6CF089592
:1013D000FC016681662311F480E008958581C6CE04
:1013E0006F927F928F929F92AF92BF92CF92DF9235
:1013F000EF92FF920F931F93DF93CF9300D000D013
:101400000F92CDB7DEB76C017A8369835C834B831F
:101410000496FC0187E0DF011D928A95E9F7EB81D4
:10142000FC818181823011F081E076C066247724CE
:1014300088249924AA24BB2483E0E82EF12CEC0E06
:10144000FD1E8E010F5F1F4F6114710439F0C8013A
:10145000B70145E159E0BBDC882381F0C801B70141
:1014600044E059E0B4DC882311F082E055C06B8081
:101470007C80AA24BB2488249924E6CFEB81FC81BC
:10148000828187FD02C05F0101C04F018114910478
:10149000D9F2A114B104C1F291E0F601808198174C
:1014A00061F4D40114960D911C91159712962C910C
:1014B00081811087078340E10FC0F6018281981770
:1014C000D1F4D50114960D911C91159712962C917B
:1014D00083811287018740E2882311F430E001C044
:1014E00034E0892F62E0E32E9D8368DA9D818823B2
:1014F00011F483E011C09F5F973079F6F301828188
:10150000D60115968C931597838116968C93169712
:1015100081E014968C9380E00F900F900F900F90C5
:101520000F90CF91DF911F910F91FF90EF90DF907F
:10153000CF90BF90AF909F908F907F906F900895C5
:10154000982F8091C80085FFFCCF9093CE0080E05B
:1015500090E008958091C80087FD03C02EEF3FEF13
:101560000BC08091C80087FD03C02FEF3FEF04C080
:101570008091CE00282F30E0C9010895FB01DC01E5
:1015800002C001900D9241505040D8F7089568175D
:10159000790768F4FB01DC01E40FF51FA40FB51F08
:1015A00002C002900E9241505040D8F70895E6CF05
:1015B000DF93CF93CDB7DEB7FE0135966191719180
:1015C000A0916401B091650113968C911397886086
:1015D00013968C938091640190916501AF013FD087
:1015E000E0916401F09165012381277F2383CF91EE
:1015F000DF9108950F931F93CF93DF93EC01E09158
:101600006401F0916501838181FF21C000E010E059
:101610000EC0E0916401F091650120853185BF0124
:10162000F9010995892B11F00FEF1FEF2196FE01AB
:101630008491882371F7E0916401F0916501208520
:1016400031858AE0BF01F9010995892B11F00FEF6F
:101650001FEFC801DF91CF911F910F9108952F9235
:101660003F924F925F926F927F928F929F92AF9232
:10167000BF92CF92DF92EF92FF920F931F93DF936F
:10168000CF93CDB7DEB72B970FB6F894DEBF0FBE62
:10169000CDBF3C012B015A01FC01178216828381C8
:1016A00081FD03C06FEF7FEFB9C19AE0892E1E0163
:1016B0000894211C311CF3012381F20123FD859143
:1016C00023FF81912F01882309F4A5C1853239F4C4
:1016D00023FD859123FF81912F01853221F490E034
:1016E000B301CCD1E8CF982FFF24EE249924FFE159
:1016F000FF15D0F09B3269F09C3228F4903259F0FB
:10170000933291F40EC09D3249F0903369F441E078
:1017100024C052E0F52A84E0F82A28C098E0F92A8B
:1017200025C0E0E1FE2A22C0F7FC29C0892F8053A2
:101730008A3070F4F6FE05C0989C902C1124980E07
:1017400015C0E89CE02C1124E80EF0E2FF2A0EC040
:101750009E3229F4F6FC5FC140E4F42A07C09C36AF
:1017600019F450E8F52A02C0983649F4F20123FD35
:10177000959123FF91912F01992309F0B8CF892FDB
:101780008554833018F08052833038F444E050E0C0
:10179000A40EB51E5FE359830FC0933631F0933723
:1017A00079F0933509F052C01FC0F501808189831B
:1017B00042E050E0A40EB51E610101E010E011C04E
:1017C000F501C080D180F6FC03C06FEF7FEF02C04F
:1017D000692D70E042E050E0A40EB51EC60143D171
:1017E0008C015FE7F52213C0F501C080D180F6FCC3
:1017F00003C06FEF7FEF02C0692D70E042E050E060
:10180000A40EB51EC60124D18C0150E8F52AF3FEC2
:1018100006C018C080E290E0B30130D1EA948E2D6A
:1018200090E008171907B0F30DC0F601F7FC859199
:10183000F7FE81916F0190E0B30120D1E110EA94AD
:10184000015010400115110581F7E2C0943611F0E6
:10185000993661F5F7FE08C0F5012081318142819A
:10186000538184E090E00AC0F501808191819C0160
:10187000442737FD4095542F82E090E0A80EB91E12
:101880009FE6F92257FF09C0509540953095219564
:101890003F4F4F4F5F4FE0E8FE2ACA01B901A10157
:1018A0002AE030E017D1D82ED2183FC0953729F45E
:1018B0001F2D1F7E2AE030E01DC01F2D197F9F368F
:1018C00061F0903720F4983509F0A5C00FC090372B
:1018D00039F0983709F09FC004C028E030E00AC012
:1018E000106114FD146020E130E004C014FD1660A6
:1018F00020E132E017FF08C0F5016081718182812B
:10190000938144E050E008C0F50180819181BC01E1
:1019100080E090E042E050E0A40EB51EA101DAD0D4
:10192000D82ED2188FE7F82EF122F6FE0BC05EEF0C
:10193000F522D91438F4F4FE07C0F2FC05C08FEE8E
:10194000F82202C01D2D01C0192DF4FE0DC0FE01AC
:10195000ED0DF11D8081803319F499EEF92208C054
:101960001F5FF2FE05C003C08F2D867809F01F5F50
:101970000F2DF3FC13C0F0FE0EC01E1510F09D2CB1
:101980000AC09D2C9E0C911A1E2D05C080E290E08D
:10199000B30174D01F5F1E15C8F304C01E1510F4E8
:1019A000E11A01C0EE2404FF0EC080E390E0B30111
:1019B00065D002FF1BC001FD03C088E790E00EC0A8
:1019C00088E590E00BC0802F867881F001FF02C08F
:1019D0008BE201C080E2F7FC8DE290E0B3014ED0D3
:1019E00005C080E390E0B30149D09A94D914C8F3BC
:1019F000DA94F101ED0DF11D808190E0B3013ED04C
:101A0000DD20B1F705C080E290E0B30137D0EA9461
:101A1000EE20C9F750CEF30166817781CB012B967A
:101A20000FB6F894DEBF0FBECDBFCF91DF911F91EF
:101A30000F91FF90EF90DF90CF90BF90AF909F906D
:101A40008F907F906F905F904F903F902F90089570
:101A5000FC010590615070400110D8F78095909579
:101A60008E0F9F1F0895FC0161507040019001107E
:101A7000D8F7809590958E0F9F1F08950F931F9311
:101A8000CF93DF938C01EB018B8181FF1BC082FF21
:101A90000DC02E813F818C819D812817390764F408
:101AA000E881F9810193F983E88306C0E885F98527
:101AB000802F0995892B31F48E819F8101969F8318
:101AC0008E8302C00FEF1FEFC801DF91CF911F91EE
:101AD0000F910895FA01AA27283051F1203181F1A0
:101AE000E8946F936E7F6E5F7F4F8F4F9F4FAF4F26
:101AF000B1E03ED0B4E03CD0670F781F891F9A1F39
:101B0000A11D680F791F8A1F911DA11D6A0F711DEC
:101B1000811D911DA11D20D009F468943F912AE0F8
:101B2000269F11243019305D3193DEF6CF010895E0
:101B3000462F4770405D4193B3E00FD0C9F7F6CF11
:101B4000462F4F70405D4A3318F0495D31FD4052D9
:101B5000419302D0A9F7EACFB4E0A695979587956F
:101B600077956795BA95C9F700976105710508954E
:101B70009B01AC010A2E06945795479537952795FA
:101B8000BA95C9F7620F731F841F951FA01D089592
:041B9000F894FFCFF7
:101B94001B252D3132333435581B454C55464120D5
:101BA40050434C205465737420506167651B451B7A
:101BB400252D313233343558000100020000000075
:101BC4000000000000050100000000008006000184
:061BD400000008004000C3
:00000001FF
