:100000001DC2000039C2000037C2000035C2000026
:1000100033C2000031C200002FC200002DC2000018
:100020002BC2000029C200000C945A1225C2000005
:1000300023C2000021C200001FC200001DC2000038
:100040001BC2000019C2000017C2000015C2000048
:1000500013C2000011C200000FC200000DC2000058
:100060000BC2000009C2000007C2000005C2000068
:1000700003C2000001C20000FFC10000FDC100007A
:10008000FBC10000F9C10000F7C10000F5C100008C
:10009000F3C10000F1C100001201100102000008CC
:1000A000EB034C2001000102000109023E000201A5
:1000B00000C03209040000010202FF000524001004
:1000C000010424020005240600010705830308003B
:1000D000FF09040100020A000000070502024000B7
:1000E00001070581024000010403090418034400CC
:1000F000650061006E002000430061006D00650036
:1001000072006100000028034C00550046004100C9
:10011000200052004E0044004900530020004300DC
:10012000440043002000440065006D006F000000A3
:10013000485454502F312E3120323030204F4B0D47
:100140000A5365727665723A204C55464120524EEC
:100150004449530D0A436F6E74656E742D74797043
:10016000653A20746578742F68746D6C0D0A436F5E
:100170006E6E656374696F6E3A20636C6F73650DA4
:100180000A0D0A00485454502F312E312034303497
:10019000204E6F7420466F756E640D0A536572763B
:1001A00065723A204C55464120524E4449530D0A3F
:1001B000436F6E6E656374696F6E3A20636C6F7324
:1001C000650D0A0D0A003C68746D6C3E093C68655B
:1001D00061643E09093C7469746C653E0909094C07
:1001E0005546412057656273657276657220446595
:1001F0006D6F09093C2F7469746C653E093C2F686A
:100200006561643E093C626F64793E09093C68316E
:100210003E48656C6C6F2066726F6D20796F7572E9
:100220002055534220415652213C2F68313E090946
:100230003C703E09090948656C6C6F212057656C5C
:10024000636F6D6520746F20746865204C5546415E
:1002500020524E4449532044656D6F2057656273A8
:100260006572766572207465737420706167652CA1
:100270002072756E6E696E67206F6E20796F757271
:10028000205553422041565220766961207468659A
:10029000204C554641206C6962726172792E20545F
:1002A0006869732064656D6F6E73747261746573D1
:1002B00020746865204854545020776562736572D5
:1002C0007665722C205443502F495020737461631B
:1002D0006B20616E6420524E4449532064656D6FFB
:1002E00020616C6C2072756E6E696E672061746F30
:1002F0007020746865204C55464120555342207348
:100300007461636B2E0909093C6272202F3E3C62C6
:1003100072202F3E0909093C736D616C6C3E50726E
:100320006F6A65637420496E666F726D6174696F80
:100330006E3A203C6120687265663D226874747074
:100340003A2F2F7777772E6C7566612D6C69622E48
:100350006F7267223E687474703A2F2F7777772E0A
:100360006C7566612D6C69622E6F72673C2F613E01
:100370002E3C2F736D616C6C3E0909093C6872203C
:100380002F3E0909093C693E4C554641205665728D
:1003900073696F6E3A203C2F693E3131313030390C
:1003A00009093C2F703E093C2F626F64793E3C2F57
:1003B00068746D6C3E00010101000202010002013F
:1003C0000100030101000401010006010100110107
:1003D0000100070101000A0101000B0101000C01ED
:1003E00001000D0101000E010100110101001401C5
:1003F00001000101020002010200030102000401E8
:1004000002000501020001010101020101010301D5
:1004100001010401010101010201020102010301C4
:1004200002014C55464120524E44495320416461DB
:1004300070746572000200020002000011241FBEE9
:10044000CFEFD0E2DEBFCDBF11E0A0E0B1E0EEE83B
:10045000FDE200E00BBF02C007900D92A634B10789
:10046000D9F713E1A6E4B1E001C01D92A53FB107A1
:10047000E1F7C0D10C94C516C3CD8BB18F70806AE3
:100480008BB908958BB18F7080618BB9089580917D
:10049000D813843079F48091290790912A07892B09
:1004A00049F08BB18F7080628BB913D28BB18F7092
:1004B00080668BB90895DF93CF93CDB7DEB7AC9745
:1004C0000FB6F894DEBF0FBECDBF83E08093E90086
:1004D0008091E80080FF1CC0809147018823C1F013
:1004E000DE011196E0E0F1E088E001900D9281508C
:1004F000E1F7CE01019668E070E040E050E00E9434
:1005000076148091E8008E778093E800109247017E
:1005100020914801223009F095C0E0914401F0910A
:10052000450184819581A681B7810097A105B10518
:1005300009F088C02093E9008091E80082FF32C072
:100540008091290790912A07892B61F5CE010196A8
:100550006CE270E040E050E00E9424142D853E855E
:100560004F8558892D3D85E0380780E0480780E0B9
:10057000580730F08091EB0080628093EB0062C0FE
:100580008DE491E0B90140E050E00E942414809194
:10059000E8008B778093E8008D859E8590932A07ED
:1005A0008093290781E08093E9008091E80080FF33
:1005B00049C02091070D3091080D2115310509F42E
:1005C00041C0FE0131968CE2DF011D928A95E9F768
:1005D00081E090E0A0E0B0E089839A83AB83BC83A4
:1005E000245D3F4FC901A0E0B0E02C5230408D8324
:1005F0009E83AF83B88784E290E0A0E0B0E0898773
:100600009A87AB87BC87C901A0E0B0E08D879E8741
:10061000AF87B88BCF016CE270E040E050E00E9401
:1006200076146D857E858BE297E040E050E00E9475
:1006300076148091E8008E778093E8001092080D80
:100640001092070DAC960FB6F894DEBF0FBECDBF6B
:10065000CF91DF9108958091DA13882321F08130C2
:1006600009F050C019C08091D913813209F04AC0F5
:100670008091E800877F8093E8006091DF1370919C
:10068000E01380E593E10E9482138091E8008E7769
:100690008093E8000C94A00E8091D913813A91F5D3
:1006A000E0914401F091450184819581A681B78153
:1006B0000097A105B10551F41092501381E090E02C
:1006C000A0E0B0E084839583A683B7838091E8009F
:1006D000877F8093E800E0914401F09145016481B7
:1006E000758180E593E10E9424138091E8008B7767
:1006F0008093E800E0914401F09145011482158255
:10070000168217820895EF92FF920F931F9381E054
:1007100061E842E30E947311082F82E060E842E33F
:100720000E947311E82E83E061EC42E00E94731195
:1007300010E0FF240E211F210170107090E00823AB
:100740001923012B11F490E901C090E68BB18F7051
:10075000982B9BB91F910F91FF90EF90089584B74C
:10076000877F84BF38E10FB6F89430936000109211
:1007700060000FBE80E090E020E80FB6F894209370
:100780006100809361000FBE8AB1806F8AB98BB11E
:100790008F708BB983E390E09093CD008093CC0071
:1007A00086E08093CA001092C8003093C900539A23
:1007B0005A9A0E944412E1EEF3E1F093F013E093B1
:1007C000EF13F093F213E093F1138EE0DF011D922B
:1007D0008A95E9F783E08093E4138AE496E19093A5
:1007E000EA138093E91384E596E19093EC138093E8
:1007F000EB130895B4DF1BD10E94990E8BB18F705B
:1008000080618BB9789443DE12D655DE0E9437168C
:10081000FACFDA01923049F0933061F09130F9F477
:10082000E8E9F0E022E130E01EC0EAEAF0E02EE381
:1008300030E019C0813049F0813018F0823079F40D
:1008400008C0E8EEF0E0849107C0ECEEF0E084919F
:1008500003C0E6E0F1E08491282F30E004C0E0E03E
:10086000F0E020E030E0ED93FC93C9010895CF93D0
:10087000DF9376956795EC01E0E0F0E020E030E072
:1008800040E050E009C089919991A0E0B0E0280FC4
:10089000391F4A1F5B1F3196E617F707A0F30BC0FD
:1008A000DA01C901A070B0709A0144275527280FBA
:1008B000391F4A1F5B1FDA01C901807090700097D1
:1008C000A105B10569F720953095C901DF91CF9158
:1008D0000895CF93DF93CDE4D1E0CE0168D0CE016F
:1008E00068E071E046E050E00E949016009751F0F9
:1008F000CE0162E171E046E050E00E949016009760
:1009000009F04EC08091290790912A07282F892F3E
:10091000922F8150964008F443C0209159013091A4
:100920005A01822F232F382F88E02030380751F0CA
:1009300026503840A9F58BE591E069E377E00E9405
:10094000AE0C06C08BE591E069E377E00E942C0DC8
:100950009C01181619060CF5A1E3B7E0E8E0F1E0F8
:1009600086E001900D928150E1F7ABE2B7E0E3E55C
:10097000F1E086E001900D928150E1F780915901FC
:1009800090915A019093380780933707225F3F4F29
:100990003093080D2093070D03C02F5F3F4F21F0C8
:1009A00010922A0710922907DF91CF910895089598
:1009B0000895089508950895089508950F931F9335
:1009C000CF93DF938C01EB01F5DFF8018081883054
:1009D00019F020E030E025C0188219821B821A82AB
:1009E000F801848195819D838C83868197819F8383
:1009F0008E83B801685F7F4F0091290710912A0705
:100A0000035B1E4F061B170BCE010896A8010E9420
:100A1000A616085F1F4FCE01B80129DF9B838A838A
:100A20009801C901DF91CF911F910F910895109204
:100A30004D138AE080931E0F8093341180934A13E4
:100A400008959C0180914B1390914C13821793074A
:100A500039F460934D1350934F1340934E1302C0DB
:100A6000613011F081E0089580914D13882311F0D9
:100A700080E0089530934C1320934B1360934D13F3
:100A800050934F1340934E1381E0089520914B13E0
:100A900030914C132817390711F080E008958091A8
:100AA0004D130895362F272F692F782FC9010895E8
:100AB0004F925F926F927F928F929F92AF92BF926E
:100AC000CF92DF92EF92FF920F931F93DF93CF931A
:100AD000CDB7DEB728970FB6F894DEBF0FBECDBFF7
:100AE0002C01FA0149835A836B837C83A8010D830F
:100AF0001E832F83388737010B811C81CF80D884D8
:100B0000872D9E2D4F01AA24BB2460E070E0840E47
:100B1000951EA61EB71E20E036E040E050E0820E93
:100B2000931EA41EB51E20E030E0800E911EA21E72
:100B3000B31EEE24FF248C0C9D1CAE1CBF1CA0E039
:100B4000B0E0880E991EAA1EBB1EF301F695E7952C
:100B5000A20120E030E00CC0DA018D919D91AD0141
:100B6000A0E0B0E0880E991EAA1EBB1E2F5F3F4F6B
:100B70002E173F0788F360FE15C0EE0FFF1FE40D30
:100B8000F51D8081880E911CA11CB11C0BC0D501E4
:100B9000C401A070B0704501AA24BB24880E991E20
:100BA000AA1EBB1ED501C401807090700097A105DC
:100BB000B10569F7940120953095C90128960FB6C3
:100BC000F894DEBF0FBECDBFCF91DF911F910F9183
:100BD000FF90EF90DF90CF90BF90AF909F908F905D
:100BE0007F906F905F904F9008954F925F926F92B9
:100BF0007F928F929F92AF92BF92CF92DF92EF92AD
:100C0000FF920F931F93DF93CF9300D000D0CDB707
:100C1000DEB74C0149835A836B837C83590169E0B9
:100C2000E62E6DE0F62E00E010E056E1452E52E093
:100C3000552E3E010894611C711CF7018081918141
:100C400088159905D9F4049D6001059DD00C149D6B
:100C5000D00C1124C601835F924FB30144E050E0F1
:100C60000E949016009751F4F701828193818A15B2
:100C70009B0521F496012F5E324F0BC00F5F1F4F73
:100C800086E192E0E80EF91E03301105B1F620E08E
:100C900030E0C9010F900F900F900F90CF91DF912E
:100CA0001F910F91FF90EF90DF90CF90BF90AF908A
:100CB0009F908F907F906F905F904F9008954F928C
:100CC0005F926F927F928F929F92AF92BF92CF92DC
:100CD000DF92EF92FF920F931F93DF93CF9300D099
:100CE00000D0CDB7DEB74C0149835A836B837C8338
:100CF0005901E9E0EE2EEDE0FE2E00E010E076E195
:100D0000472E72E0572E3E010894611C711CF701BA
:100D10008081918188159905E1F4049D6001059D0C
:100D2000D00C149DD00C1124C601835F924FB301E7
:100D300044E050E00E949016009759F4F701828138
:100D400093818A159B0529F4F601E25EF04F8081BC
:100D50000AC00F5F1F4F86E192E0E80EF91E0330D4
:100D60001105A9F68AE00F900F900F900F90CF9188
:100D7000DF911F910F91FF90EF90DF90CF90BF9088
:100D8000AF909F908F907F906F905F904F9008955D
:100D90003F924F925F926F927F928F929F92AF920B
:100DA000BF92CF92DF92EF92FF920F931F93DF9348
:100DB000CF9300D000D0CDB7DEB75C0149835A8312
:100DC0006B837C834901302E19E0E12E1DE0F12E6A
:100DD00000E010E0B6E14B2EB2E05B2E3E0108943D
:100DE000611C711CF701808191818A159B05D9F4E2
:100DF000049D6001059DD00C149DD00C1124C601EA
:100E0000835F924FB30144E050E00E949016009738
:100E100051F4F701828193818815990521F4F60137
:100E2000E25EF04F47C00F5F1F4F86E192E0E80E91
:100E3000F91E03301105B1F680911E0F8A3019F4A6
:100E400040E050E00FC0809134118A3019F441E045
:100E500050E008C080914A138A3011F080E02CC025
:100E600042E050E086E192E0489F9001499F300DBA
:100E7000589F300D1124275F324FF901B182A082B3
:100E800089819A81AB81BC8184839583A683B78352
:100E90008BE091E0489FF001499FF00D589FF00DC5
:100EA0001124EE0FFF1FE55FF24F918280822B5ECF
:100EB0003D4FF901308281E00F900F900F900F901D
:100EC000CF91DF911F910F91FF90EF90DF90CF9026
:100ED000BF90AF909F908F907F906F905F904F905A
:100EE0003F900895AF92BF92CF92DF92EF92FF9220
:100EF0000F931F93CF93DF937B015C016A01CB01BA
:100F00005ADDD70112968D919C911397BFDD8130E8
:100F100009F002C2F701858581FF0DC0D5011C963D
:100F20004D915D916D917C911F97208131818281DE
:100F3000938100E02DDFF70185850280F381E02DAC
:100F4000D5011C964D915D916D917C911F97D701B4
:100F50002D913C9182FF07C0CF010AE019DF882361
:100F600009F415C2D9C1CF01AADE843009F46FC1DA
:100F7000853048F4823009F456C0833008F082C0CE
:100F8000882359F004C2863009F4B3C1863008F4CE
:100F900074C1873009F0FBC136C1D7011D968C9111
:100FA0001D97823009F0F3C1F501448555856685AA
:100FB00077852D913C91119712968D919C91139765
:100FC00002E0E6DE882369F182E1D6011D968C936A
:100FD000F5014485558566857785D7012D913C912E
:100FE000119712968D919C911397FFDD8C01F7015B
:100FF000648175818681978155DD6F5F7F4F8F4F4B
:101000009F4FD8016D937D938D939C931397F80117
:101010001482158216821782045F1D4FD8011C921C
:10102000C4C184E0EDC0D7011D968C911D9780311D
:1010300009F0ADC1F50144855585668577852D910B
:101040003C91119712968D919C91139703E0A0DE2D
:10105000D5011C964D915D916D917C911F97F70183
:101060002081318182819381C0DDFC018481958161
:10107000A681B7810196A11DB11D84839583A683A6
:10108000B78385C1D7011D968C918131A9F5F601F1
:101090008587D5011C964D915D916D917C911F972F
:1010A000F701208131818281938106E071DED501D3
:1010B0001C964D915D916D917C911F97F701208158
:1010C00031818281938191DDFC0180819181A281B6
:1010D000B3810196A11DB11D80839183A283B38347
:1010E00084819581A681B7810196A11DB11D84835C
:1010F0009583A683B78359C1803119F0883109F0EF
:1011000046C1D5011C964D915D916D917C911F97C3
:10111000F701208131818281938167DDEC01FC013F
:10112000E45FFD4F8081882381F4C55FDD4F8881B6
:10113000CB50D240882349F4C65FDD4F1882CA5095
:10114000D24081E0808319861886C65FDD4F888192
:10115000CA50D240882309F017C168857985F2E02A
:1011600060307F0709F410C1D5018C918F70F701B1
:10117000448542954F7050E0440F551F440F551F52
:1011800012960D911C911397202F012F122F90E092
:10119000880F991F880F991F081B190B041B150B2B
:1011A0009B01265F3F4F2C0F3D1F4E0D5F1DC90158
:1011B000BA01A8010E949D16980140E050E0888184
:1011C0009981AA81BB81820F931FA41FB51F8883B9
:1011D0009983AA83BB8388859985800F911F9987FE
:1011E00088878050924029F0D7011D968C9183FF0B
:1011F000CEC0C45FDD4F1882FE0181E0829380E1A2
:10120000F6018587D2C0D5011C964D915D916D91F7
:101210007C911F97F7012081318182819381E5DCE8
:1012200021E1D6011D962C93FC01E45FFD4F108255
:10123000F5014485558566857785D7012D913C91CB
:10124000119712968D919C91139704E050C0F7016D
:1012500085858131B9F0803109F099C0F501448567
:10126000558566857785D7012D913C91119712960A
:101270008D919C91139705E04DC0F70185858131D3
:1012800009F085C0D5011C964D915D916D917C91C1
:101290001F972081318182819381A7DCFC0180E14D
:1012A000D6011D968C9380819181A281B381019694
:1012B000A11DB11D80839183A283B3838481958115
:1012C000A681B7810196A11DB11D84839583A68354
:1012D000B783F5014485558566857785D7012D91BE
:1012E0003C91119712968D919C9113970AE050DDD5
:1012F0005CC0F7018585803109F049C0D5011C9695
:101300004D915D916D917C911F97208131818281FA
:1013100093810AE03DDD3BC084E172CF82E090E042
:10132000D6011F969C938E931E9709C080E092E091
:1013300028853985821B930BF60196878787D6010E
:1013400053961C921E92529751961C921E92509741
:101350001C968C911C97807F1C968C93F50140897C
:101360005189628973890485158526853785C6016B
:10137000E4E1EE2EF12C9CDBD60151969C938E93EA
:10138000509724E130E005C02FEF3FEF02C020E08E
:1013900030E0C901DF91CF911F910F91FF90EF9045
:1013A000DF90CF90BF90AF900895F50144855585AB
:1013B00066857785D7012D913C91119712968D9175
:1013C0009C91139712DCEC01F70182819381D60185
:1013D00011969C938E938081918113969C938E930A
:1013E00012976C817D818E819F815CDBF601648325
:1013F000758386839783688179818A819B8152DB9B
:10140000D60118966D937D938D939C931B971C9694
:101410008C911C978F7080651C968C93C45FDD4FF8
:101420008881CC50D240882309F478CF7FCF2F9287
:101430003F924F925F926F927F928F929F92AF9264
:10144000BF92CF92DF92EF92FF920F931F93DF93A1
:10145000CF9300D0CDB7DEB759E0C52E5DE0D52ED5
:1014600000E010E046E1E42E42E0F42E1CC0809142
:101470004D13813079F40E9DB0010F9D700D1E9DAE
:10148000700D1124675E724FE0914E13F0914F136F
:10149000C60109950F5F1F4F26E132E0C20ED31E31
:1014A0000330110559F020914B1330914C13D601A4
:1014B0008D919C912817390769F7D9CF8091070D35
:1014C0009091080D892B09F026C180911B0F88236C
:1014D00039F080911C0F882319F01A8219821BC0E1
:1014E00080913111882349F080913211882329F0AD
:1014F000E1E0F0E0FA83E9830EC08091471388238E
:1015000009F409C180914813882309F404C122E039
:1015100030E03A8329833BE2A32E37E0B32E8EE0FE
:1015200090E0A80EB91E2BE2C22E27E0D22EA2E236
:10153000B0E0CA0EDB1E86E192E0E981FA81E89F05
:101540008001E99F100DF89F100D112499E0692E7C
:101550009DE0792E600E711ED30150968D909C9067
:1015600051978D919C9190934E0780934D078BE0FE
:1015700091E09F01289FF001299FF00D389FF00D09
:101580001124EE0FFF1FE55FF24F80819181D6019C
:1015900013969C938E931297F301648575858685C7
:1015A000978580DAD60114966D937D938D939C93E5
:1015B0001797F301608571858285938573DAD6016B
:1015C00018966D937D938D939C931B9782E090E08A
:1015D0001F969C938E931E9780E11D968C931D976A
:1015E00053961C921E92529751961C921E9250979F
:1015F00080E51C968C932BE237E02A5C3F4F055E1A
:10160000124FC901B801A4010E949D16C401A0E0B7
:10161000B0E0F3012485358546855785820F931FF9
:10162000A41FB51F84879587A687B78724E130E07C
:10163000820E931E20900E0130900F0140901001F9
:10164000509011010481158126813781C601B201B4
:10165000A10174012DDAD60151969C938E93509777
:1016600084010C5E1F4FF50112830383118285E410
:101670008093390716821782158214821386128688
:1016800086E0818780E88087D5011C962D923D9267
:101690004D925C921F97F30184819581A681B78159
:1016A000F501808B918BA28BB38BC50164E170E057
:1016B000DED8D5011B969C938E931A97ABE2B7E0C8
:1016C0001696E8E0F1E086E001900D928150E1F796
:1016D000ABE2B7E0E0E2F1E086E001900D928150EC
:1016E000E1F788E090E09093380780933707025F36
:1016F0001F4F1093080D0093070D86E192E029819A
:101700003A81289FF001299FF00D389FF00D112498
:10171000E45EF04F10820F900F90CF91DF911F91F8
:101720000F91FF90EF90DF90CF90BF90AF909F9080
:101730008F907F906F905F904F903F902F90089583
:10174000EF92FF920F931F93CF93DF937C01EB01F6
:101750008A01CB0131D98A819B81282F892F922F31
:1017600083349105E9F4BE01685F7F4FA801485FAB
:101770005F4FC7011FD09C01181619068CF48A818F
:101780009B81F801918380838881998193838283EF
:1017900017821682C9010896948385839C0102C032
:1017A00020E030E0C901DF91CF911F910F91FF90B0
:1017B000EF9008958F929F92AF92BF92CF92DF9257
:1017C000EF92FF920F931F93CF93DF938B01EA0168
:1017D0005C0180EF882E912C860E971ECB01EDD8F0
:1017E00080EFFE0111928A95E9F7F80181818983E2
:1017F00082E0888382818A831B8284819581A6818D
:10180000B7818C839D83AE83BF83198618868285BA
:1018100093859B878A87C0901C01D0901D01E09022
:101820001E01F0901F01C88AD98AEA8AFB8A045EE9
:101830001F4FCE014C96B80146E050E00E94A6161C
:10184000C451DF4F83E692E8A3E5B3E6888399832A
:10185000AA83BB83CC5ED040F501C486D586E686DC
:10186000F78680910E0190910F01A0911001B09127
:101870001101808B918BA28BB38B5BC0853309F0F8
:101880004DC094012E5F3F4FF4018281813019F0E9
:10189000833009F048C0FE01E051FF4FDF0185E3CE
:1018A0008D9381E08183ED012196F9018081813062
:1018B00011F085E001C082E011968C93FE01319613
:1018C00081E08983CF01019634E03183DC011196F8
:1018D0002FEFFC012183FD01319611962C93DF013E
:1018E00011962183FD01319611961C92DF0111960C
:1018F00086E38183FD01319611963C9380910E0120
:1019000090910F01A0911001B091110181839283F8
:10191000A383B483258320E031E012C0882319F427
:1019200081E090E004C0F401818190E00296880E8D
:10193000991EF40180818F3F09F0A0CF20E030E0B4
:10194000C901DF91CF911F910F91FF90EF90DF9030
:10195000CF90BF90AF909F908F900895EF92FF929D
:101960000F931F93CF93DF93182F092FF62EE72E97
:101970001FD8C12FD02F8A819B81282F892F922F8A
:101980008050984009F05EC08E819F81282F892F5A
:10199000922F019709F056C0CE0148966EE071E093
:1019A00044E050E00E949016009759F0CE01429614
:1019B00068E071E046E050E00E949016009709F060
:1019C00041C0EF2DFE2D88819981918380838A818A
:1019D0009B81938382838C8184838D81858380E046
:1019E00092E0978386839F012E5E3F4FAE01485F52
:1019F0005F4F86E0DA010D90AD01D9010D929D0196
:101A00008150C1F78E859F85A889B989808F918F74
:101A1000A28FB38FEF012896A8E0B1E086E00D9089
:101A200009928150E1F780910E0190910F01A091F0
:101A30001001B091110186879787A08BB18B2CE1A3
:101A400030E002C020E030E0C901DF91CF911F916A
:101A50000F91FF90EF900895DF92EF92FF920F9316
:101A60001F93CF93DF937C01EB010E94D904F70110
:101A7000D080FFE0DF228701005F1F4FC8016EE0CA
:101A800071E044E050E00E949016009749F0C801D0
:101A900068E171E044E050E00E949016009771F414
:101AA0002D2D30E0220F331F220F331FF7018185C8
:101AB000863081F08131B9F0813019F020E030E0DA
:101AC00049C0BE016C5E7F4FC701820F931F0E9409
:101AD000DE0411C02E0D3F1DAE014C5E5F4FC701ED
:101AE000B90100DA08C02E0D3F1DAE014C5E5F4FFC
:101AF000C701B90125DE9C01181619065CF58C0199
:101B00000C5E1F4F1A830B83198285E488831E8223
:101B10001F821D821C821B861A86F7018185898798
:101B200080E8888780899189A289B3898C879D877D
:101B3000AE87BF8784859585A685B785888B998B69
:101B4000AA8BBB8BCE0164E170E00E9437049B87B7
:101B50008A879801C901DF91CF911F910F91FF9062
:101B6000EF90DF900895DB010D900020E9F71197C9
:101B7000A61BB70BAD010E94B7169C0180E0232B7A
:101B800009F481E00895AF92BF92CF92DF92EF9275
:101B9000FF920F931F93CF93DF935C01EB018B01B7
:101BA0000E5F1F4F33E0C32E32E0D32EC60ED71E7A
:101BB000F6018081882309F466C022E0E22EF22E2D
:101BC000E60EF71EF7018081882309F0A7C0C8013F
:101BD00066E271E0C8DF8823F9F0C8016AE271E0CB
:101BE000C2DF882349F110924601C80160E371E029
:101BF0000E94711681E0F7018083F80101900020B6
:101C0000E9F73197E01BF10BF983E883F601808354
:101C1000CC5FDD4F888382C0C80161E371E0A3DF40
:101C2000882311F1C80166E371E09DDF882321F06C
:101C3000C80160E371E003C0C80164E871E00E947C
:101C4000711681E0F7018083F80101900020E9F727
:101C50003197E01BF10BF983E883F601808385E17E
:101C600092E0A80EB91E57C0C8016EE371E07BDF99
:101C7000882321F081E0F7018083EFCFF601108205
:101C8000198218824BC0CC5FDD4F8881C450D2408E
:101C9000882309F443C0CE5FDD4F8881C250D24013
:101CA0008823E1F180914601C82EDD24D694DC2CF6
:101CB000CC24D794C79486EC91E0C80ED91EC601F7
:101CC0000E9478167C0191E8E916F10418F080E88A
:101CD000E82EF12CC801B601A7010E948116CE5F43
:101CE000DD4F81E08883C250D240F982E882CD5F27
:101CF000DD4F8883C350D240809146018F5F80932F
:101D000046018150833051F4CC5FDD4F1882E5E10C
:101D1000F2E0AE0EBF1E87E0F5018083DF91CF9128
:101D20001F910F91FF90EF90DF90CF90BF90AF90F9
:101D3000089580E090E561E043EC5DE00C942105BE
:101D4000E0914401F091450180819181A281B381AC
:101D500084309105A105B10509F4A1C08530910534
:101D6000A105B10558F482309105A105B105C1F076
:101D70000397A105B10509F0B5C288C08630910569
:101D8000A105B10509F434C286309105A105B1055C
:101D900008F4D5C10897A105B10509F0A3C24CC24A
:101DA00021E02093470182E090E0A0E0B0E880933A
:101DB000501390935113A0935213B093531384E391
:101DC00090E0A0E0B0E08093541390935513A0935B
:101DD0005613B093571310925C1310925D13109228
:101DE0005E1310925F1381E090E0A0E0B0E080937A
:101DF000601390936113A0936213B09363131092D6
:101E000064131092651310926613109267138093F7
:101E1000681390936913A0936A13B0936B13109295
:101E20006C1310926D1310926E1310926F138093B7
:101E3000701390937113A0937213B093731388E08F
:101E400096E0A0E0B0E08093741390937513A09394
:101E50007613B0937713109278131092791310922F
:101E60007A1310927B1310927C1310927D131092B0
:101E70007E1310927F131092801310928113109290
:101E80008213109283132093480108951092470102
:101E9000148215821682178210924801089581E0FB
:101EA0008093470160E573E120915C1330915D13ED
:101EB00040915E1350915F1384E090E0A0E0B0E8A1
:101EC0008093501390935113A0935213B0935313D4
:101ED00088E190E0A0E0B0E0809354139093551314
:101EE000A0935613B09357132E3081E0380781E04A
:101EF000480780E0580709F4E4C02F3081E0380734
:101F000081E0480780E0580708F058C0263081E09B
:101F1000380781E0480780E0580709F4AFC0273050
:101F200081E0380781E0480780E05807F8F4223064
:101F300081E0380781E0480780E0580709F4CAC00B
:101F4000233081E0380781E0480780E0580738F403
:101F5000215031404140504009F0D4C080C025504C
:101F600031404140504008F0CDC0B4C02C3081E039
:101F7000380781E0480780E0580780F42A3061E0A4
:101F8000360761E0460760E0560708F077C0275043
:101F900031404140504009F0B5C07FC02C3081E055
:101FA000380781E0480780E0580709F462C02D50E7
:101FB00031404140504009F0A5C065C0263081E065
:101FC000380782E0480780E0580710F5213061E0CB
:101FD000360762E0460760E0560708F07BC0243110
:101FE00081E0380781E0480780E0580709F472C0B3
:101FF000223062E0360761E0460760E0560709F4E8
:1020000069C0215131404140504009F07BC06BC054
:10201000243081E0380781E0480781E0580709F45F
:102020004BC0253081E0380781E0480781E0580740
:1020300058F4215031404140514022303105410592
:10204000510508F05FC02EC0215031404240514040
:10205000233031054105510508F054C03BC0CB0188
:10206000489666EB73E04CE650E032D68CE690E0A2
:1020700007C18FEF9FEFAFEFB0E039C08CED95E077
:10208000A0E0B0E034C0CB01489662E274E043E1E6
:1020900050E01ED683E190E0F3C080EA96E8A1E02C
:1020A000B0E025C0CB01489665E374E046E050E01F
:1020B0000FD686E090E0E4C081E090E0A0E0B0E0E0
:1020C00016C08091490190914A01A0914B01B091B5
:1020D0004C010DC0109268131092691310926A138C
:1020E00010926B130CC080E696E0A0E0B0E0809305
:1020F000681390936913A0936A13B0936B1384E0F1
:1021000090E0BEC08BEB90E0A0E0B0EC80935C135D
:1021100090935D13A0935E13B0935F1310926013BE
:102120001092611310926213109263131092641351
:10213000109265131092661310926713089581E050
:102140008093470120915C1330915D1340915E13A1
:1021500050915F1385E090E0A0E0B0E880935013C9
:1021600090935113A0935213B093531380E190E0D6
:10217000A0E0B0E08093541390935513A0935613AE
:10218000B09357138091641390916513A0916613D7
:10219000B09167132E3061E0360761E0460760E0DA
:1021A000560731F02350314041405140A1F45FC007
:1021B000FC01E85AFC4E80819181A281B381809319
:1021C000490190934A01A0934B01B0934C0182E0E6
:1021D000809348014CC08BEB90E0A0E0B0EC809382
:1021E0005C1390935D13A0935E13B0935F130895F7
:1021F00081E08093470186E090E0A0E0B0E8809322
:10220000501390935113A0935213B093531380E142
:1022100090E0A0E0B0E08093541390935513A09306
:102220005613B093571310925813109259131092DB
:102230005A1310925B131BC081E08093470188E022
:1022400090E0A0E0B0E88093501390935113A093D6
:102250005213B093531380E190E0A0E0B0E080937C
:10226000541390935513A0935613B0935713109291
:102270005C1310925D1310925E1310925F13089519
:1022800010925C1310925D1310925E1310925F1304
:10229000A0E0B0E0209154133091551340915613B3
:1022A00050915713280F391F4A1F5B1F2093541357
:1022B00030935513409356135093571380936013E4
:1022C00090936113A0936213B093631380E190E045
:1022D000A0E0B0E08093641390936513A09366131D
:1022E000B09367130895382F282F2CC02093E9004E
:1022F000231721F4762F942F50E006C07091EC0044
:102300009091ED005091F00091FF1BC08091EB0087
:102310008E7F8093EB008091ED008D7F8093ED00A8
:102320008091EB0081608093EB007093EC009093C0
:10233000ED005093F0008091EE0087FD02C080E038
:1023400008952F5F273090F23093E90081E00895DF
:102350008091D91388239CF404C08091D8138823DA
:10236000B9F08091E80082FFF8CF8091E8008B7788
:102370008093E80008958091D813882349F08091D4
:10238000E80080FFF8CF8091E8008E778093E80026
:1023900008954091E4005091E50024E68091EC001E
:1023A00080FF24C08091E80080FD1EC08091D8137A
:1023B000882311F482E00895853011F483E00895B4
:1023C0008091EB0085FF02C081E008958091E400D8
:1023D0009091E5008417950709F3222311F484E016
:1023E00008952150AC01DACF80E008958091E80093
:1023F00082FFDCCFF9CFEF92FF920F931F934DD066
:1024000054D008ED10E0F80180818F7780838081BF
:102410008068808380818F7D8083E7EDF0E080811C
:102420008068808319BC1092D8131092D413109234
:10243000D6131092D51380EEE82EF12CF70180818F
:102440008B7F8083F80180818160808380E060E001
:1024500042E049DFE1EEF0E080818E7F8083E2EEB2
:10246000F0E0808181608083808188608083F701D3
:1024700080818E7F8083F8018081806180831F91BD
:102480000F91FF90EF900895E7EDF0E0808181607B
:10249000808381E08093D713AECFE8EDF0E08081B8
:1024A0008C7F80831092E20008951092DA001092DF
:1024B000E10008951F920F920FB60F920BB60F9284
:1024C00011242F933F934F935F936F937F938F9339
:1024D0009F93AF93BF93EF93FF938091E10082FFAF
:1024E0000AC08091E20082FF06C08091E1008B7FEC
:1024F0008093E100BBD38091DA0080FF1FC0809100
:10250000D80080FF1BC08091DA008E7F8093DA00B4
:102510008091D90080FF0DC08CE089BD8EE089BD1F
:1025200009B400FEFDCF81E08093D8130E943D02E4
:1025300005C019BC1092D8130E9442028091E1009C
:1025400080FF18C08091E20080FF14C08091E200FB
:102550008E7F8093E2008091E20080618093E200B0
:102560008091D80080628093D80019BC85E0809368
:10257000D8137CD38091E10084FF2DC08091E200CC
:1025800084FF29C08CE089BD8EE089BD09B400FEBE
:10259000FDCF8091D8008F7D8093D8008091E1009D
:1025A0008F7E8093E1008091E2008F7E8093E20035
:1025B0008091E20081608093E2008091D4138823AF
:1025C00031F48091E30087FD02C081E001C084E026
:1025D0008093D8134BD38091E10083FF22C0809178
:1025E000E20083FF1EC08091E100877F8093E100BD
:1025F00082E08093D8131092D4138091E1008E7FF3
:102600008093E1008091E2008E7F8093E2008091D0
:10261000E20080618093E20080E060E042E063DEFF
:1026200025D3FF91EF91BF91AF919F918F917F91B2
:102630006F915F914F913F912F910F900BBE0F9033
:102640000FBE0F901F9018959C014091DF13509181
:10265000E0134617570718F4F90190E03DC06115E3
:10266000710511F0AB01F8CF8091E8008E7780936F
:10267000E80040E050E0F0CF8091D8138823F1F1DA
:102680008530F1F18091E80083FF02C081E0089578
:102690008091E80082FD2CC08091E80080FF1CC082
:1026A0002091F2003091F30007C081918093F100F6
:1026B000415050402F5F3F4F4115510519F02830D0
:1026C000310598F390E02830310509F491E08091CC
:1026D000E8008E778093E8004115510569F699234B
:1026E00059F606C08091D813882341F0853041F017
:1026F0008091E80082FFF6CF80E0089582E008959F
:1027000083E008959C016115710529F48091E8002A
:102710008B778093E800F90122C08091D813882339
:1027200071F1853071F18091E80083FF02C081E092
:1027300008958091E80082FFF0CF06C08091F100FB
:1027400081936150704031F08091F2009091F300DC
:10275000892BA1F78091E8008B778093E8006115C1
:102760007105D9F606C08091D813882341F08530D1
:1027700041F08091E80080FFF6CF80E0089582E08C
:10278000089583E008959C014091DF135091E01378
:102790004617570718F4F90190E040C0611571051C
:1027A00011F0AB01F8CF8091E8008E778093E800BC
:1027B00040E050E0F0CF8091D813882309F440C066
:1027C000853009F43FC08091E80083FF02C081E0BA
:1027D00008958091E80082FD2DC08091E80080FF7F
:1027E0001DC02091F2003091F30008C084918093C5
:1027F000F1003196415050402F5F3F4F4115510538
:1028000019F02830310590F390E02830310509F4B3
:1028100091E08091E8008E778093E80041155105A2
:1028200051F6992341F606C08091D813882341F0D0
:10283000853041F08091E80082FFF6CF80E0089576
:1028400082E0089583E00895BF92CF92DF92EF92E5
:10285000FF920F931F93CF93DF93182F092F7B01C4
:102860006A0197DDB82E8823B1F5812F902F9C0146
:10287000E901C114D10439F0F60180819181E81A8F
:10288000F90AC80FD91F00E010E022C08091E800CB
:1028900085FD16C08091E8008B778093E800E7D132
:1028A000C114D10449F0F60180819181800F911FFC
:1028B0009183808385E010C06CDD882349F00CC0D3
:1028C0008091F10089930894E108F1080F5F1F4F90
:1028D000E114F104D9F68B2DDF91CF911F910F9167
:1028E000FF90EF90DF90CF90BF900895BF92CF926E
:1028F000DF92EF92FF920F931F93CF93DF93182FE6
:10290000092F7B016A0145DDB82E8823B1F5812F9F
:10291000902F9C01E901C114D10439F0F6018081A6
:102920009181E81AF90AC80FD91F00E010E022C00F
:102930008091E80085FD16C08091E8008E77809335
:10294000E80095D1C114D10449F0F601808191814C
:10295000800F911F9183808385E010C01ADD88234A
:1029600049F00CC089918093F1000894E108F108C6
:102970000F5F1F4FE114F104D9F68B2DDF91CF913A
:102980001F910F91FF90EF90DF90CF90BF9008952F
:102990000F931F93DF93CF93CDB7DEB7AC970FB6EE
:1029A000F894DEBF0FBECDBFE9EDF3E18091F100F9
:1029B000819323E1E13EF207C9F70E942B03809146
:1029C000E80083FF3AC18091D9133091DA13353092
:1029D00009F487C0363040F43130C9F1313070F03D
:1029E000333009F02AC133C0383009F4F7C0393028
:1029F00009F406C1363009F020C197C0803821F0B3
:102A0000823809F01AC108C09091D5138091D6136D
:102A1000882399F0926011C08091DD1387708093B4
:102A2000E9008091EB0090E025E0969587952A9546
:102A3000E1F7982F91701092E9008091E800877F6C
:102A40008093E8009093F1001092F100D2C08823A7
:102A500019F0823009F0F1C090E08F71907000970A
:102A600021F0029709F0E9C00CC08091DB1381309E
:102A700009F0E3C01092D613333069F58093D61372
:102A80002AC08091DB13882331F52091DD13277054
:102A900009F4D3C02093E9008091EB0080FF1BC0B4
:102AA000333021F48091EB00806213C08091EB0001
:102AB00080618093EB0081E090E002C0880F991F55
:102AC0002A95E2F78093EA001092EA008091EB00E9
:102AD00088608093EB001092E9008091E800877F86
:102AE0008BC0882309F0A9C01091DB131F770FB7A3
:102AF000F8948091E800877F8093E80029DC80913A
:102B0000E80080FFFCCF8091E3008078812B8093E8
:102B1000E30080688093E300112311F482E001C098
:102B200083E08093D8130FBF88C08058823008F0AC
:102B300084C08091DB139091DC1323E08C3D9207DD
:102B400009F033C083E08C838AE28B837FB7F894EB
:102B5000DE0115966EE040E050E011E2E62FF0E075
:102B600010935700849140FF03C082958F706F5F70
:102B70008F70282F30E08A3018F0C901C79602C044
:102B8000C901C0968D939D934F5F5F4F44315105AE
:102B900029F77FBF8091E800877F8093E800CE010E
:102BA00003966AE270E050DD13C06091DD13AE0160
:102BB0004F5F5F4F0E940904BC01009709F43DC0BC
:102BC0008091E800877F8093E80089819A81DBDD2E
:102BD0008091E8008B778093E8002FC0803869F5FA
:102BE0008091E800877F8093E8008091D4138093E0
:102BF000F1008091E8008E778093E800A9DB1DC08A
:102C00008823D9F49091DB139230B8F48091E800D6
:102C1000877F8093E8009093D4139ADB8091D4133C
:102C2000882331F48091E30087FD02C081E001C078
:102C300084E08093D8130E9483038091E80083FF8F
:102C40000AC08091EB0080628093EB008091E800E5
:102C5000877F8093E800AC960FB6F894DEBF0FBE76
:102C6000CDBFCF91DF911F910F91089508951F93CC
:102C70008091D813882361F01091E9001092E90047
:102C80008091E80083FF01C083DE17701093E90094
:102C90001F910895982F8091C80085FFFCCF9093D5
:102CA000CE0080E090E008958091C80087FD03C0C9
:102CB0002EEF3FEF0BC08091C80087FD03C02FEFC0
:102CC0003FEF04C08091CE00282F30E0C901089565
:102CD000FB01DC0102C005900D9241505040D8F735
:102CE0000895FB01DC0105900D920020E1F70895A5
:102CF000FC0105900020E9F7809590958E0F9F1FAD
:102D00000895FB01DC014150504048F005900D92C0
:102D10000020C9F701C01D9241505040E0F70895CE
:102D2000FB01DC0104C08D910190801921F4415018
:102D30005040C8F7881B990B0895FB01DC0102C0C5
:102D400001900D9241505040D8F7089568177907C7
:102D500068F4FB01DC01E40FF51FA40FB51F02C0EE
:102D600002900E9241505040D8F70895E6CFFB01F3
:102D7000DC014150504030F08D910190801919F4E0
:0E2D80000020B9F7881B990B0895F894FFCF37
:102D8E00A1010000000000000001000100010A0086
:102D9E000002FFFFFFFFFFFFFFFFFFFF0A00000122
:102DAE0002000200020047455400474554202F20E0
:102DBE0000484541440048454144202F20005452CC
:062DCE00414345005013D3
:00000001FF
