:100000001AC1000036C1000034C1000032C1000036
:1000100030C100002EC100002CC100002AC1000028
:1000200028C1000026C100009FC5000022C10000B9
:1000300020C100001EC100001CC100001AC1000048
:1000400018C1000016C1000014C1000012C1000058
:1000500010C100000EC100000CC100000AC1000068
:1000600008C1000006C1000004C1000002C1000078
:1000700000C10000FEC00000FCC00000FAC000008B
:10008000F8C00000F6C00000F4C00000F2C000009C
:10009000F0C00000EEC000001B5B33316D4465769C
:1000A00020456E756D204572726F720D0A202D2DE0
:1000B000204572726F7220436F64652025640D0ABB
:1000C000202D2D20537562204572726F7220436F70
:1000D00064652025640D0A202D2D20496E2053745F
:1000E0006174652025640D0A1B5B33376D001B5B53
:1000F00033316D486F7374204D6F646520457272A3
:100100006F720D0A202D2D204572726F7220436F81
:1001100064652025640D0A1B5B33376D004D6F75D8
:10012000736520456E756D6572617465642E0D0A88
:1001300000436F756C64206E6F74205365742042A9
:100140006F6F742050726F746F636F6C204D6F64AB
:10015000652E0D0A004572726F72205365747469C2
:100160006E672044657669636520436F6E666967D4
:1001700075726174696F6E2E0D0A0041747461634B
:1001800068656420446576696365204E6F742061FC
:100190002056616C6964204D6F7573652E0D0A00E1
:1001A0004572726F722052657472696576696E6706
:1001B00020436F6E66696775726174696F6E204463
:1001C000657363726970746F722E0D0A000D0A44B4
:1001D000657669636520556E6174746163686564F2
:1001E0002E0D0A004465766963652041747461636D
:1001F0006865642E0D0A0064583A253264206459FB
:100200003A25326420427574746F6E3A25640D0A83
:10021000001B5B33366D4D6F75736520486F7374CB
:100220002044656D6F2072756E6E696E672E0D0AC3
:100230001B5B33376D0011241FBECFEFD0E2DEBF52
:10024000CDBF11E0A0E0B1E0E4E0FBE100E00BBFD6
:1002500002C007900D92A432B107D9F711E0A4E2D1
:10026000B1E001C01D92A634B107E1F767D10C944B
:10027000800DC6CE909131012DB73EB72850304049
:100280000FB6F8943EBF0FBE2DBFEDB7FEB7319647
:1002900028E930E0ADB7BEB712963C932E93119784
:1002A0008283138264831582968317820E94900A48
:1002B0008BB18F7080698BB92DB73EB7285F3F4FE8
:1002C0000FB6F8943EBF0FBE2DBF08951F93182F91
:1002D00026D400D000D0EDB7FEB731968EEE90E078
:1002E000ADB7BEB712969C938E931197128313826B
:1002F0000E94900A8BB18F7080698BB90F900F901C
:100300000F900F90FFCF8DEC91E00E94B20A8BB15D
:100310008F7080618BB9089584EE91E00E94B20ADB
:100320008BB18F70806A8BB908950F931F93DF9301
:10033000CF93CDB7DEB7C250D2400FB6F894DEBF30
:100340000FBECDBF8BB18F70806A8BB98E010D5FF0
:100350001F4F81E0BE016F5F7F4FA80120E032E0B8
:1003600031D5882319F080EA91E011C069817A8142
:1003700080E091E0A801BDD7882319F08BE791E0D8
:1003800006C081E0AAD6882341F085E591E00E946D
:10039000B20A8BB18F70806917C080E091E032D7CC
:1003A000882359F081E391E00E94B20A8BB18F70EB
:1003B00080698BB980E091D608C08DE191E00E9400
:1003C000B20A8BB18F7080668BB9CE5FDD4F0FB6EE
:1003D000F894DEBF0FBECDBFCF91DF911F910F917B
:1003E0000895DF93CF9300D00F92CDB7DEB7809101
:1003F00031018B3009F052C080E091E0E7D68823CC
:1004000009F44CC080E091E0BE016F5F7F4F25D7BB
:100410002DB73EB7285030400FB6F8943EBF0FBE00
:100420002DBFEDB7FEB7319687EF91E0ADB7BEB700
:1004300012969C938E9311978A81992787FD9095A8
:10044000938382838B81992787FD909595838483FD
:100450008981868317820E94900A8A812DB73EB7D0
:10046000285F3F4F0FB6F8943EBF0FBE2DBF181642
:1004700014F490E105C0882311F090E201C090E0EF
:100480008B81181614F4906802C0811190648981E0
:10049000811190EF8BB18F70982B9BB90F900F90BB
:1004A0000F90CF91DF91089584B7877F84BF38E1A3
:1004B0000FB6F89430936000109260000FBE80E099
:1004C00090E020E80FB6F8942093610080936100DB
:1004D0000FBE83E390E09093CD008093CC0086E044
:1004E0008093CA001092C8003093C900539A5A9A58
:1004F0008AB1806F8AB98BB18F708BB907D3E2E371
:10050000F1E0F0934101E0934001F0934301E09367
:1005100042018EE0DF011D928A95E9F783E0809326
:10052000350182E79AE090933B0180933A018CE792
:100530009AE090933D0180933C010895B5DF81E1FD
:1005400092E00E94B20A8BB18F7080618BB978946F
:1005500048DFE8D5FDCF982F20919E003091A00074
:100560008091A0008F7D8093A00080919F008F7D5F
:1005700080939F0080919E00816080939E0028C0A0
:1005800080919F0085FF06C080919F008F7D8093A2
:100590009F00915080913101813011F491E01AC097
:1005A0008091A60084FF09C01092F5008091A600FA
:1005B0008F7E8093A60092E00DC08091A60081FFFF
:1005C00007C08091A6008D7F8093A60093E002C0B3
:1005D0009923B1F620FD05C080919E008E7F809307
:1005E0009E0035FF05C08091A00080628093A0002E
:1005F000892F089560919E008091A0008D7F809347
:10060000A00080919E00826080939E0080919E0059
:1006100081FDFCCF80919E00816080939E001092AE
:1006200027013091A0008091A0008F7D8093A000D1
:1006300080919F008F7D80939F002AE040ED57E0DE
:1006400080919F0085FF0BC080919F008F7D8093DC
:100650009F0080919F008D7F80939F0005C0CA01FD
:100660000197F1F7215061F735FF05C08091A00097
:1006700080628093A00060FD05C080919E008E7F07
:1006800080939E008091A00082608093A0000895D6
:10069000EF920F931F93DF93CF93CDB7DEB72897D9
:1006A0000FB6F894DEBF0FBECDBF8091310185300B
:1006B00009F494C0863068F48230B9F1833018F4BC
:1006C0008823A1F004C18330D1F1843009F0FFC048
:1006D0005DC0873009F49BC0873008F48AC0883039
:1006E00009F4B3C0893009F0F2C0D7C000912501E8
:1006F000109126010115110509F4E9C081E02BDFF5
:10070000682F882331F0809124018093310191E09A
:10071000DAC0C80101979093260180932501892BA7
:1007200009F0D5C08091240107C088EE93E0909332
:1007300026018093250183E080933101C8C0809118
:100740002501909126010197909326018093250120
:10075000019629F080ED97E00197F1F7B8C07798FE
:100760008091D80080618093D8008091DD008B7FDC
:100770008093DD008091D70080618093D7008091C5
:10078000DD0082608093DD0084E0D6CF80919F0001
:1007900080FF9DC080919F008E7F80939F008091FD
:1007A0009F008D7F80939F008091DF008D7F8093DD
:1007B000DF008091DE0082608093DE0080919E00E9
:1007C000816080939E00EDD01092310184E690E02C
:1007D000909326018093250185E05CC00BDF109289
:1007E000310188EC90E0909326018093250186E00A
:1007F00051C080E060E040E020E000E410E0EE2442
:1008000072D08091AC0087FF5CC087E095CFA9E2F1
:10081000B1E0EBE1F1E088E001900D928150E1F769
:10082000CE01019653D3682F882309F048C08885EC
:1008300080932301DFDE1092310188EC90E09093E9
:1008400026018093250188E025C00091230180E0E6
:1008500060E040E020E010E0EE2445D08091AC0064
:1008600087FF2FC0A9E2B1E0E3E1F1E088E0019069
:100870000D928150E1F780E090E028D3682F882323
:10088000F1F41092310184E690E090932601809378
:10089000250189E0809324011AC081E08093A100A2
:1008A0008AE08093310141DD12C0892FE3DC809121
:1008B000DD0081608093DD0026DDD8D008C093E0A4
:1008C00002C094E060E080913101813071F7289698
:1008D0000FB6F894DEBF0FBECDBFCF91DF911F9151
:1008E0000F91EF900895EF920F931F93E82F7E2DB5
:1008F0006295660F660F607C642B2F70622B382F19
:10090000726045C03093A7003E17A1F488E090E0E4
:1009100020E003C02F5F880F991F8017910710F404
:100920002530C1F7922F9295907F972B562F40E05C
:1009300020E008C05091AA009091AB004091AD001A
:100940002091AE0091FF22C08091A9008E7F8093FC
:10095000A9008091AB008D7F8093AB008091A900AE
:1009600081608093A9005093AA009093AB004093BC
:10097000AD002093AE008091A90080628093A90011
:100980008091AC0087FD02C080E007C03F5F373038
:1009900008F4B8CFE093A70081E01F910F91EF908A
:1009A00008951092F80090E09093A7001092AE0086
:1009B0001092A6001092AB008091A9008E7F8093C8
:1009C000A9009F5F973081F70895482F3091A700C5
:1009D00020E02093A7008091AC0087FF10C0909189
:1009E000AA008091AA008073803111F080E001C0DC
:1009F00080E89F70892B841711F481E008952F5FA0
:100A0000273039F737703093A70080E00895409180
:100A1000A2005091A30024E68091AA008073803147
:100A200029F48091A60080FF05C01EC08091A60019
:100A300082FD1AC08091A60081FF02C081E0089566
:100A400080913101813011F482E008958091A200FB
:100A50009091A30084179507F9F2222311F483E003
:100A600008952150AC01D8CF80E0089570D077D0A0
:100A70008091D8008F778093D8008091D8008068CB
:100A80008093D8008091D8008F7D8093D80080918A
:100A9000D7008F778093D7008CE089BD8EE089BD29
:100AA00009B400FEFDCF81E080933101109227014F
:100AB00080E4809323018091D80080648093D800E3
:100AC0008091DD0081608093DD008091DD00846095
:100AD0008093DD008091D7008F7E8093D7006F9A3E
:100AE000779A8091DE0081608093DE008091DE0045
:100AF00084608093DE008091E0008E7F8093E00030
:100B00008091D80080618093D8000895E7EDF0E0EF
:100B100080818160808381E080932801A7CF17D0F6
:100B20001ED0E0EEF0E0808181608083A8EDB0E02F
:100B30008C918F778C9319BCE7EDF0E080818E7FEC
:100B400080838C918F7E8C93109228010895E8ED1C
:100B5000F0E080818C7F80831092A0000895109235
:100B6000DA0010929F0008951F920F920FB60F9215
:100B70000BB60F9211242F933F934F935F936F9374
:100B80007F938F939F93AF93BF93EF93FF93809146
:100B90009F0085FF0AC08091A00085FF06C080915C
:100BA0009F008F7D80939F0067D180919F0081FF80
:100BB00015C08091A00081FF11C080919F008D7FA2
:100BC00080939F0080919F008E7F80939F008091F3
:100BD000A0008D7F8093A00096DB48DF8091DF002E
:100BE00081FF15C08091DE0081FF11C08091DF0080
:100BF0008D7F8093DF0077988091DD008160809306
:100C0000DD0080E063DB7FDB81E080933101809158
:100C1000DF0080FF17C08091DE0080FF13C080914D
:100C2000DF008E7F8093DF008091DE008E7F8093D7
:100C3000DE0072DB8091A00082608093A00082E0E1
:100C4000809331018091DF0082FF0EC08091DE0031
:100C500082FF0AC08091DF008B7F8093DF0082E0FB
:100C600060E008DB50DB02DFFF91EF91BF91AF91B5
:100C70009F918F917F916F915F914F913F912F91B4
:100C80000F900BBE0F900FBE0F901F901895BF9244
:100C9000CF92DF92EF92FF920F931F93CF93DF9348
:100CA000182F092F7B016A018091AA008F7C806137
:100CB0008093AA00ACDEB82E8823A9F5812F902F4F
:100CC0009C01E901C114D10439F0F60180819181C0
:100CD000E81AF90AC80FD91F00E010E021C080917E
:100CE000A60085FD15C08091A6008E778093A60092
:100CF000C114D10449F0F60180819181800F911FC8
:100D00009183808384E010C082DE882349F00CC088
:100D10008091AF0089930894E108F1080F5F1F4F9D
:100D2000E114F104E1F68B2DDF91CF911F910F912A
:100D3000FF90EF90DF90CF90BF900895AF92BF9259
:100D4000CF92DF92EF92FF920F931F93CF93DF9397
:100D50007C01EB016A0124C0E881F981BE2EAF2E2F
:100D6000808190E098018017910708F49C01E20FC0
:100D7000F31FF983E883F70180819181821B930B34
:100D80009183808388819981F6010995823041F0B1
:100D9000813069F4B882A982F7011183008307C00A
:100DA000F7010081118101151105B1F682E0DF9193
:100DB000CF911F910F91FF90EF90DF90CF90BF9058
:100DC000AF900895CF92DF92EF92FF920F931F930F
:100DD000DF93CF93CDB7DEB729970FB6F894DEBF78
:100DE0000FBECDBF6B018A01790190E89093290174
:100DF00096E090932A0190E00197926090932C01E5
:100E000080932B0110922E0110922D0189E090E029
:100E10009093300180932F011092A700CE0101968C
:100E200055D0282F8823C1F48B819C81F6019183B2
:100E30008083E816F90610F425E00EC09093300187
:100E400080932F01C80142D0282F882329F4F8016C
:100E50008181823009F026E0822F29960FB6F8941E
:100E6000DEBF0FBECDBFCF91DF911F910F91FF90DD
:100E7000EF90DF90CF90089508951F93CF93DF9365
:100E8000182FC8EED3E009C081E065DB8823D1F4D8
:100E9000209711F484E016C02197112329F4809142
:100EA000A60083FFF1CF0DC0113029F48091A60078
:100EB00080FFEACF06C0123039F78091A60082FF8A
:100EC000E3CF80E0DF91CF911F910895FF920F93C0
:100ED0001F93CF93DF93182F092FF0909E00C0919E
:100EE0002F01D091300180919E00816080939E00FF
:100EF00081E031DB982F882309F0D7C08091AA00C8
:100F00008F7C8093AA001092F5008091A6008F7EBE
:100F10008093A6008091A9008F7B8093A900E9E2CD
:100F2000F1E081918093AF0081E0E133F807C9F7E8
:100F30008091A60087778093A60080E09EDF982F9F
:100F4000882309F0B2C08091A90080648093A90031
:100F500081E001DB982F882309F0A7C0212F302FD3
:100F6000C9018C018091290187FF52C08091AA009C
:100F70008F7C80618093AA000115110569F52EC050
:100F80008091A9008F7B8093A90081E076DF982F64
:100F9000882309F08AC08091F6009091F700892B90
:100FA00049F4C0E0D0E006C08091AF00F801819321
:100FB0008F0121978091F6009091F700892B11F015
:100FC000209791F78091A90080648093A900809177
:100FD000A6008E778093A600209791F68091AA00B4
:100FE0008F7C80628093AA008091A9008F7B809380
:100FF000A90082E042DF982F882309F056C0809133
:10100000A6008B778093A60082E037DF982F4DC033
:1010100001151105A9F18091AA008F7C806280934F
:10102000AA008091A9008F7B8093A9001DC082E057
:1010300024DF982F8823C9F580912301282F30E0E1
:1010400007C0F80181918F018093AF00219739F09B
:101050008091F6009091F7008217930790F38091AA
:10106000A6008B778093A600209709F782E005DF22
:10107000982F8823D1F48091A90080648093A900DF
:101080008091AA008F7C80618093AA008091A90042
:101090008F7B8093A90081E0F0DE982F882329F4CC
:1010A0008091A6008E778093A6008091A90080642D
:1010B0008093A900F0FC05C080919E008E7F8093F4
:1010C0009E0081E08093A8001092A800892FDF91F4
:1010D000CF911F910F91FF9008951F93182F109299
:1010E000290189E080932A0110932B0110922C0191
:1010F00010922E0110922D011092300110922F01AA
:101100001092A70080E090E0E1DE882349F410937C
:101110002701112311F49AE001C09BE09093310163
:101120001F910895FF920F931F9307EA10E0F801B3
:10113000F080F7E0FF22F8011082AADAF801F082CD
:101140001F910F91FF900895E42FF0E0EE0FFF1F25
:10115000EF56FC4FE80FF91FDC01A057BC4F90E0A1
:10116000208131818C91861789F440E050E0C901DB
:1011700087709070892B11F041E050E063E0369564
:1011800027956A95E1F7240F351F07C09F5F3796B3
:1011900017969A3029F720E030E0C9010895FC0144
:1011A0008181843029F48581833011F480E00895B1
:1011B00082E00895FC018181813211F480E008957C
:1011C000843011F082E0089581E00895FC0180915F
:1011D00031018B30A1F48781882389F0808180934D
:1011E000A7008091A9008F7B8093A9009091A60011
:1011F00091708091A90080648093A90001C090E063
:10120000892F0895CF93DF93EC018D85882311F406
:1012100090E81FC0888591E2909329019BE090930C
:101220002A0110922C0110922B0180932D01109213
:101230002E011092300110922F011092A70080E031
:1012400090E044DE982F882321F488E08A8B81E0A7
:101250008F87892FDF91CF910895CF93DF93DC01A2
:10126000809131018B3009F03FC017968C91179710
:101270008823D1F18C918093A7008091A9008F7B66
:101280008093A900EB011F968C911F978823B1F4DE
:101290001596ED91FC911697E852FC4F80818823BA
:1012A00011F460E003C06091AF00699315968D91D1
:1012B0009C91169740E048DFBC0104C06091F600A5
:1012C0007091F700CE0140E050E0E1DC982F8823D8
:1012D00061F48091A6008E778093A6008091A9008A
:1012E00080648093A90001C092E0892FDF91CF91A3
:1012F00008952F923F924F925F926F927F928F92BA
:101300009F92AF92BF92CF92DF92EF92FF920F9394
:101310001F93DF93CF9300D000D0CDB7DEB76C0121
:101320007A8369835C834B830796FC018CE0DF0141
:101330001D928A95E9F7EB81FC818181823011F061
:1013400081E0AAC066247724AA24BB24442455241F
:101350002224332453E0E52EF12CEC0EFD1E8E01E9
:101360000F5F1F4F4114510439F0C801B70143E624
:101370005AE0E4DC882321F16114710479F5A114A9
:10138000B10461F5C801B7014FEC58E0D7DC882300
:1013900009F081C04B805C80F6019481992329F08B
:1013A000D20117968C91891769F7C801B7014AEDE8
:1013B00058E0C4DC882309F06EC02B803C80D2CF7B
:1013C000EB81FC81828187FD02C05F0101C03F018A
:1013D0006114710439F2A114B10421F29924939497
:1013E00088248394F6018081981679F4D3011496A9
:1013F0000D911C91159712962C911297818116963A
:10140000FC901287018740E116C0F6018281981690
:1014100019F5A114B10401F1D50114960D911C9197
:10142000159712962C91129783811696FC9014872B
:101430000387868640E2882311F490E001C094E09F
:10144000892D63E0E92E4FDA882311F483E024C06C
:10145000FF2011F0F092AD009394B7E09B1611F6C7
:10146000F2018281D60118968C931897F101878139
:10147000908551969C938E93509790E0D20116964A
:101480008C91811191E0F601958788E0828B81E053
:10149000878380E001C082E00F900F900F900F9043
:1014A000CF91DF911F910F91FF90EF90DF90CF9040
:1014B000BF90AF909F908F907F906F905F904F9074
:1014C0003F902F900895FC018181853029F482811D
:1014D0007CDA882329F40895843011F481E008959A
:1014E00082E00895982F8091C80085FFFCCF9093EB
:1014F000CE0080E090E008958091C80087FD03C091
:101500002EEF3FEF0BC08091C80087FD03C02FEF87
:101510003FEF04C08091CE00282F30E0C90108952C
:10152000DF93CF93CDB7DEB7FE0135966191719110
:10153000A0914201B091430113968C91139788605A
:1015400013968C938091420190914301AF013FD05B
:10155000E0914201F09143012381277F2383CF91C2
:10156000DF9108950F931F93CF93DF93EC01E091E8
:101570004201F0914301838181FF21C000E010E02E
:101580000EC0E0914201F091430120853185BF01F9
:10159000F9010995892B11F00FEF1FEF2196FE013C
:1015A0008491882371F7E0914201F09143012085F5
:1015B00031858AE0BF01F9010995892B11F00FEF00
:1015C0001FEFC801DF91CF911F910F9108952F92C6
:1015D0003F924F925F926F927F928F929F92AF92C3
:1015E000BF92CF92DF92EF92FF920F931F93DF9300
:1015F000CF93CDB7DEB72B970FB6F894DEBF0FBEF3
:10160000CDBF3C012B015A01FC0117821682838158
:1016100081FD03C06FEF7FEFB9C19AE0892E1E01F3
:101620000894211C311CF3012381F20123FD8591D3
:1016300023FF81912F01882309F4A5C1853239F454
:1016400023FD859123FF81912F01853221F490E0C4
:10165000B301CCD1E8CF982FFF24EE249924FFE1E9
:10166000FF15D0F09B3269F09C3228F4903259F08B
:10167000933291F40EC09D3249F0903369F441E009
:1016800024C052E0F52A84E0F82A28C098E0F92A1C
:1016900025C0E0E1FE2A22C0F7FC29C0892F805333
:1016A0008A3070F4F6FE05C0989C902C1124980E98
:1016B00015C0E89CE02C1124E80EF0E2FF2A0EC0D1
:1016C0009E3229F4F6FC5FC140E4F42A07C09C3640
:1016D00019F450E8F52A02C0983649F4F20123FDC6
:1016E000959123FF91912F01992309F0B8CF892F6C
:1016F0008554833018F08052833038F444E050E051
:10170000A40EB51E5FE359830FC0933631F09337B3
:1017100079F0933509F052C01FC0F50180818983AB
:1017200042E050E0A40EB51E610101E010E011C0DE
:10173000F501C080D180F6FC03C06FEF7FEF02C0DF
:10174000692D70E042E050E0A40EB51EC60143D101
:101750008C015FE7F52213C0F501C080D180F6FC53
:1017600003C06FEF7FEF02C0692D70E042E050E0F0
:10177000A40EB51EC60124D18C0150E8F52AF3FE53
:1017800006C018C080E290E0B30130D1EA948E2DFB
:1017900090E008171907B0F30DC0F601F7FC85912A
:1017A000F7FE81916F0190E0B30120D1E110EA943E
:1017B000015010400115110581F7E2C0943611F077
:1017C000993661F5F7FE08C0F5012081318142812B
:1017D000538184E090E00AC0F501808191819C01F1
:1017E000442737FD4095542F82E090E0A80EB91EA3
:1017F0009FE6F92257FF09C05095409530952195F5
:101800003F4F4F4F5F4FE0E8FE2ACA01B901A101E7
:101810002AE030E017D1D82ED2183FC0953729F4EE
:101820001F2D1F7E2AE030E01DC01F2D197F9F361F
:1018300061F0903720F4983509F0A5C00FC09037BB
:1018400039F0983709F09FC004C028E030E00AC0A2
:10185000106114FD146020E130E004C014FD166036
:1018600020E132E017FF08C0F501608171818281BB
:10187000938144E050E008C0F50180819181BC0172
:1018800080E090E042E050E0A40EB51EA101DAD065
:10189000D82ED2188FE7F82EF122F6FE0BC05EEF9D
:1018A000F522D91438F4F4FE07C0F2FC05C08FEE1F
:1018B000F82202C01D2D01C0192DF4FE0DC0FE013D
:1018C000ED0DF11D8081803319F499EEF92208C0E5
:1018D0001F5FF2FE05C003C08F2D867809F01F5FE1
:1018E0000F2DF3FC13C0F0FE0EC01E1510F09D2C42
:1018F0000AC09D2C9E0C911A1E2D05C080E290E01E
:10190000B30174D01F5F1E15C8F304C01E1510F478
:10191000E11A01C0EE2404FF0EC080E390E0B301A1
:1019200065D002FF1BC001FD03C088E790E00EC038
:1019300088E590E00BC0802F867881F001FF02C01F
:101940008BE201C080E2F7FC8DE290E0B3014ED063
:1019500005C080E390E0B30149D09A94D914C8F34C
:10196000DA94F101ED0DF11D808190E0B3013ED0DC
:10197000DD20B1F705C080E290E0B30137D0EA94F2
:10198000EE20C9F750CEF30166817781CB012B960B
:101990000FB6F894DEBF0FBECDBFCF91DF911F9180
:1019A0000F91FF90EF90DF90CF90BF90AF909F90FE
:1019B0008F907F906F905F904F903F902F90089501
:1019C000FC010590615070400110D8F7809590950A
:1019D0008E0F9F1F0895FC0161507040019001100F
:1019E000D8F7809590958E0F9F1F08950F931F93A2
:1019F000CF93DF938C01EB018B8181FF1BC082FFB2
:101A00000DC02E813F818C819D812817390764F498
:101A1000E881F9810193F983E88306C0E885F985B7
:101A2000802F0995892B31F48E819F8101969F83A8
:101A30008E8302C00FEF1FEFC801DF91CF911F917E
:101A40000F910895FA01AA27283051F1203181F130
:101A5000E8946F936E7F6E5F7F4F8F4F9F4FAF4FB6
:101A6000B1E03ED0B4E03CD0670F781F891F9A1FC9
:101A7000A11D680F791F8A1F911DA11D6A0F711D7D
:101A8000811D911DA11D20D009F468943F912AE089
:101A9000269F11243019305D3193DEF6CF01089571
:101AA000462F4770405D4193B3E00FD0C9F7F6CFA2
:101AB000462F4F70405D4A3318F0495D31FD40526A
:101AC000419302D0A9F7EACFB4E0A6959795879500
:101AD00077956795BA95C9F70097610571050895DF
:101AE0009B01AC010A2E069457954795379527958B
:101AF000BA95C9F7620F731F841F951FA01D089523
:041B0000F894FFCF87
:101B040001000200020000000000000000000000CC
:101B14000000000005010000000000800600010034
:041B24000008004075
:00000001FF
