:100000002DC1000049C1000047C1000045C10000EA
:1000100043C1000041C100003FC100003DC10000DC
:100020003BC1000039C100009AC5000035C1000085
:1000300033C1000031C100002FC100002DC10000FC
:100040002BC1000029C1000027C1000025C100000C
:1000500023C1000022C100001FC100001DC100001B
:100060001BC1000019C1000017C1000015C100002C
:1000700013C1000011C100000FC100000DC100003C
:100080000BC1000009C1000007C1000005C100004C
:1000900003C1000001C100001B5B33316D44657674
:1000A00020456E756D204572726F720D0A202D2DE0
:1000B000204572726F7220436F64652025640D0ABB
:1000C000202D2D20537562204572726F7220436F70
:1000D00064652025640D0A202D2D20496E2053745F
:1000E0006174652025640D0A1B5B33376D001B5B53
:1000F00033316D486F7374204D6F646520457272A3
:100100006F720D0A202D2D204572726F7220436F81
:1001100064652025640D0A1B5B33376D00417564EF
:10012000696F2044657669636520456E756D6572FB
:10013000617465642E0D0A004572726F72205365FA
:100140007474696E6720417564696F2053616D70C6
:100150006C696E67204672657175656E63792E0DE8
:100160000A004572726F7220456E61626C696E673B
:1001700020417564696F2053747265616D2E0D0A9C
:10018000004572726F722053657474696E67204403
:10019000657669636520436F6E6669677572617421
:1001A000696F6E2E0D0A0041747461636865642086
:1001B000446576696365204E6F7420612056616CDA
:1001C000696420417564696F20496E7075742044BC
:1001D00065766963652E0D0A004572726F72205252
:1001E000657472696576696E6720436F6E666967CC
:1001F00075726174696F6E2044657363726970749F
:100200006F722E0D0A000D0A4465766963652055EC
:100210006E61747461636865642E0D0A00446576CE
:100220006963652041747461636865642E0D0A001A
:100230001B5B33366D417564696F20496E70757450
:1002400020486F73742044656D6F2072756E6E69FF
:100250006E672E0D0A1B5B33376D000011241FBE25
:10026000CFEFD0E2DEBFCDBF11E0A0E0B1E0E8E724
:10027000F9E100E00BBF02C007900D92AE31B1076B
:10028000D9F711E0AEE1B1E001C01D92A034B10791
:10029000E1F7A2D10C94BA0CB3CE1F920F920FB615
:1002A0000F9211242F933F934F935F938F939F93BC
:1002B0005091A70080912B018B3009F056C080919E
:1002C0000201882309F451C0809100018093A700A6
:1002D0008091A9008F7B8093A9009091A6008091C6
:1002E000A90080648093A90090FF3FC08091AF0077
:1002F0009091AF009C018091F6009091F700892BBE
:1003000079F48091A9008F7B8093A9008091A60049
:100310008E778093A6008091A90080648093A900C5
:10032000832F992787FD9A95482F992787FD9095C8
:1003300020E830E0822793279093990080939800DB
:10034000413114F090EF0DC0493014F090EB09C02A
:10035000453014F090E305C0433014F090E101C043
:1003600090E08BB18F70982B9BB957705093A7007A
:100370009F918F915F914F913F912F910F900FBE61
:100380000F901F90189590912B012DB73EB72850D4
:1003900030400FB6F8943EBF0FBE2DBFEDB7FEB78D
:1003A000319628E930E0ADB7BEB712963C932E9354
:1003B0001197828313826483158296831782EAD70A
:1003C0008BB18F7080698BB92DB73EB7285F3F4FD7
:1003D0000FB6F8943EBF0FBE2DBF08951F93182F80
:1003E00099D300D000D0EDB7FEB731968EEE90E0F5
:1003F000ADB7BEB712969C938E931197128313825A
:10040000C9D78BB18F7080698BB90F900F900F9007
:100410000F90FFCF86E092E0DFD78BB18F708061C5
:100420008BB908958DE192E0D7D78BB18F70806A38
:100430008BB90895EF92FF920F931F93DF93CF93A1
:10044000CDB7DEB7C550D2400FB6F894DEBF0FBEB1
:10045000CDBF8BB18F70806A8BB98E010A5F1F4F41
:1004600081E0BE016F5F7F4FA80120E032E04ED4F3
:10047000882319F089ED91E011C069817A8180E0CB
:1004800091E0A80188D6882319F087EA91E006C098
:1004900081E0DED5882339F081E891E09DD78BB1EA
:1004A0008F70806940C080E091E061E06AD6882367
:1004B00019F082E691E01BC0DE011396EAE0F1E05C
:1004C00083E001900D928150E1F780E091E060912E
:1004D000000141E021E003E010E033E0E32EF12CE5
:1004E000EC0EFD1E18D6882351F088E391E074D7F6
:1004F0008BB18F7080698BB980E0AAD515C092E06E
:1005000090936E0083E187BD94BD95BD3E9A81ECCA
:100510008093900089E0809391008DE191E05CD719
:100520008BB18F7080668BB9CB5FDD4F0FB6F894BF
:10053000DEBF0FBECDBFCF91DF911F910F91FF9016
:10054000EF90089584B7877F84BF38E10FB6F894A1
:1005500030936000109260000FBE80E090E020E8D1
:100560000FB6F89420936100809361000FBE83E37F
:1005700090E09093CD008093CC0086E08093CA00F9
:100580001092C8003093C900539A5A9A8AB1806F6A
:100590008AB98BB18F708BB9B4D2ECE2F1E0F093F1
:1005A0003B01E0933A01F0933D01E0933C018EE082
:1005B000DF011D928A95E9F783E080932F018CEA91
:1005C00099E0909335018093340186EB99E0909304
:1005D0003701809336010895B5DF80E392E0FCD6C1
:1005E0008BB18F7080618BB9789457D5FECF982FDF
:1005F00020919E003091A0008091A0008F7D80937B
:10060000A00080919F008F7D80939F0080919E002D
:10061000816080939E0028C080919F0085FF06C066
:1006200080919F008F7D80939F00915080912B013E
:10063000813011F491E01AC08091A60084FF09C0B6
:100640001092F5008091A6008F7E8093A60092E024
:100650000DC08091A60081FF07C08091A6008D7F0C
:100660008093A60093E002C09923B1F620FD05C057
:1006700080919E008E7F80939E0035FF05C0809103
:10068000A00080628093A000892F089560919E0051
:100690008091A0008D7F8093A00080919E00826059
:1006A00080939E0080919E0081FDFCCF80919E00F2
:1006B000816080939E00109221013091A000809172
:1006C000A0008F7D8093A00080919F008F7D8093FC
:1006D0009F002AE040ED57E080919F0085FF0BC00E
:1006E00080919F008F7D80939F0080919F008D7FE0
:1006F00080939F0005C0CA010197F1F7215061F76F
:1007000035FF05C08091A00080628093A00060FD4D
:1007100005C080919E008E7F80939E008091A000F6
:1007200082608093A0000895EF920F931F93DF9350
:10073000CF93CDB7DEB728970FB6F894DEBF0FBEC4
:10074000CDBF80912B01853009F494C0863068F4C8
:100750008230B9F1833018F48823A1F004C18330CA
:10076000D1F1843009F0FFC05DC0873009F49BC02F
:10077000873008F48AC0883009F4B3C0893009F0A2
:10078000F2C0D7C000911F01109120010115110581
:1007900009F4E9C081E02BDF682F882331F08091D4
:1007A0001E0180932B0191E0DAC0C801019790935C
:1007B000200180931F01892B09F0D5C080911E0173
:1007C00007C088EE93E09093200180931F0183E09F
:1007D00080932B01C8C080911F0190912001019747
:1007E0009093200180931F01019629F080ED97E0FE
:1007F0000197F1F7B8C077988091D8008061809315
:10080000D8008091DD008B7F8093DD008091D70040
:1008100080618093D7008091DD0082608093DD004D
:1008200084E0D6CF80919F0080FF9DC080919F0083
:100830008E7F80939F0080919F008D7F80939F008B
:100840008091DF008D7F8093DF008091DE008260E9
:100850008093DE0080919E00816080939E00EDD0A9
:1008600010922B0184E690E09093200180931F0169
:1008700085E05CC00BDF10922B0188EC90E0909338
:10088000200180931F0186E051C080E060E040E0DD
:1008900020E000E410E0EE2472D08091AC0087FFED
:1008A0005CC087E095CFA3E2B1E0E5E1F1E088E04C
:1008B00001900D928150E1F7CE010196ABD2682FE5
:1008C000882309F048C0888580931D01DFDE1092DF
:1008D0002B0188EC90E09093200180931F0188E029
:1008E00025C000911D0180E060E040E020E010E0C4
:1008F000EE2445D08091AC0087FF2FC0A3E2B1E089
:10090000EDE0F1E088E001900D928150E1F780E0A8
:1009100090E080D2682F8823F1F410922B0184E6B6
:1009200090E09093200180931F0189E080931E0145
:100930001AC081E08093A1008AE080932B017ADDC8
:1009400012C0892F20DD8091DD0081608093DD0061
:1009500061DD87D008C093E002C094E060E0809140
:100960002B01813071F728960FB6F894DEBF0FBEC9
:10097000CDBFCF91DF911F910F91EF900895EF922E
:100980000F931F93E82F7E2D6295660F660F607C94
:10099000642B2F70622B382F726045C03093A700F4
:1009A0003E17A1F488E090E020E003C02F5F880F9D
:1009B000991F8017910710F42530C1F7922F929557
:1009C000907F972B562F40E020E008C05091AA005E
:1009D0009091AB004091AD002091AE0091FF22C0FC
:1009E0008091A9008E7F8093A9008091AB008D7FBC
:1009F0008093AB008091A90081608093A9005093FF
:100A0000AA009093AB004093AD002093AE0080917C
:100A1000A90080628093A9008091AC0087FD02C08C
:100A200080E007C03F5F373008F4B8CFE093A700FD
:100A300081E01F910F91EF9008951092F80090E0DF
:100A40009093A7001092AE001092A6001092AB00F7
:100A50008091A9008E7F8093A9009F5F973081F7D6
:100A6000089570D077D08091D8008F778093D80088
:100A70008091D80080688093D8008091D8008F7DC5
:100A80008093D8008091D7008F778093D7008CE037
:100A900089BD8EE089BD09B400FEFDCF81E0809361
:100AA0002B011092210180E480931D018091D800D8
:100AB00080648093D8008091DD0081608093DD00A8
:100AC0008091DD0084608093DD008091D7008F7E6F
:100AD0008093D7006F9A779A8091DE00816080932F
:100AE000DE008091DE0084608093DE008091E00073
:100AF0008E7F8093E0008091D80080618093D80041
:100B00000895E7EDF0E080818160808381E080934B
:100B10002201A7CF17D01ED0E0EEF0E080818160E7
:100B20008083A8EDB0E08C918F778C9319BCE7EDB2
:100B3000F0E080818E7F80838C918F7E8C931092E9
:100B400022010895E8EDF0E080818C7F808310928F
:100B5000A00008951092DA0010929F0008951F924D
:100B60000F920FB60F920BB60F9211242F933F9353
:100B70004F935F936F937F938F939F93AF93BF93A5
:100B8000EF93FF9380919F0085FF0AC08091A000A2
:100B900085FF06C080919F008F7D80939F0010D1BC
:100BA00080919F0081FF15C08091A00081FF11C03E
:100BB00080919F008D7F80939F0080919F008E7F0A
:100BC00080939F008091A0008D7F8093A00022DC05
:100BD00048DF8091DF0081FF15C08091DE0081FF3A
:100BE00011C08091DF008D7F8093DF007798809126
:100BF000DD0081608093DD0080E0F0DB0BDC81E0D4
:100C000080932B018091DF0080FF17C08091DE0070
:100C100080FF13C08091DF008E7F8093DF00809182
:100C2000DE008E7F8093DE00FDDB8091A00082607D
:100C30008093A00082E080932B018091DF0082FFEF
:100C40000EC08091DE0082FF0AC08091DF008B7FA2
:100C50008093DF0082E060E096DBDCDB02DFFF9167
:100C6000EF91BF91AF919F918F917F916F915F9124
:100C70004F913F912F910F900BBE0F900FBE0F9091
:100C80001F901895AF92BF92CF92DF92EF92FF9292
:100C90000F931F93CF93DF937C01EB016A0124C074
:100CA000E881F981BE2EAF2E808190E098018017F7
:100CB000910708F49C01E20FF31FF983E883F70121
:100CC00080819181821B930B91838083888199819C
:100CD000F6010995823041F0813069F4B882A98229
:100CE000F7011183008307C0F7010081118101150D
:100CF0001105B1F682E0DF91CF911F910F91FF9026
:100D0000EF90DF90CF90BF90AF900895CF92DF9299
:100D1000EF92FF920F931F93DF93CF93CDB7DEB780
:100D200029970FB6F894DEBF0FBECDBF6B018A01C5
:100D3000790190E89093230196E09093240190E04C
:100D400001979260909326018093250110922801CB
:100D50001092270189E090E090932A018093290165
:100D60001092A700CE01019655D0282F8823C1F4F8
:100D70008B819C81F60191838083E816F90610F43B
:100D800025E00EC090932A0180932901C80142D02A
:100D9000282F882329F4F8018181823009F026E088
:100DA000822F29960FB6F894DEBF0FBECDBFCF912C
:100DB000DF911F910F91FF90EF90DF90CF900895FA
:100DC00008951F93CF93DF93182FC8EED3E009C087
:100DD00081E00DDC8823D1F4209711F484E016C063
:100DE0002197112329F48091A60083FFF1CF0DC034
:100DF000113029F48091A60080FFEACF06C012309E
:100E000039F78091A60082FFE3CF80E0DF91CF9198
:100E10001F910895FF920F931F93CF93DF93182F85
:100E2000092FF0909E00C0912901D0912A01809154
:100E30009E00816080939E0081E0D9DB982F8823FB
:100E400009F0D7C08091AA008F7C8093AA001092ED
:100E5000F5008091A6008F7E8093A6008091A90066
:100E60008F7B8093A900E3E2F1E081918093AF0052
:100E700081E0EB32F807C9F78091A600877780936D
:100E8000A60080E09EDF982F882309F0B2C08091F1
:100E9000A90080648093A90081E0A9DB982F8823B2
:100EA00009F0A7C0212F302FC9018C0180912301A7
:100EB00087FF52C08091AA008F7C80618093AA0036
:100EC0000115110569F52EC08091A9008F7B8093D3
:100ED000A90081E076DF982F882309F08AC08091ED
:100EE000F6009091F700892B49F4C0E0D0E006C0ED
:100EF0008091AF00F80181938F0121978091F600D6
:100F00009091F700892B11F0209791F78091A9001B
:100F100080648093A9008091A6008E778093A600BC
:100F2000209791F68091AA008F7C80628093AA001E
:100F30008091A9008F7B8093A90082E042DF982FE7
:100F4000882309F056C08091A6008B778093A60075
:100F500082E037DF982F4DC001151105A9F180916E
:100F6000AA008F7C80628093AA008091A9008F7B69
:100F70008093A9001DC082E024DF982F8823C9F543
:100F800080911D01282F30E007C0F80181918F0169
:100F90008093AF00219739F08091F6009091F7008F
:100FA0008217930790F38091A6008B778093A60019
:100FB000209709F782E005DF982F8823D1F48091EC
:100FC000A90080648093A9008091AA008F7C806131
:100FD0008093AA008091A9008F7B8093A90081E073
:100FE000F0DE982F882329F48091A6008E778093D5
:100FF000A6008091A90080648093A900F0FC05C040
:1010000080919E008E7F80939E0081E08093A80057
:101010001092A800892FDF91CF911F910F91FF901F
:101020000895E3E2F1E091E0909323019BE0909337
:101030002401609325011382809327011582109269
:101040002A01109229011092A70080E090E0E2CEE0
:101050001F93182F1092230189E08093240110938D
:10106000250110922601109228011092270110925A
:101070002A01109229011092A70080E090E0CADEB8
:10108000882349F410932101112311F49AE001C03F
:101090009BE090932B011F910895FF920F931F9354
:1010A00007EA10E0F801F080F7E0FF22F801108273
:1010B0003BDBF801F0821F910F91FF900895FC0136
:1010C0008181843041F48581813029F486818130A9
:1010D00011F48781811182E00895FC0181818430BF
:1010E00041F48581813029F48681823011F4878131
:1010F000811182E00895FC018181853031F4838182
:101100008370813031F480E00895843011F481E0FF
:10111000089582E00895EF92FF920F931F93FC01D0
:101120008281882311F481E027C047FD02C032E2AA
:1011300001C032EA6093A7009091AA008091AA00B2
:101140008073803111F080E001C080E8309323018A
:101150004093240110922501209326019F70892B32
:10116000809327011092280110932A0100932901EE
:101170001092A700C7014EDE1F910F91FF90EF90D4
:101180000895FC018281882311F481E0089584810F
:101190006111658146CF2F923F924F925F926F927D
:1011A0007F928F929F92AF92BF92CF92DF92EF92F7
:1011B000FF920F931F93DF93CF9300D000D00F9235
:1011C000CDB7DEB76C017A8369835C834B8302966B
:1011D000FC0188E0DF011D928A95E9F7EB81FC8133
:1011E0008181823011F081E096C088249924AA245C
:1011F000BB24442455246624772443E0242E312C38
:101200002C0E3D1E7E010894E11CF11C31C04114DE
:10121000510449F0C701B1014BE758E033DD8823A1
:1012200009F091C01DC0C701B1014FE558E02ADDAA
:10123000882309F06FC01B810C81C701B1014DE605
:1012400058E020DD882309F065C0812F902F9C0194
:1012500029016B807C8088249924AA24BB2408C09F
:10126000EB81FC81828187FD02C05F0101C04F01DB
:10127000F6018081882319F08114910441F2D6018E
:1012800011968C91882311F491E005C0A114B1044A
:1012900009F4BDCFF9CFF6018081981759F4D40134
:1012A00014960D911C91159712962C911783068315
:1012B00040E10EC0F60181819817A9F4D50114967A
:1012C0000D911C91159712962C911187008740E281
:1012D000892F61E034E0E32E9D8351DB9D818823DB
:1012E00011F483E018C09F5F9730A9F6F201828164
:1012F000D60113968C931397F301828114968C93E5
:101300001497838115968C93159781E012968C9390
:1013100080E001C082E00F900F900F900F900F902F
:10132000CF91DF911F910F91FF90EF90DF90CF90C1
:10133000BF90AF909F908F907F906F905F904F90F5
:101340003F902F900895C701B1014DE658E09ADC17
:10135000882309F068CF7DCF982F8091C80085FF42
:10136000FCCF9093CE0080E090E008958091C8007B
:1013700087FD03C02EEF3FEF0BC08091C80087FDB3
:1013800003C02FEF3FEF04C08091CE00282F30E044
:10139000C9010895DF93CF93CDB7DEB7FE0135962F
:1013A00061917191A0913C01B0913D0113968C9196
:1013B0001397886013968C9380913C0190913D0126
:1013C000AF013FD0E0913C01F0913D012381277FA7
:1013D0002383CF91DF9108950F931F93CF93DF93D2
:1013E000EC01E0913C01F0913D01838181FF21C03E
:1013F00000E010E00EC0E0913C01F0913D0120853D
:101400003185BF01F9010995892B11F00FEF1FEF0D
:101410002196FE018491882371F7E0913C01F091BF
:101420003D01208531858AE0BF01F9010995892BAD
:1014300011F00FEF1FEFC801DF91CF911F910F91B6
:1014400008952F923F924F925F926F927F928F9268
:101450009F92AF92BF92CF92DF92EF92FF920F9343
:101460001F93DF93CF93CDB7DEB72B970FB6F894CA
:10147000DEBF0FBECDBF3C012B015A01FC0117821C
:101480001682838181FD03C06FEF7FEFB9C19AE0BF
:10149000892E1E010894211C311CF3012381F201C5
:1014A00023FD859123FF81912F01882309F4A5C194
:1014B000853239F423FD859123FF81912F018532F7
:1014C00021F490E0B301CCD1E8CF982FFF24EE2493
:1014D0009924FFE1FF15D0F09B3269F09C3228F48B
:1014E000903259F0933291F40EC09D3249F090330E
:1014F00069F441E024C052E0F52A84E0F82A28C0CB
:1015000098E0F92A25C0E0E1FE2A22C0F7FC29C0B4
:10151000892F80538A3070F4F6FE05C0989C902C79
:101520001124980E15C0E89CE02C1124E80EF0E27E
:10153000FF2A0EC09E3229F4F6FC5FC140E4F42A73
:1015400007C09C3619F450E8F52A02C0983649F4D1
:10155000F20123FD959123FF91912F01992309F029
:10156000B8CF892F8554833018F08052833038F4F7
:1015700044E050E0A40EB51E5FE359830FC09336DC
:1015800031F0933779F0933509F052C01FC0F5015F
:101590008081898342E050E0A40EB51E610101E024
:1015A00010E011C0F501C080D180F6FC03C06FEFE0
:1015B0007FEF02C0692D70E042E050E0A40EB51E3E
:1015C000C60143D18C015FE7F52213C0F501C0804D
:1015D000D180F6FC03C06FEF7FEF02C0692D70E091
:1015E00042E050E0A40EB51EC60124D18C0150E8A3
:1015F000F52AF3FE06C018C080E290E0B30130D1B6
:10160000EA948E2D90E008171907B0F30DC0F6018B
:10161000F7FC8591F7FE81916F0190E0B30120D135
:10162000E110EA94015010400115110581F7E2C064
:10163000943611F0993661F5F7FE08C0F501208166
:1016400031814281538184E090E00AC0F5018081BC
:1016500091819C01442737FD4095542F82E090E012
:10166000A80EB91E9FE6F92257FF09C05095409574
:10167000309521953F4F4F4F5F4FE0E8FE2ACA015A
:10168000B901A1012AE030E017D1D82ED2183FC00D
:10169000953729F41F2D1F7E2AE030E01DC01F2D35
:1016A000197F9F3661F0903720F4983509F0A5C076
:1016B0000FC0903739F0983709F09FC004C028E078
:1016C00030E00AC0106114FD146020E130E004C075
:1016D00014FD166020E132E017FF08C0F5016081BB
:1016E00071818281938144E050E008C0F5018081DE
:1016F0009181BC0180E090E042E050E0A40EB51E74
:10170000A101DAD0D82ED2188FE7F82EF122F6FEFA
:101710000BC05EEFF522D91438F4F4FE07C0F2FCDA
:1017200005C08FEEF82202C01D2D01C0192DF4FE58
:101730000DC0FE01ED0DF11D8081803319F499EE8D
:10174000F92208C01F5FF2FE05C003C08F2D867806
:1017500009F01F5F0F2DF3FC13C0F0FE0EC01E1525
:1017600010F09D2C0AC09D2C9E0C911A1E2D05C0B8
:1017700080E290E0B30174D01F5F1E15C8F304C06F
:101780001E1510F4E11A01C0EE2404FF0EC080E320
:1017900090E0B30165D002FF1BC001FD03C088E7E4
:1017A00090E00EC088E590E00BC0802F867881F035
:1017B00001FF02C08BE201C080E2F7FC8DE290E005
:1017C000B3014ED005C080E390E0B30149D09A94B4
:1017D000D914C8F3DA94F101ED0DF11D808190E088
:1017E000B3013ED0DD20B1F705C080E290E0B30147
:1017F00037D0EA94EE20C9F750CEF30166817781A5
:10180000CB012B960FB6F894DEBF0FBECDBFCF91A4
:10181000DF911F910F91FF90EF90DF90CF90BF90DD
:10182000AF909F908F907F906F905F904F903F9080
:101830002F900895FC010590615070400110D8F779
:10184000809590958E0F9F1F0895FC016150704008
:1018500001900110D8F7809590958E0F9F1F0895E5
:101860000F931F93CF93DF938C01EB018B8181FF4B
:101870001BC082FF0DC02E813F818C819D81281766
:10188000390764F4E881F9810193F983E88306C09C
:10189000E885F985802F0995892B31F48E819F8108
:1018A00001969F838E8302C00FEF1FEFC801DF9167
:1018B000CF911F910F910895FA01AA27283051F175
:1018C000203181F1E8946F936E7F6E5F7F4F8F4F71
:1018D0009F4FAF4FB1E03ED0B4E03CD0670F781FD0
:1018E000891F9A1FA11D680F791F8A1F911DA11DB5
:1018F0006A0F711D811D911DA11D20D009F46894EE
:101900003F912AE0269F11243019305D3193DEF695
:10191000CF010895462F4770405D4193B3E00FD04B
:10192000C9F7F6CF462F4F70405D4A3318F0495D36
:1019300031FD4052419302D0A9F7EACFB4E0A69519
:101940009795879577956795BA95C9F7009761053B
:10195000710508959B01AC010A2E06945795479591
:1019600037952795BA95C9F7620F731F841F951F86
:08197000A01D0895F894FFCFBB
:101978000100000000000000000080BB000005011D
:0E198800000000000080060001000008004082
:00000001FF
