:10000000A2C00000BDC00000BBC00000B9C000001D
:10001000B7C00000B5C00000B3C00000B1C0000010
:10002000AFC00000ADC0000067C20000A9C0000062
:10003000A7C00000A5C00000A3C00000A1C0000030
:100040009FC000009DC000009BC0000099C0000040
:1000500097C0000095C0000093C0000091C0000050
:100060008FC000008DC000008BC0000089C0000060
:1000700087C0000085C0000083C0000081C0000070
:100080007FC000007DC000007BC0000079C0000080
:1000900077C0000075C0000005010902A101090137
:1000A000A100050919012903150025019503750112
:1000B000810295017505810105010930093116FF9D
:1000C000FF26010036FFFF460100950275088106F4
:1000D000C0C01201100100000008EB034120010024
:1000E0000102000109022200010100C032090400DE
:1000F000000103010200092111010001223A000759
:100100000581030800010403090418034400650085
:1001100061006E002000430061006D006500720008
:100120006100000020034C00550046004100200003
:100130004D006F00750073006500200044006500ED
:100140006D006F00000011241FBECFEFD0E2DEBFB4
:10015000CDBF11E0A0E0B1E0E0ECF0E100E00BBFCA
:1001600002C007900D92AE30B107D9F711E0AEE0B2
:10017000B1E001C01D92AE31B107E1F78BD09EC74F
:100180003FCF8BB18F70806A8BB908958BB18F7020
:1001900080618BB9089580910B0190910C010097BB
:1001A00029F0019790930C0180930B0108950F9310
:1001B0001F93D801F90123B18CB1809590E0807331
:1001C0009070959587952095207E282B3CB127FF30
:1001D00002C08FEF03C024FF02C081E08283922F10
:1001E00026FF02C08FEF03C023FF02C081E081839E
:1001F00095FF03C080818160808332FD03C08081D0
:100200008260808383E090E08D939C9381E01F91D6
:100210000F910895089580E091E0F9C580E091E0A4
:10022000BED59091E20094609093E20080FD02C000
:1002300090E901C090E68BB18F70982B9BB908951F
:1002400084B7877F84BF88E10FB6F89480936000FD
:10025000109260000FBE80E090E020E80FB6F894A6
:1002600020936100809361000FBE84B18F7184B9C7
:100270008DB18F7C8DB985B1806E85B98EB180636B
:100280008EB98AB1806F8AB98BB18F708BB96A9839
:10029000729A1CC1D5DF8BB18F7080618BB9789455
:1002A00080E091E0C2D4AED4FBCFDA019330B1F05C
:1002B000943028F4913041F0923079F50AC09132AF
:1002C00011F1923251F524C0E2EDF0E022E130E08C
:1002D00028C0E4EEF0E022E230E023C0813049F0B3
:1002E000813018F08230C9F40AC0E6E0F1E0849170
:1002F00003C0EAE0F1E08491282F30E012C0E4E28C
:10030000F1E08491F9CFE6EFF0E029E030E009C0B8
:10031000E8E9F0E02AE330E004C0E0E0F0E020E0CB
:1003200030E0ED93FC93C9010895382F282F2CC09D
:100330002093E900231721F4762F942F50E006C074
:100340007091EC009091ED005091F00091FF1BC076
:100350008091EB008E7F8093EB008091ED008D7F8C
:100360008093ED008091EB0081608093EB007093AF
:10037000EC009093ED005093F0008091EE0087FD2B
:1003800002C080E008952F5F273090F23093E9009B
:1003900081E008958091160188239CF404C0809127
:1003A00015018823B9F08091E80082FFF8CF809191
:1003B000E8008B778093E8000895809115018823E9
:1003C00049F08091E80080FFF8CF8091E8008E77B7
:1003D0008093E80008954091E4005091E50024E600
:1003E0008091EC0080FF24C08091E80080FD1EC059
:1003F00080911501882311F482E00895853011F46D
:1004000083E008958091EB0085FF02C081E00895AC
:100410008091E4009091E5008417950709F3222369
:1004200011F484E008952150AC01DACF80E0089502
:100430008091E80082FFDCCFF9CFEF92FF920F931B
:100440001F934DD054D008ED10E0F80180818F77D4
:10045000808380818068808380818F7D8083E7EDC9
:10046000F0E080818068808319BC109215011092A1
:100470001101109213011092120180EEE82EF12C5E
:10048000F70180818B7F8083F80180818160808388
:1004900080E060E042E049DFE1EEF0E080818E7FC5
:1004A0008083E2EEF0E080818160808380818860DB
:1004B0008083F70180818E7F8083F8018081806155
:1004C00080831F910F91FF90EF900895E7EDF0E08A
:1004D00080818160808381E080931401AECFE8ED5C
:1004E000F0E080818C7F80831092E200089510926A
:1004F000DA001092E10008951F920F920FB60F924A
:100500000BB60F9211242F933F934F935F936F93EA
:100510007F938F939F93AF93BF93EF93FF938091BC
:10052000E10082FF0AC08091E20082FF06C0809154
:10053000E1008B7F8093E1002EDE8091DA0080FF66
:100540001DC08091D80080FF19C08091DA008E7F95
:100550008093DA008091D90080FF0CC08CE089BDC7
:100560008EE089BD09B400FEFDCF81E080931501C6
:1005700008DE04C019BC1092150108DE8091E1006C
:1005800080FF18C08091E20080FF14C08091E200DB
:100590008E7F8093E2008091E20080618093E20090
:1005A0008091D80080628093D80019BC85E0809348
:1005B000150127D38091E10084FF2DC08091E200D6
:1005C00084FF29C08CE089BD8EE089BD09B400FE9E
:1005D000FDCF8091D8008F7D8093D8008091E1007D
:1005E0008F7E8093E1008091E2008F7E8093E20015
:1005F0008091E20081608093E20080911101882364
:1006000031F48091E30087FD02C081E001C084E005
:1006100080931501F6D28091E10083FF22C0809182
:10062000E20083FF1EC08091E100877F8093E1009C
:1006300082E080931501109211018091E1008E7F7C
:100640008093E1008091E2008E7F8093E2008091B0
:10065000E20080618093E20080E060E042E065DEDD
:10066000D0D2FF91EF91BF91AF919F918F917F91E8
:100670006F915F914F913F912F910F900BBE0F9013
:100680000FBE0F901F9018959C0140911C01509136
:100690001D014617570718F4F90190E03DC0611598
:1006A000710511F0AB01F8CF8091E8008E7780934F
:1006B000E80040E050E0F0CF809115018823F1F18F
:1006C0008530F1F18091E80083FF02C081E0089558
:1006D0008091E80082FD2CC08091E80080FF1CC062
:1006E0002091F2003091F30007C081918093F100D6
:1006F000415050402F5F3F4F4115510519F02830B0
:10070000310598F390E02830310509F491E08091AB
:10071000E8008E778093E8004115510569F699232A
:1007200059F606C080911501882341F0853041F0CB
:100730008091E80082FFF6CF80E0089582E008957E
:1007400083E008959C016115710529F48091E8000A
:100750008B778093E800F90122C0809115018823EE
:1007600071F1853071F18091E80083FF02C081E072
:1007700008958091E80082FFF0CF06C08091F100DB
:1007800081936150704031F08091F2009091F300BC
:10079000892BA1F78091E8008B778093E8006115A1
:1007A0007105D9F606C080911501882341F0853086
:1007B00041F08091E80080FFF6CF80E0089582E06C
:1007C000089583E008959C0140911C0150911D0102
:1007D0004617570718F4F90190E040C061157105FC
:1007E00011F0AB01F8CF8091E8008E778093E8009C
:1007F00040E050E0F0CF80911501882309F440C01B
:10080000853009F43FC08091E80083FF02C081E099
:1008100008958091E80082FD2DC08091E80080FF5E
:100820001DC02091F2003091F30008C084918093A4
:10083000F1003196415050402F5F3F4F4115510517
:1008400019F02830310590F390E02830310509F493
:1008500091E08091E8008E778093E8004115510582
:1008600051F6992341F606C080911501882341F085
:10087000853041F08091E80082FFF6CF80E0089556
:1008800082E0089583E00895BF92CF92DF92EF92C5
:10089000FF920F931F93CF93DF93182F092F7B01A4
:1008A0006A0199DDB82E8823B1F5812F902F9C0124
:1008B000E901C114D10439F0F60180819181E81A6F
:1008C000F90AC80FD91F00E010E022C08091E800AB
:1008D00085FD16C08091E8008E778093E80092D164
:1008E000C114D10449F0F60180819181800F911FDC
:1008F0009183808385E010C06EDD882349F00CC0B1
:1009000089918093F1000894E108F1080F5F1F4F6F
:10091000E114F104D9F68B2DDF91CF911F910F9146
:10092000FF90EF90DF90CF90BF9008950F931F93AB
:10093000DF93CF93CDB7DEB7AC970FB6F894DEBF99
:100940000FBECDBFE6E1F1E08091F100819321E09F
:10095000EE31F207C9F75FDC8091E80083FF38C110
:100960008091160130911701353009F487C0363077
:1009700040F43130C9F1313070F0333009F028C122
:1009800033C0383009F4F6C0393009F405C13630C7
:1009900009F01EC197C0803821F0823809F018C1D3
:1009A00008C09091120180911301882399F0926000
:1009B00011C080911A0187708093E9008091EB004B
:1009C00090E025E0969587952A95E1F7982F91700C
:1009D0001092E9008091E800877F8093E80090936F
:1009E000F1001092F100D1C0882319F0823009F093
:1009F000EFC090E08F719070009721F0029709F09E
:100A0000E7C00CC080911801813009F0E1C010925C
:100A10001301333069F5809313012AC080911801C6
:100A2000882331F520911A01277009F4D1C0209351
:100A3000E9008091EB0080FF1BC0333021F48091EE
:100A4000EB00806213C08091EB0080618093EB002B
:100A500081E090E002C0880F991F2A95E2F7809309
:100A6000EA001092EA008091EB0088608093EB002E
:100A70001092E9008091E800877F8AC0882309F0FE
:100A8000A7C0109118011F770FB7F8948091E80064
:100A9000877F8093E8007EDC8091E80080FFFCCFB8
:100AA0008091E3008078812B8093E30080688093BD
:100AB000E300112311F482E001C083E0809315016B
:100AC0000FBF86C08058823008F082C08091180124
:100AD0009091190123E08C3D920709F033C083E027
:100AE0008C838AE28B837FB7F894DE0115966EE0E3
:100AF00040E050E011E2E62FF0E0109357008491BF
:100B000040FF03C082958F706F5F8F70282F30E099
:100B10008A3018F0C901C79602C0C901C0968D93EA
:100B20009D934F5F5F4F4431510529F77FBF8091FF
:100B3000E800877F8093E800CE0103966AE270E0C8
:100B4000A3DD12C060911A01AE014F5F5F4FADDBB4
:100B5000BC01009709F43CC08091E800877F809336
:100B6000E80089819A812FDE8091E8008B7780935D
:100B7000E8002EC0803861F58091E800877F80937F
:100B8000E800809111018093F1008091E8008E7758
:100B90008093E800FFDB1CC08823D1F490911801FA
:100BA0009230B0F48091E800877F8093E8009093C2
:100BB0001101F0DB80911101882331F48091E30071
:100BC00087FD02C081E001C084E08093150126DB2F
:100BD0008091E80083FF0AC08091EB0080628093DF
:100BE000EB008091E800877F8093E800AC960FB619
:100BF000F894DEBF0FBECDBFCF91DF911F910F9153
:100C0000089508951F9380911501882361F0109134
:100C1000E9001092E9008091E80083FF01C086DEC0
:100C200017701093E9001F9108954F925F926F9291
:100C30007F928F929F92AF92BF92CF92DF92EF926C
:100C4000FF920F931F93DF93CF9300D00F92CDB7F6
:100C5000DEB77C016DB67EB680911501843009F057
:100C600085C0F70181818093E9008091E80085FFCC
:100C70007DC05DB64EB647818DB79EB7841B910986
:100C80000FB6F8949EBF0FBE8DBF0DB71EB70F5F96
:100C90001F4F19821B821A82C02E912EC80160E05C
:100CA00070E050E004D2C701BE016F5F7F4F40E0AB
:100CB00098018E010E5F1F4F7ADA882EF701818529
:100CC0009285892B19F4AA24BB240BC020E0F701DC
:100CD00083859485892B09F021E081E02827A22EC5
:100CE000BB24F701058116810115110511F4DD24DE
:100CF00012C04A815B818C2D992DB801C2D1DD24AF
:100D0000009711F0DD24D394F7014781C8016C2DC1
:100D1000792D50E0C3D18A819B81892BF9F08820FD
:100D200021F4DD2011F4AB28C9F0F701818592850B
:100D30009487838781818093E9008981882311F0DA
:100D40008093F1006A817B818C2D992D40E050E0E9
:100D50009BDD8091E8008E778093E800852D942DAF
:100D60009C010FB6F8943EBF0FBE2DBF0FB6F8948E
:100D70007EBE0FBE6DBE0F900F900F90CF91DF9192
:100D80001F910F91FF90EF90DF90CF90BF90AF90A9
:100D90009F908F907F906F905F904F900895CF932A
:100DA000DF93DC010896FC0185E0EF0119928A953A
:100DB000E9F781E018968C93189784EF91E01A96E2
:100DC0009C938E93199711963C91119712966D9161
:100DD0007C91139714968C91882311F440E001C004
:100DE00044E020E088E090E003C02F5F880F991F67
:100DF00086179707D0F342602295207F422B832FDE
:100E000061EC93DA811181E0DF91CF9108956F92C7
:100E10007F928F929F92AF92BF92CF92DF92EF928A
:100E2000FF920F931F93DF93CF9300D00F92CDB714
:100E3000DEB76C016DB67EB68091E80083FF0AC113
:100E4000F601808190E020911A0130911B01281752
:100E5000390709F0FFC080911701833009F4AAC057
:100E6000843030F4813071F0823009F0F3C0DAC0A0
:100E70008A3009F4BFC08B3009F4A9C0893009F069
:100E8000E9C055C080911601813A09F0E3C09DB6D2
:100E90008EB61B821A8280911801109119018983E4
:100EA000F60147818DB79EB7841B91090FB6F89460
:100EB0009EBF0FBE8DBFEDB6FEB60894E11CF11CBF
:100EC000BE2CAF2CC70160E070E050E0F0D01150B4
:100ED000C601BE016F5F7F4F412F97018E010E5FEC
:100EE0001F4F65D9F601258136812115310529F07D
:100EF0004781C901B70150E0D1D01092E90080913B
:100F0000E800877F8093E8006A817B818B2D9A2D92
:100F1000BBDB8091E8008B778093E800292D382D8A
:100F2000C9010FB6F8949EBF0FBE8DBF93C08091CC
:100F30001601813209F08EC09DB68EB600911C015B
:100F400010911D01A0901801B09019018DB79EB7A6
:100F5000801B910B0FB6F8949EBF0FBE8DBFEDB6F0
:100F6000FEB60894E11CF11C8091E800877F809315
:100F7000E800C701B801E6DB8091E8008E77809336
:100F8000E80080E090E0AA2011F081E090E0BA94BF
:100F9000E80EF91E081B190BC6016A2D4B2D97018F
:100FA00039D9892D982D9C010FB6F8943EBF0FBEFC
:100FB0002DBF50C080911601813A09F04BC080913D
:100FC000E800877F8093E800F60180853BC0809130
:100FD0001601813209F03EC08091E800877F80933E
:100FE000E800D8D990E080911801811191E0F601D4
:100FF000908730C080911601813261F58091E800C0
:10100000877F8093E800C6D98091180190911901DB
:10101000807076E0969587957A95E1F7F60192874C
:10102000818718C080911601813AA1F48091E8006F
:10103000877F8093E800F601818592859695879554
:10104000969587958093F1008091E8008E77809344
:10105000E800A0D90FB6F8947EBE0FBE6DBE0F900B
:101060000F900F90CF91DF911F910F91FF90EF9014
:10107000DF90CF90BF90AF909F908F907F906F90B8
:101080000895FB01DC0104C08D910190801921F4C9
:1010900041505040C8F7881B990B0895FB01DC01B3
:1010A00002C001900D9241505040D8F70895DC01E4
:1010B00001C06D9341505040E0F70895F894FFCF80
:0E10C00000010800000E010300000000000007
:00000001FF
