:1000000034C1000050C100004EC100004CC10000CE
:100010004AC1000048C1000046C1000044C10000C0
:1000200042C1000040C1000082C700003CC1000086
:100030003AC1000038C1000036C1000034C10000E0
:1000400032C1000030C100002EC100002CC10000F0
:100050002AC1000028C1000026C1000024C1000000
:1000600022C1000020C100001EC100001CC1000010
:100070001AC1000018C1000016C1000014C1000020
:1000800012C1000010C100000EC100000CC1000030
:100090000AC1000008C10000486F7374004465760F
:1000A000696365001B5B33336D55494420436861C8
:1000B0006E676520746F202553206D6F64650D0A8F
:1000C0001B5B33376D001B5B33366D4D6F7573658E
:1000D00020486F73742F4465766963652044656DAD
:1000E0006F2072756E6E696E672E0D0A1B5B33375B
:1000F0006D0005010902A1010901A100050919010D
:1001000029031500250195037501810295017505E7
:10011000810105010930093116FFFF26010036FF74
:10012000FF460100950275088106C0C0120110014A
:1001300000000008EB034120000001020001090259
:100140002200010100C03209040000010301020085
:10015000092111010001223A00070581030800016D
:100160000403090418034400650061006E002000C8
:10017000430061006D006500720061000000200313
:100180004C0055004600410020004D006F007500F6
:10019000730065002000440065006D006F000000E2
:1001A00064583A2532642064593A253264204275F5
:1001B00074746F6E3A25640D0A001B5B33316D4415
:1001C000657620456E756D204572726F720D0A203E
:1001D0002D2D204572726F7220436F646520256457
:1001E0000D0A202D2D20537562204572726F7220EA
:1001F000436F64652025640D0A202D2D20496E2053
:1002000053746174652025640D0A1B5B33376D00E0
:100210001B5B33316D486F7374204D6F64652045EF
:1002200072726F720D0A202D2D204572726F72202E
:10023000436F64652025640D0A1B5B33376D000D29
:100240000A44657669636520556E617474616368FC
:1002500065642E0D0A0044657669636520417474F7
:1002600061636865642E0D0A000011241FBECFEF84
:10027000D0E2DEBFCDBF11E0A0E0B1E0E2E1FBE201
:1002800000E00BBF02C007900D92AC3DB107D9F75B
:1002900012E0ACEDB1E001C01D92A630B107E1F76C
:1002A0007AD00C948715ACCE8091E201813019F0A0
:1002B00028E930E002C02DE930E000D000D084EA27
:1002C00090E0EDB7FEB792838183348323830E944D
:1002D00062128BB18F7080618BB90F900F900F906D
:1002E0000F90089584B7877F84BF38E10FB6F894E4
:1002F00030936000109260000FBE80E090E020E834
:100300000FB6F89420936100809361000FBE83E3E1
:1003100090E09093CD008093CC0086E08093CA005B
:100320001092C8003093C900539A5A9A8AB1806FCC
:100330008AB98BB18F708BB984B18F7184B98DB14B
:100340008F7C8DB985B1806E85B98EB180638EB991
:100350006A98729A83E0AFD5E2EFF1E0F093010280
:10036000E0930002F0930302E09302028EE0DF01CB
:100370001D928A95E9F783E08093F50187E292E187
:100380009093FB018093FA0181E392E19093FD0148
:100390008093FC010895A6DF86EC90E00E94B912DC
:1003A0008BB18F7080618BB978948091E20182303B
:1003B00011F4AAD004C080E091E00E944F0E0E9488
:1003C000FF0DF3CFDA019330B1F0943028F491307F
:1003D00041F0923079F50AC0913211F1923251F523
:1003E00024C0ECE2F1E022E130E028C0EEE3F1E0ED
:1003F00022E230E023C0813049F0813018F08230B1
:10040000C9F40AC0E0E6F1E0849103C0E4E6F1E05B
:100410008491282F30E012C0EEE7F1E08491F9CF0B
:10042000E0E5F1E029E030E009C0E2EFF0E02AE3A6
:1004300030E004C0E0E0F0E020E030E0ED93FC9339
:10044000C90108958BB18F70806A8BB908958BB103
:100450008F7080618BB9089580910B0190910C0190
:10046000009729F0019790930C0180930B01089558
:100470000F931F93D801F90123B18CB1809590E0BF
:1004800080739070959587952095207E282B3CB1A0
:1004900027FF02C08FEF03C024FF02C081E08283E8
:1004A000922F23FF02C081E003C026FF02C08FEF1E
:1004B000818395FF03C080818160808332FD03C00A
:1004C00080818260808383E090E08D939C9381E0C3
:1004D0001F910F910895089580E091E00C94430FCF
:1004E0008BB18F7080668BB980E091E00E940A0F1B
:1004F000882321F48BB18F7080698BB98091E200E1
:1005000084608093E2000895DF93CF9300D00F9230
:10051000CDB7DEB78091F1018B3009F054C088EB84
:1005200091E00E949910882309F44DC088EB91E076
:10053000BE016F5F7F4F0E94E0102DB73EB728507D
:1005400030400FB6F8943EBF0FBE2DBFEDB7FEB7DB
:10055000319680EA91E0ADB7BEB712969C938E9328
:1005600011978A81992787FD9095938382838B8148
:10057000992787FD90959583848389818683178247
:100580000E9462128A812DB73EB7285F3F4F0FB697
:10059000F8943EBF0FBE2DBF181614F490E105C0AD
:1005A000882311F090E201C090E08B81181614F4BA
:1005B000906802C0811190648981811190EF8BB1A4
:1005C0008F70982B9BB90F900F900F90CF91DF9168
:1005D00008959091F1012DB73EB7285030400FB6E5
:1005E000F8943EBF0FBE2DBFEDB7FEB731962AEB94
:1005F00031E0ADB7BEB712963C932E93119782832C
:10060000138264831582968317820E9462128BB1D3
:100610008F7080698BB92DB73EB7285F3F4F0FB6FB
:10062000F8943EBF0FBE2DBF08951F93182F9AD385
:1006300000D000D0EDB7FEB7319680E192E0ADB7C3
:10064000BEB712969C938E931197128313820E94C9
:1006500062128BB18F7080698BB90F900F900F90E1
:100660000F90FFCF0F931F93DF93CF93CDB7DEB7DC
:10067000C250D2400FB6F894DEBF0FBECDBF8BB1D3
:100680008F70806A8BB98E010D5F1F4F81E0BE01B4
:100690006F5F7F4FA80120E032E08DD7882319F0EB
:1006A0008DE091E01CC069817A8188EB91E0A8011E
:1006B0000E942C11882319F089E391E010C081E099
:1006C0000E94DA0D882319F08DE591E008C088EBCF
:1006D00091E00E94B510882341F082E891E00E94E9
:1006E00084128BB18F70806907C085EA91E00E9407
:1006F00084128BB18F7080668BB9CE5FDD4F0FB6E1
:10070000F894DEBF0FBECDBFCF91DF911F910F9147
:1007100008958FE392E00E94B9128BB18F708061CF
:100720008BB9089586E592E00E94B9128BB18F7063
:10073000806A8BB90895382F282F2CC02093E900A8
:10074000231721F4762F942F50E006C07091EC000F
:100750009091ED005091F00091FF1BC08091EB0053
:100760008E7F8093EB008091ED008D7F8093ED0074
:100770008091EB0081608093EB007093EC0090938C
:10078000ED005093F0008091EE0087FD02C080E004
:1007900008952F5F273090F23093E90081E00895AB
:1007A0008091E90188239CF404C08091E8018823AA
:1007B000B9F08091E80082FFF8CF8091E8008B7754
:1007C0008093E80008958091E801882349F08091A2
:1007D000E80080FFF8CF8091E8008E778093E800F2
:1007E00008954091E4005091E50024E68091EC00EA
:1007F00080FF24C08091E80080FD1EC08091E80148
:10080000882311F482E00895853011F483E008957F
:100810008091EB0085FF02C081E008958091E400A3
:100820009091E5008417950709F3222311F484E0E1
:1008300008952150AC01DACF80E008958091E8005E
:1008400082FFDCCFF9CF982F20919E003091A0003D
:100850008091A0008F7D8093A00080919F008F7D6C
:1008600080939F0080919E00816080939E002AC0AB
:1008700080919F0085FF06C080919F008F7D8093AF
:100880009F0091508091F1018130F9F08091E20157
:100890008230D9F48091A60084FF09C01092F5003F
:1008A0008091A6008F7E8093A60092E00FC0809179
:1008B000A60081FF07C08091A6008D7F8093A600CF
:1008C00093E004C09923A1F601C091E020FD05C08A
:1008D00080919E008E7F80939E0035FF05C08091A1
:1008E000A00080628093A000892F089560919E00EF
:1008F0008091A0008D7F8093A00080919E008260F7
:1009000080939E0080919E0081FDFCCF80919E008F
:10091000816080939E001092E6013091A00080914A
:10092000A0008F7D8093A00080919F008F7D809399
:100930009F002AE040ED57E080919F0085FF0BC0AB
:1009400080919F008F7D80939F0080919F008D7F7D
:1009500080939F0005C0CA010197F1F7215061F70C
:1009600035FF05C08091A00080628093A00060FDEB
:1009700005C080919E008E7F80939E008091A00094
:1009800082608093A0000895EF920F931F93DF93EE
:10099000CF93CDB7DEB728970FB6F894DEBF0FBE62
:1009A000CDBF8091F101853009F494C0863068F4A0
:1009B0008230B9F1833018F48823A1F004C1833068
:1009C000D1F1843009F0FFC05DC0873009F49BC0CD
:1009D000873008F48AC0883009F4B3C0893009F040
:1009E000F2C0D7C00091E0011091E101011511059D
:1009F00009F4E9C081E027DF682F882331F0809176
:100A0000DF018093F10191E0DAC0C8010197909372
:100A1000E1018093E001892B09F0D5C08091DF01CD
:100A200007C088EE93E09093E1018093E00183E0BA
:100A30008093F101C8C08091E0019091E10101979C
:100A40009093E1018093E001019629F080ED97E019
:100A50000197F1F7B8C077988091D80080618093B2
:100A6000D8008091DD008B7F8093DD008091D700DE
:100A700080618093D7008091DD0082608093DD00EB
:100A800084E0D6CF80919F0080FF9DC080919F0021
:100A90008E7F80939F0080919F008D7F80939F0029
:100AA0008091DF008D7F8093DF008091DE00826087
:100AB0008093DE0080919E00816080939E00EDD047
:100AC0001092F10184E690E09093E1018093E001BF
:100AD00085E05CC00BDF1092F10188EC90E0909310
:100AE000E1018093E00186E051C080E060E040E0F9
:100AF00020E000E410E0EE2472D08091AC0087FF8B
:100B00005CC087E095CFA9EEB1E0E3EDF1E088E0CD
:100B100001900D928150E1F7CE01019642D7682FE6
:100B2000882309F048C088858093DB01DFDE1092BE
:100B3000F10188EC90E09093E1018093E00188E07E
:100B400025C00091DB0180E060E040E020E010E0A3
:100B5000EE2445D08091AC0087FF2FC0A9EEB1E014
:100B6000EBECF1E088E001900D928150E1F780E03C
:100B700090E017D7682F8823F1F41092F10184E6F2
:100B800090E09093E1018093E00189E08093DF01A0
:100B90001AC081E08093A1008AE08093F10162DDB8
:100BA00012C0892F16DD8091DD0081608093DD0009
:100BB000B0DDF2D008C093E002C094E060E0809124
:100BC000F101813071F728960FB6F894DEBF0FBEA1
:100BD000CDBFCF91DF911F910F91EF900895EF92CC
:100BE0000F931F93E82F7E2D6295660F660F607C32
:100BF000642B2F70622B382F726045C03093A70092
:100C00003E17A1F488E090E020E003C02F5F880F3A
:100C1000991F8017910710F42530C1F7922F9295F4
:100C2000907F972B562F40E020E008C05091AA00FB
:100C30009091AB004091AD002091AE0091FF22C099
:100C40008091A9008E7F8093A9008091AB008D7F59
:100C50008093AB008091A90081608093A90050939C
:100C6000AA009093AB004093AD002093AE0080911A
:100C7000A90080628093A9008091AC0087FD02C02A
:100C800080E007C03F5F373008F4B8CFE093A7009B
:100C900081E01F910F91EF9008951092F80090E07D
:100CA0009093A7001092AE001092A6001092AB0095
:100CB0008091A9008E7F8093A9009F5F973081F774
:100CC0000895482F3091A70020E02093A70080913D
:100CD000AC0087FF10C09091AA008091AA00807399
:100CE000803111F080E001C080E89F70892B84176B
:100CF00011F481E008952F5F273039F73770309372
:100D0000A70080E008954091A2005091A30024E63E
:100D10008091AA008073803129F48091A60080FF21
:100D200005C01EC08091A60082FD1AC08091A60059
:100D300081FF02C081E008958091F101813011F4BA
:100D400082E008958091A2009091A30084179507F6
:100D5000F9F2222311F483E008952150AC01D8CF99
:100D600080E00895CFD0DAD0E0EEF0E080818160BD
:100D70008083A8EDB0E08C918F778C9319BCE7ED60
:100D8000F0E080818E7F80838C918F7E8C93109297
:100D9000E2011092E70108951F931091D700B2D09D
:100DA000BDD08091D8008F778093D8008091D800F3
:100DB00080688093D80016FF05C08091D8008260BB
:100DC0008093D8008091D8008F7D8093D800809147
:100DD000E201813061F58091D70080688093D7006F
:100DE00019BC1092E8011092E3011092E5011092F3
:100DF000E4018091E0008B7F8093E0008091D80037
:100E000081608093D80080E060E042E094DC8091D3
:100E1000E1008E7F8093E1008091E2008160809309
:100E2000E2008091E20088608093E20038C0809107
:100E3000E2018230C9F58091D7008F778093D70087
:100E40008CE089BD8EE089BD09B400FEFDCF81E054
:100E50008093F1011092E60180E48093DB018091A0
:100E6000D80080648093D8008091DD0081608093F9
:100E7000DD008091DD0084608093DD008091D700EB
:100E80008F7E8093D7006F9A779A8091DE00816081
:100E90008093DE008091DE0084608093DE0080918C
:100EA000E0008E7F8093E0008091D8008061809385
:100EB000D8001F910895982F8091D700816080936A
:100EC000D7009330A1F48091D70080648093D7003D
:100ED0008091D80082608093D8008091D90081FDF4
:100EE00002C082E001C081E08093E20107C08091EE
:100EF000D7008F7B8093D7009093E20181E08093AD
:100F0000E7014ACFE8EDF0E080818C7F808310928A
:100F1000DE001092A0001092E20008951092DA0014
:100F20001092DF0010929F001092E10008951F922E
:100F30000F920FB60F920BB60F9211242F933F937F
:100F40004F935F936F937F938F939F93AF93BF93D1
:100F5000EF93FF938091E10082FF0AC08091E2004D
:100F600082FF06C08091E1008B7F8093E10074DAFC
:100F70008091DA0080FF1DC08091D80080FF19C0E9
:100F80008091DA008E7F8093DA008091D90080FF13
:100F90000CC08CE089BD8EE089BD09B400FEFDCF98
:100FA00081E08093E8014EDA04C019BC1092E80198
:100FB0004EDA8091E10080FF18C08091E20080FF4E
:100FC00014C08091E2008E7F8093E2008091E20065
:100FD00080618093E2008091D80080628093D80085
:100FE00019BC85E08093E801B1D48091E10084FFD1
:100FF0002DC08091E20084FF29C08CE089BD8EE085
:1010000089BD09B400FEFDCF8091D8008F7D80930B
:10101000D8008091E1008F7E8093E1008091E20012
:101020008F7E8093E2008091E20081608093E200F5
:101030008091E301882331F48091E30087FD02C0B1
:1010400081E001C084E08093E80180D48091E100D8
:1010500083FF22C08091E20083FF1EC08091E100E7
:10106000877F8093E10082E08093E8011092E301A2
:101070008091E1008E7F8093E1008091E2008E7F7D
:101080008093E2008091E20080618093E20080E042
:1010900060E042E050DB5AD480919F0085FF0AC097
:1010A0008091A00085FF06C080919F008F7D809376
:1010B0009F004CD480919F0081FF15C08091A000BB
:1010C00081FF11C080919F008D7F80939F00809150
:1010D0009F008E7F80939F008091A0008D7F8093E2
:1010E000A00017DB59DE8091DF0081FF15C08091E1
:1010F000DE0081FF11C08091DF008D7F8093DF00D3
:1011000077988091DD0081608093DD0080E08DDA4A
:1011100000DB81E08093F1018091DF0080FF17C048
:101120008091DE0080FF13C08091DF008E7F80936E
:10113000DF008091DE008E7F8093DE00F3DA809105
:10114000A00082608093A00082E08093F1018091F2
:10115000DF0082FF0EC08091DE0082FF0AC0809116
:10116000DF008B7F8093DF0082E060E032DAD1DA4B
:1011700013DE8091DA0081FF1EC08091D80081FFCC
:101180001AC08091DA008D7F8093DA008091E801A7
:10119000882309F05CD98091F101813009F0B9DA36
:1011A0008091D90081FD02C082E001C081E080937E
:1011B000E201F2DD79D8FF91EF91BF91AF919F915C
:1011C0008F917F916F915F914F913F912F910F90F0
:1011D0000BBE0F900FBE0F901F9018959C01409171
:1011E000EF015091F0014617570718F4F90190E00C
:1011F0003DC06115710511F0AB01F8CF8091E80099
:101200008E778093E80040E050E0F0CF8091E801D5
:101210008823F1F18530F1F18091E80083FF02C06D
:1012200081E008958091E80082FD2CC08091E80063
:1012300080FF1CC02091F2003091F30007C0819123
:101240008093F100415050402F5F3F4F41155105B1
:1012500019F02830310598F390E02830310509F471
:1012600091E08091E8008E778093E8004115510568
:1012700069F6992359F606C08091E801882341F068
:10128000853041F08091E80082FFF6CF80E008953C
:1012900082E0089583E008959C016115710529F4A9
:1012A0008091E8008B778093E800F90122C080915B
:1012B000E801882371F1853071F18091E80083FFA6
:1012C00002C081E008958091E80082FFF0CF06C05F
:1012D0008091F10081936150704031F08091F20073
:1012E0009091F300892BA1F78091E8008B77809390
:1012F000E80061157105D9F606C08091E8018823E0
:1013000041F0853041F08091E80080FFF6CF80E029
:10131000089582E0089583E008959C014091EF01D3
:101320005091F0014617570718F4F90190E040C0BA
:101330006115710511F0AB01F8CF8091E8008E774F
:101340008093E80040E050E0F0CF8091E8018823EE
:1013500009F440C0853009F43FC08091E80083FF64
:1013600002C081E008958091E80082FD2DC0809147
:10137000E80080FF1DC02091F2003091F30008C00A
:1013800084918093F1003196415050402F5F3F4F40
:101390004115510519F02830310590F390E02830BF
:1013A000310509F491E08091E8008E778093E800A0
:1013B0004115510551F6992341F606C08091E80187
:1013C000882341F0853041F08091E80082FFF6CF1C
:1013D00080E0089582E0089583E00895BF92CF925F
:1013E000DF92EF92FF920F931F93CF93DF93182F0B
:1013F000092F7B016A01F5D9B82E8823B1F5812F19
:10140000902F9C01E901C114D10439F0F6018081CB
:101410009181E81AF90AC80FD91F00E010E022C034
:101420008091E80085FD16C08091E8008E7780935A
:10143000E800E5D3C114D10449F0F601808191811F
:10144000800F911F9183808385E010C0CAD98823C3
:1014500049F00CC089918093F1000894E108F108EB
:101460000F5F1F4FE114F104D9F68B2DDF91CF915F
:101470001F910F91FF90EF90DF90CF90BF90089554
:10148000BF92CF92DF92EF92FF920F931F93CF9371
:10149000DF93182F092F7B016A018091AA008F7CAE
:1014A00080618093AA002FDCB82E8823A9F5812FB4
:1014B000902F9C01E901C114D10439F0F60180811B
:1014C0009181E81AF90AC80FD91F00E010E021C085
:1014D0008091A60085FD15C08091A6008E7780932F
:1014E000A600C114D10449F0F60180819181800FDA
:1014F000911F9183808384E010C005DC882349F02C
:101500000CC08091AF0089930894E108F1080F5F47
:101510001F4FE114F104E1F68B2DDF91CF911F9164
:101520000F91FF90EF90DF90CF90BF900895AF9212
:10153000BF92CF92DF92EF92FF920F931F93CF93C0
:10154000DF937C01EB016A0124C0E881F981BE2EA2
:10155000AF2E808190E098018017910708F49C01DC
:10156000E20FF31FF983E883F70180819181821BE9
:10157000930B9183808388819981F601099582304C
:1015800041F0813069F4B882A982F70111830083A8
:1015900007C0F7010081118101151105B1F682E044
:1015A000DF91CF911F910F91FF90EF90DF90CF903F
:1015B000BF90AF900895CF92DF92EF92FF920F937A
:1015C0001F93DF93CF93CDB7DEB729970FB6F8946B
:1015D000DEBF0FBECDBF6B018A01790190E8909309
:1015E000E90196E09093EA0190E001979260909370
:1015F000EC018093EB011092EE011092ED0189E075
:1016000090E09093F0018093EF011092A700CE013B
:101610000196C7D1282F8823C1F48B819C81F601C4
:1016200091838083E816F90610F425E00EC09093AC
:10163000F0018093EF01C801B4D1282F882329F449
:10164000F8018181823009F026E0822F29960FB6B9
:10165000F894DEBF0FBECDBFCF91DF911F910F91E8
:10166000FF90EF90DF90CF9008950F931F93DF933B
:10167000CF93CDB7DEB7AC970FB6F894DEBF0FBEF1
:10168000CDBFE9EEF1E08091F100819321E0E13FEF
:10169000F207C9F70E946C028091E80083FF3DC108
:1016A0008091E9013091EA01353009F487C0363084
:1016B00040F43130C9F1313070F0333009F02DC1D0
:1016C00033C0383009F4F8C0393009F408C1363075
:1016D00009F023C198C0803821F0823809F01DC17B
:1016E00008C09091E4018091E501882399F092600F
:1016F00011C08091ED0187708093E9008091EB002B
:1017000090E025E0969587952A95E1F7982F9170BE
:101710001092E9008091E800877F8093E800909321
:10172000F1001092F100D3C0882319F0823009F043
:10173000F4C090E08F719070009721F0029709F04B
:10174000ECC00CC08091EB01813009F0E6C0109232
:10175000E501333069F58093E5012AC08091EB0102
:10176000882331F52091ED01277009F4D6C020932C
:10177000E9008091EB0080FF1BC0333021F48091A1
:10178000EB00806213C08091EB0080618093EB00DE
:1017900081E090E002C0880F991F2A95E2F78093BC
:1017A000EA001092EA008091EB0088608093EB00E1
:1017B0001092E9008091E800877F8CC0882309F0AF
:1017C000ACC01091EB011F770FB7F8948091E8003F
:1017D000877F8093E8000E94D0038091E80080FF1B
:1017E000FCCF8091E3008078812B8093E3008068B8
:1017F0008093E300112311F482E001C083E0809321
:10180000E8010FBF8AC08058823008F086C08091FE
:10181000EB019091EC0123E08C3D920709F033C07D
:1018200083E08C838AE28B837FB7F894DE01159680
:101830006EE040E050E011E2E62FF0E01093570038
:10184000849140FF03C082958F706F5F8F70282F47
:1018500030E08A3018F0C901C79602C0C901C096AD
:101860008D939D934F5F5F4F4431510529F77FBFA3
:101870008091E800877F8093E800CE0103966AE2BA
:1018800070E0ACDC13C06091ED01AE014F5F5F4FC3
:101890000E94E201BC01009709F43FC08091E8007A
:1018A000877F8093E80089819A8137DD8091E80005
:1018B0008B778093E80031C0803879F58091E8001B
:1018C000877F8093E8008091E3018093F10080910D
:1018D000E8008E778093E8000E94D0031EC0882322
:1018E000E1F49091EB019230C0F48091E800877FA1
:1018F0008093E8009093E3010E94D0038091E3017C
:10190000882331F48091E30087FD02C081E001C0AB
:1019100084E08093E8010E9470028091E80083FFD8
:101920000AC08091EB0080628093EB008091E80018
:10193000877F8093E800AC960FB6F894DEBF0FBEA9
:10194000CDBFCF91DF911F910F91089508951F93FF
:10195000CF93DF93182FC8EED3E00AC081E00E9436
:1019600023048823D1F4209711F484E016C0219732
:10197000112329F48091A60083FFF0CF0DC0113010
:1019800029F48091A60080FFE9CF06C0123031F71C
:101990008091A60082FFE2CF80E0DF91CF911F917E
:1019A0000895FF920F931F93CF93DF93182F092F62
:1019B000F0909E00C091EF01D091F00180919E00C7
:1019C000816080939E0081E00E942304982F8823E9
:1019D00009F0D8C08091AA008F7C8093AA00109251
:1019E000F5008091A6008F7E8093A6008091A900CB
:1019F0008F7B8093A900E9EEF1E081918093AF00A5
:101A000081E0E13FF807C9F78091A60087778093CE
:101A1000A60080E09CDF982F882309F0B3C0809156
:101A2000A90080648093A90081E00E942304982F7C
:101A3000882309F0A7C0212F302FC9018C01809184
:101A4000E90187FF52C08091AA008F7C806180935A
:101A5000AA000115110569F52EC08091A9008F7BA0
:101A60008093A90081E073DF982F882309F08AC052
:101A70008091F6009091F700892B49F4C0E0D0E006
:101A800006C08091AF00F80181938F01219780916A
:101A9000F6009091F700892B11F0209791F7809133
:101AA000A90080648093A9008091A6008E7780931E
:101AB000A600209791F68091AA008F7C8062809387
:101AC000AA008091A9008F7B8093A90082E03FDF6C
:101AD000982F882309F056C08091A6008B778093B9
:101AE000A60082E034DF982F4DC001151105A9F141
:101AF0008091AA008F7C80628093AA008091A900C7
:101B00008F7B8093A9001DC082E021DF982F88235E
:101B1000C9F58091DB01282F30E007C0F8018191E1
:101B20008F018093AF00219739F08091F60090915A
:101B3000F7008217930790F38091A6008B7780932C
:101B4000A600209709F782E002DF982F8823D1F4BE
:101B50008091A90080648093A9008091AA008F7C65
:101B600080618093AA008091A9008F7B8093A90057
:101B700081E0EDDE982F882329F48091A6008E77EE
:101B80008093A6008091A90080648093A900F0FC56
:101B900005C080919E008E7F80939E0081E080939F
:101BA000A8001092A800892FDF91CF911F910F916B
:101BB000FF9008951F93182F1092E90189E08093F8
:101BC000EA011093EB011092EC011092EE011092D9
:101BD000ED011092F0011092EF011092A70080E049
:101BE00090E0DFDE882349F41093E601112311F41D
:101BF0009AE001C09BE09093F1011F9108951F931B
:101C00008091E201813089F48091E8018823D1F04C
:101C10001091E9001092E9008091E80083FF01C073
:101C200024DD17701093E9000DC08091E20182302D
:101C300049F41091A70017701092A7000E94C404E5
:101C40001093A7001F910895E42FF0E0EE0FFF1FFF
:101C5000EF56FC4FE80FF91FDC01A057BC4F90E096
:101C6000208131818C91861789F440E050E0C901D0
:101C700087709070892B11F041E050E063E0369559
:101C800027956A95E1F7240F351F07C09F5F3796A8
:101C900017969A3029F720E030E0C90108954F9255
:101CA0005F926F927F928F929F92AF92BF92CF92EC
:101CB000DF92EF92FF920F931F93DF93CF9300D0A9
:101CC0000F92CDB7DEB77C016DB67EB68091E8018C
:101CD000843009F086C0F70181818093E90080910A
:101CE000E80085FF7EC05DB64EB647818DB79EB7D2
:101CF000841B91090FB6F8949EBF0FBE8DBF0DB720
:101D00001EB70F5F1F4F19821B821A82C02E912EA1
:101D1000C80160E070E050E0CED3C701BE016F5F44
:101D20007F4F40E098018E010E5F1F4F0E943802E6
:101D3000882EF70181859285892B19F4AA24BB246A
:101D40000BC020E0F70183859485892B09F021E001
:101D500081E02827A22EBB24F701058116810115F9
:101D6000110511F4DD2412C04A815B818C2D992D5F
:101D7000B8018BD3DD24009711F0DD24D394F70153
:101D80004781C8016C2D792D50E08CD38A819B81CD
:101D9000892BF9F0882021F4DD2011F4AB28C9F05B
:101DA000F701818592859487838781818093E900FB
:101DB0008981882311F08093F1006A817B818C2DC9
:101DC000992D40E050E00ADB8091E8008E77809307
:101DD000E800852D942D9C010FB6F8943EBF0FBEF0
:101DE0002DBF0FB6F8947EBE0FBE6DBE0F900F9044
:101DF0000F90CF91DF911F910F91FF90EF90DF90A7
:101E0000CF90BF90AF909F908F907F906F905F909A
:101E10004F900895CF93DF93DC010896FC0185E095
:101E2000EF0119928A95E9F781E018968C9318973B
:101E300084EF91E01A969C938E93199711963C919A
:101E4000119712966D917C91139714968C9188231B
:101E500011F440E001C044E020E088E090E003C0DD
:101E60002F5F880F991F86179707D0F3426022953E
:101E7000207F422B832F61EC0E949B03811181E024
:101E8000DF91CF9108956F927F928F929F92AF9240
:101E9000BF92CF92DF92EF92FF920F931F93DF9347
:101EA000CF9300D00F92CDB7DEB76C016DB67EB682
:101EB0008091E80083FF0FC1F601808190E02091BE
:101EC000ED013091EE012817390709F004C1809126
:101ED000EA01833009F4ACC0843030F4813071F011
:101EE000823009F0F8C0DEC08A3009F4C2C08B30FD
:101EF00009F4ABC0893009F0EEC056C08091E90109
:101F0000813A09F0E8C09DB68EB61B821A82809194
:101F1000EB011091EC018983F60147818DB79EB7E3
:101F2000841B91090FB6F8949EBF0FBE8DBFEDB60E
:101F3000FEB60894E11CF11CBE2CAF2CC70160E07A
:101F400070E050E0B8D21150C601BE016F5F7F4F04
:101F5000412F97018E010E5F1F4F0E943802F6013C
:101F6000258136812115310529F04781C901B70145
:101F700050E098D21092E9008091E800877F80932A
:101F8000E8006A817B818B2D9A2D28D98091E80009
:101F90008B778093E800292D382DC9010FB6F8946E
:101FA0009EBF0FBE8DBF97C08091E901813209F0BD
:101FB00092C09DB68EB60091EF011091F001A090F5
:101FC000EB01B090EC018DB79EB7801B910B0FB663
:101FD000F8949EBF0FBE8DBFEDB6FEB60894E11C0F
:101FE000F11C8091E800877F8093E800C701B80169
:101FF00053D98091E8008E778093E80080E090E0EC
:10200000AA2011F081E090E0BA94E80EF91E081BB6
:10201000190BC6016A2D4B2D97010E946B02892D69
:10202000982D9C010FB6F8943EBF0FBE2DBF53C034
:102030008091E901813A09F04EC08091E800877FE4
:102040008093E800F60180853DC08091E9018132EE
:1020500009F041C08091E800877F8093E8000E94EA
:10206000D00390E08091EB01811191E0F60190871F
:1020700032C08091E901813271F58091E800877F5B
:102080008093E8000E94D0038091EB019091EC01D5
:10209000807076E0969587957A95E1F7F6019287BC
:1020A000818719C08091E901813AA9F48091E80003
:1020B000877F8093E800F6018185928596958795C4
:1020C000969587958093F1008091E8008E778093B4
:1020D000E8000E94D0030FB6F8947EBE0FBE6DBE1E
:1020E0000F900F900F90CF91DF911F910F91FF9064
:1020F000EF90DF90CF90BF90AF909F908F907F90A8
:102100006F900895FC018181843029F485818330AA
:1021100011F480E0089582E00895FC01818181320C
:1021200011F480E00895843011F082E0089581E098
:102130000895FC018091F1018B30A1F487818823FF
:1021400089F080818093A7008091A9008F7B809384
:10215000A9009091A60091708091A900806480935D
:10216000A90001C090E0892F0895CF93DF93EC017F
:102170008D85882311F490E81FC0888591E29093A3
:10218000E9019BE09093EA011092EC011092EB01BF
:102190008093ED011092EE011092F0011092EF0188
:1021A0001092A70080E090E0FCDB982F882321F4B8
:1021B00088E08A8B81E08F87892FDF91CF91089506
:1021C000CF93DF93DC018091F1018B3009F03FC0A8
:1021D00017968C9117978823D1F18C918093A70043
:1021E0008091A9008F7B8093A900EB011F968C91B1
:1021F0001F978823B1F41596ED91FC911697E8523C
:10220000FC4F8081882311F460E003C06091AF002F
:10221000699315968D919C91169740E015DDBC0150
:1022200004C06091F6007091F700CE0140E050E0EC
:1022300027D9982F882361F48091A6008E77809308
:10224000A6008091A90080648093A90001C092E05B
:10225000892FDF91CF9108952F923F924F925F92F5
:102260006F927F928F929F92AF92BF92CF92DF92A6
:10227000EF92FF920F931F93DF93CF9300D000D084
:10228000CDB7DEB76C017A8369835C834B83079695
:10229000FC018CE0DF011D928A95E9F7EB81FC815E
:1022A0008181823011F081E0ABC066247724AA24BA
:1022B000BB24442455242224332453E0E52EF12C5E
:1022C000EC0EFD1E8E010F5F1F4F4114510439F0BB
:1022D000C801B70147E152E12AD9882321F16114ED
:1022E000710479F5A114B10461F5C801B70142E8A0
:1022F00050E11DD9882309F082C04B805C80F60133
:102300009481992329F0D20117968C91891769F746
:10231000C801B7014DE850E10AD9882309F06FC020
:102320002B803C80D2CFEB81FC81828187FD02C073
:102330005F0101C03F016114710439F2A114B104BD
:1023400021F29924939488248394F601808198162D
:1023500079F4D30114960D911C91159712962C9136
:10236000129781811696FC901287018740E116C072
:10237000F6018281981621F5A114B10409F1D50165
:1023800014960D911C91159712962C91129783819A
:102390001696FC9014870387868640E2882311F402
:1023A00090E001C094E0892D63E0E92E0E94EF05E2
:1023B000882311F483E024C0FF2011F0F092AD00D7
:1023C0009394B7E09B1609F6F2018281D601189624
:1023D0008C931897F1018781908551969C938E93E9
:1023E000509790E0D20116968C91811191E0F60100
:1023F000958788E0828B81E0878380E001C082E05E
:102400000F900F900F900F90CF91DF911F910F9130
:10241000FF90EF90DF90CF90BF90AF909F908F9004
:102420007F906F905F904F903F902F900895FC01A8
:102430008181853031F482810E946106882329F4EC
:102440000895843011F481E0089582E00895982F72
:102450008091C80085FFFCCF9093CE0080E090E093
:1024600008958091C80087FD03C02EEF3FEF0BC099
:102470008091C80087FD03C02FEF3FEF04C080911B
:10248000CE00282F30E0C9010895FB01DC0104C013
:102490008D910190801921F441505040C8F7881B5C
:1024A000990B0895FB01DC0102C001900D9241508F
:1024B0005040D8F70895DC0101C06D934150504061
:1024C000E0F70895DF93CF93CDB7DEB7FE013596E1
:1024D00061917191A0910202B091030213968C91C7
:1024E0001397886013968C93809102029091030257
:1024F000AF0174D0E0910202F09103022381277FA3
:102500002383CF91DF9108950F931F93CF93DF9390
:102510008C01E0910202F0910302838181FF21C0CE
:10252000C0E0D0E00DC0E0910202F09103022085EE
:102530003185BF01F9010995892B11F0CFEFDFEF4C
:10254000F80181918F01882371F7E0910202F091E7
:102550000302208531858AE0BF01F9010995892BA5
:1025600011F0CFEFDFEFCE01DF91CF911F910F91EF
:1025700008950F931F93CF93DF93EC01E091020234
:10258000F0910302838181FF21C000E010E00EC0C2
:10259000E0910202F091030220853185BF01F9012B
:1025A0000995892B11F00FEF1FEF2196FE01849101
:1025B000882371F7E0910202F091030220853185B2
:1025C0008AE0BF01F9010995892B11F00FEF1FEF88
:1025D000C801DF91CF911F910F9108952F923F92E3
:1025E0004F925F926F927F928F929F92AF92BF9223
:1025F000CF92DF92EF92FF920F931F93DF93CF93CF
:10260000CDB7DEB72B970FB6F894DEBF0FBECDBFA8
:102610003C012B015A01FC0117821682838181FD46
:1026200003C06FEF7FEFB9C19AE0892E1E010894B5
:10263000211C311CF3012381F20123FD859123FF2D
:1026400081912F01882309F4A5C1853239F423FD36
:10265000859123FF81912F01853221F490E0B30110
:10266000CCD1E8CF982FFF24EE249924FFE1FF1569
:10267000D0F09B3269F09C3228F4903259F09332BA
:1026800091F40EC09D3249F0903369F441E024C0CA
:1026900052E0F52A84E0F82A28C098E0F92A25C0FB
:1026A000E0E1FE2A22C0F7FC29C0892F80538A303E
:1026B00070F4F6FE05C0989C902C1124980E15C05D
:1026C000E89CE02C1124E80EF0E2FF2A0EC09E32B6
:1026D00029F4F6FC5FC140E4F42A07C09C3619F4E3
:1026E00050E8F52A02C0983649F4F20123FD95918D
:1026F00023FF91912F01992309F0B8CF892F855499
:10270000833018F08052833038F444E050E0A40E57
:10271000B51E5FE359830FC0933631F0933779F0DC
:10272000933509F052C01FC0F5018081898342E0D2
:1027300050E0A40EB51E610101E010E011C0F501EA
:10274000C080D180F6FC03C06FEF7FEF02C0692D1F
:1027500070E042E050E0A40EB51EC60143D18C01EA
:102760005FE7F52213C0F501C080D180F6FC03C0FD
:102770006FEF7FEF02C0692D70E042E050E0A40EE1
:10278000B51EC60124D18C0150E8F52AF3FE06C01F
:1027900018C080E290E0B30130D1EA948E2D90E031
:1027A00008171907B0F30DC0F601F7FC8591F7FE85
:1027B00081916F0190E0B30120D1E110EA940150C2
:1027C00010400115110581F7E2C0943611F09936D9
:1027D00061F5F7FE08C0F501208131814281538106
:1027E00084E090E00AC0F501808191819C0144273A
:1027F00037FD4095542F82E090E0A80EB91E9FE669
:10280000F92257FF09C050954095309521953F4FCB
:102810004F4F5F4FE0E8FE2ACA01B901A1012AE04B
:1028200030E017D1D82ED2183FC0953729F41F2D8C
:102830001F7E2AE030E01DC01F2D197F9F3661F0FA
:10284000903720F4983509F0A5C00FC0903739F0C3
:10285000983709F09FC004C028E030E00AC010613A
:1028600014FD146020E130E004C014FD166020E186
:1028700032E017FF08C0F501608171818281938188
:1028800044E050E008C0F50180819181BC0180E006
:1028900090E042E050E0A40EB51EA101DAD0D82E9F
:1028A000D2188FE7F82EF122F6FE0BC05EEFF5226C
:1028B000D91438F4F4FE07C0F2FC05C08FEEF822FC
:1028C00002C01D2D01C0192DF4FE0DC0FE01ED0D3D
:1028D000F11D8081803319F499EEF92208C01F5F41
:1028E000F2FE05C003C08F2D867809F01F5F0F2D03
:1028F000F3FC13C0F0FE0EC01E1510F09D2C0AC094
:102900009D2C9E0C911A1E2D05C080E290E0B30113
:1029100074D01F5F1E15C8F304C01E1510F4E11A11
:1029200001C0EE2404FF0EC080E390E0B30165D047
:1029300002FF1BC001FD03C088E790E00EC088E5E0
:1029400090E00BC0802F867881F001FF02C08BE2FF
:1029500001C080E2F7FC8DE290E0B3014ED005C0EB
:1029600080E390E0B30149D09A94D914C8F3DA9483
:10297000F101ED0DF11D808190E0B3013ED0DD202D
:10298000B1F705C080E290E0B30137D0EA94EE20C1
:10299000C9F750CEF30166817781CB012B960FB634
:1029A000F894DEBF0FBECDBFCF91DF911F910F9185
:1029B000FF90EF90DF90CF90BF90AF909F908F905F
:1029C0007F906F905F904F903F902F900895FC0103
:1029D0000590615070400110D8F7809590958E0F4A
:1029E0009F1F0895FC016150704001900110D8F7BD
:1029F000809590958E0F9F1F08950F931F93CF93EF
:102A0000DF938C01EB018B8181FF1BC082FF0DC026
:102A10002E813F818C819D812817390764F4E881DC
:102A2000F9810193F983E88306C0E885F985802F51
:102A30000995892B31F48E819F8101969F838E8326
:102A400002C00FEF1FEFC801DF91CF911F910F91CF
:102A50000895FA01AA27283051F1203181F1E89434
:102A60006F936E7F6E5F7F4F8F4F9F4FAF4FB1E081
:102A70003ED0B4E03CD0670F781F891F9A1FA11D7C
:102A8000680F791F8A1F911DA11D6A0F711D811D7D
:102A9000911DA11D20D009F468943F912AE0269F42
:102AA00011243019305D3193DEF6CF010895462FA1
:102AB0004770405D4193B3E00FD0C9F7F6CF462F82
:102AC0004F70405D4A3318F0495D31FD40524193EB
:102AD00002D0A9F7EACFB4E0A695979587957795A8
:102AE0006795BA95C9F700976105710508959B012F
:102AF000AC010A2E06945795479537952795BA95B8
:102B0000C9F7620F731F841F951FA01D0895F894C5
:022B1000FFCFF5
:102B12000001080000DC01030000000000457272A1
:102B22006F722052657472696576696E6720436FB1
:102B32006E66696775726174696F6E20446573634E
:102B4200726970746F722E0D0041747461636865EE
:102B52006420446576696365204E6F742061205657
:102B6200616C6964204D6F7573652E0D004572723C
:102B72006F722053657474696E6720446576696369
:102B82006520436F6E66696775726174696F6E2E38
:102B92000D00436F756C64206E6F74205365742052
:102BA200426F6F742050726F746F636F6C204D6F41
:102BB20064652E0D004D6F75736520456E756D65EC
:102BC20072617465642E0D000100020002000000B3
:102BD20000000000000000000000000005010000ED
:0C2BE20000000080060001000008004018
:00000001FF
