:10000000B0C00000CBC00000C9C00000C7C00000E5
:10001000C5C00000C3C00000C1C00000BFC00000D8
:10002000BDC00000BBC000002FC30000B7C000006F
:10003000B5C00000B3C00000B1C00000AFC00000F8
:10004000ADC00000ABC00000A9C00000A7C0000008
:10005000A5C00000D5C00000A1C000009FC00000E6
:100060009DC000009BC0000099C0000097C0000028
:1000700095C0000093C0000091C000008FC0000038
:100080008DC000008BC0000089C0000087C0000048
:1000900085C0000083C000001201100100000008AC
:1000A000EB03462002000102000109027000020178
:1000B00000C0320904000000010100000924010011
:1000C000011E0001010C24020101010002030000D5
:1000D00000092403020103000100090401000001DA
:1000E00002000009040101010102000007240101CE
:1000F0000101001724020102021005401F00112B0C
:100100000022560044AC0080BB000905010D00012F
:100110000100000725010100000004030904180381
:100120004400650061006E002000430061006D0026
:10013000650072006100000028034C005500460075
:100140004100200041007500640069006F0020003C
:100150004F00750074002000440065006D006F00C2
:10016000000011241FBECFEFD0E2DEBFCDBF11E0F3
:10017000A0E0B1E0EEE5FDE000E00BBF02C00790BB
:100180000D92A430B107D9F711E0A4E0B1E001C0AD
:100190001D92A231B107E1F78CD1DFC531CF1F939A
:1001A0008BB18F70806A8BB912E010936E00209132
:1001B000000130910101409102015091030160E47E
:1001C00072E48FE090E0A7D5215027BD14BD15BD86
:1001D00087B1806687B981EF8093900089E0809332
:1001E00091001F91089515BC1092910087B18F79ED
:1001F00087B9109204018BB18F7080618BB908951B
:100200001F920F920FB60F9211242F933F934F938B
:100210005F936F937F938F939F937091E90081E039
:100220008093E9008091E80082FF50C08091040132
:10023000882309F44BC08091F100282F8091F100B0
:10024000382F232F330F330B4091F100842F40912F
:10025000F100942F332727FD3095892F990F990BA3
:10026000482F552747FD5095CA01820F931F95953A
:100270008795682F8091E80085FD05C08091E80092
:100280008B778093E80080E890E028273927309327
:100290009900209398004827592750939B0040933A
:1002A0009A00613114F090EF0DC0693014F090EBBA
:1002B00009C0653014F090E305C0633014F090E19C
:1002C00001C090E08BB18F70982B9BB977707093C1
:1002D000E9009F918F917F916F915F914F913F9135
:1002E0002F910F900FBE0F901F9018951F93DF93C3
:1002F000CF9300D00F92CDB7DEB780910B018B303A
:1003000069F08C3020F4813009F0A2C02BC0813814
:1003100009F471C08F3F09F09BC017C010910A010A
:10032000113009F095C08091E800877F8093E80044
:100330002BD11092040180910C0190910D01892B19
:1003400009F486C01093040183C080910A01815290
:10035000823008F07DC08091E800877F8093E800BC
:1003600013D176C080910A01823209F071C0909158
:100370000D0180910E01813009F06AC0913009F0C1
:1003800067C08091E800877F8093E800CE010196E6
:1003900063E070E09FD28091E8008B778093E80063
:1003A0002B8130E040E050E0A901332722278A81E9
:1003B00090E0A0E0B0E0BA2FA92F982F8827282B33
:1003C000392B4A2B5B2B898190E0A0E0B0E0282BF1
:1003D000392B4A2B5B2B2093000130930101409372
:1003E00002015093030160E472E48FE090E093D443
:1003F000215027BD2DC080910A01823249F590918C
:100400000D0180910E01813019F5913009F520918F
:100410000001309101014091020150910301CA0194
:10042000AA27BB278B83BB27A52F942F832F8A83D3
:1004300029838091E800877F8093E800CE010196B0
:1004400063E070E0E9D18091E8008B778093E80069
:100450000F900F900F90CF91DF911F91089581E041
:1004600060E446E55CD080FD02C090E901C090E602
:100470008BB18F70982B9BB9089584B7877F84BF09
:1004800088E10FB6F89480936000109260000FBE70
:1004900080E090E020E80FB6F8942093610080930C
:1004A00061000FBE8AB1806F8AB98BB18F708BB932
:1004B000D5C0E3DF8BB18F7080618BB9789418D48D
:1004C000FECFDA01923049F0933061F09130F9F4C7
:1004D000E8E9F0E022E130E01EC0EAEAF0E020E7DF
:1004E00030E019C0813049F0813018F0823079F461
:1004F00008C0EAE1F1E0849107C0EEE1F1E0849107
:1005000003C0E8E3F1E08491282F30E004C0E0E08C
:10051000F0E020E030E0ED93FC93C9010895382F1E
:10052000282F2CC02093E900231721F4762F942F35
:1005300050E006C07091EC009091ED005091F000F9
:1005400091FF1BC08091EB008E7F8093EB00809128
:10055000ED008D7F8093ED008091EB0081608093B2
:10056000EB007093EC009093ED005093F0008091BD
:10057000EE0087FD02C080E008952F5F273090F2E3
:100580003093E90081E0089580910A0188239CF46A
:1005900004C0809109018823B9F08091E80082FFAE
:1005A000F8CF8091E8008B778093E80008958091E0
:1005B0000901882349F08091E80080FFF8CF8091FD
:1005C000E8008E778093E8000895EF92FF920F93F2
:1005D0001F934DD054D008ED10E0F80180818F7743
:1005E000808380818068808380818F7D8083E7ED38
:1005F000F0E080818068808319BC1092090110921C
:100600000501109207011092060180EEE82EF12CF0
:10061000F70180818B7F8083F801808181608083F6
:1006200080E060E042E07BDFE1EEF0E080818E7F01
:100630008083E2EEF0E08081816080838081886049
:100640008083F70180818E7F8083F80180818061C3
:1006500080831F910F91FF90EF900895E7EDF0E0F8
:1006600080818160808381E080930801AECFE8EDD6
:10067000F0E080818C7F80831092E20008951092D8
:10068000DA001092E10008951F920F920FB60F92B8
:100690000BB60F9211242F933F934F935F936F9359
:1006A0007F938F939F93AF93BF93EF93FF9380912B
:1006B000E10082FF0AC08091E20082FF06C08091C3
:1006C000E1008B7F8093E10012D38091DA0080FFFC
:1006D0001DC08091D80080FF19C08091DA008E7F04
:1006E0008093DA008091D90080FF0CC08CE089BD36
:1006F0008EE089BD09B400FEFDCF81E08093090141
:100700004EDD04C019BC109209016DDD8091E1003D
:1007100080FF18C08091E20080FF14C08091E20049
:100720008E7F8093E2008091E20080618093E200FE
:100730008091D80080628093D80019BC85E08093B6
:100740000901D5D28091E10084FF2DC08091E200A3
:1007500084FF29C08CE089BD8EE089BD09B400FE0C
:10076000FDCF8091D8008F7D8093D8008091E100EB
:100770008F7E8093E1008091E2008F7E8093E20083
:100780008091E20081608093E200809105018823DE
:1007900031F48091E30087FD02C081E001C084E074
:1007A00080930901A4D28091E10083FF22C080914F
:1007B000E20083FF1EC08091E100877F8093E1000B
:1007C00082E080930901109205018091E1008E7F03
:1007D0008093E1008091E2008E7F8093E20080911F
:1007E000E20080618093E20080E060E042E097DE1A
:1007F0007ED2FF91EF91BF91AF919F918F917F91A9
:100800006F915F914F913F912F910F900BBE0F9081
:100810000FBE0F901F9018959C01409110015091B0
:1008200011014617570718F4F90190E03DC0611512
:10083000710511F0AB01F8CF8091E8008E778093BD
:10084000E80040E050E0F0CF809109018823F1F109
:100850008530F1F18091E80083FF02C081E00895C6
:100860008091E80082FD2CC08091E80080FF1CC0D0
:100870002091F2003091F30007C081918093F10044
:10088000415050402F5F3F4F4115510519F028301E
:10089000310598F390E02830310509F491E080911A
:1008A000E8008E778093E8004115510569F6992399
:1008B00059F606C080910901882341F0853041F046
:1008C0008091E80082FFF6CF80E0089582E00895ED
:1008D00083E008959C016115710529F48091E80079
:1008E0008B778093E800F90122C080910901882369
:1008F00071F1853071F18091E80083FF02C081E0E1
:1009000008958091E80082FFF0CF06C08091F10049
:1009100081936150704031F08091F2009091F3002A
:10092000892BA1F78091E8008B778093E80061150F
:100930007105D9F606C080910901882341F0853000
:1009400041F08091E80080FFF6CF80E0089582E0DA
:10095000089583E008959C01409110015091110188
:100960004617570718F4F90190E040C0611571056A
:1009700011F0AB01F8CF8091E8008E778093E8000A
:1009800040E050E0F0CF80910901882309F440C095
:10099000853009F43FC08091E80083FF02C081E008
:1009A00008958091E80082FD2DC08091E80080FFCD
:1009B0001DC02091F2003091F30008C08491809313
:1009C000F1003196415050402F5F3F4F4115510586
:1009D00019F02830310590F390E02830310509F402
:1009E00091E08091E8008E778093E80041155105F1
:1009F00051F6992341F606C080910901882341F000
:100A0000853041F08091E80082FFF6CF80E00895C4
:100A100082E0089583E008950F931F93DF93CF93AF
:100A2000CDB7DEB7AC970FB6F894DEBF0FBECDBF23
:100A3000EAE0F1E08091F100819321E0E231F207F8
:100A4000C9F754DC8091E80083FF38C180910A0126
:100A500030910B01353009F487C0363040F4313025
:100A6000C9F1313070F0333009F028C133C038306B
:100A700009F4F6C0393009F405C1363009F01EC159
:100A800097C0803821F0823809F018C108C09091D1
:100A9000060180910701882399F0926011C080912E
:100AA0000E0187708093E9008091EB0090E025E0D3
:100AB000969587952A95E1F7982F91701092E90005
:100AC0008091E800877F8093E8009093F100109276
:100AD000F100D1C0882319F0823009F0EFC090E016
:100AE0008F719070009721F0029709F0E7C00CC059
:100AF00080910C01813009F0E1C010920701333080
:100B000069F5809307012AC080910C01882331F593
:100B100020910E01277009F4D1C02093E900809143
:100B2000EB0080FF1BC0333021F48091EB0080622A
:100B300013C08091EB0080618093EB0081E090E036
:100B400002C0880F991F2A95E2F78093EA0010925D
:100B5000EA008091EB0088608093EB001092E9003E
:100B60008091E800877F8AC0882309F0A7C0109190
:100B70000C011F770FB7F8948091E800877F80936E
:100B8000E80002DD8091E80080FFFCCF8091E30067
:100B90008078812B8093E30080688093E3001123A9
:100BA00011F482E001C083E0809309010FBF86C089
:100BB0008058823008F082C080910C0190910D0124
:100BC00023E08C3D920709F033C083E08C838AE2F6
:100BD0008B837FB7F894DE0115966EE040E050E01D
:100BE00011E2E62FF0E010935700849140FF03C01C
:100BF00082958F706F5F8F70282F30E08A3018F0E9
:100C0000C901C79602C0C901C0968D939D934F5FDD
:100C10005F4F4431510529F77FBF8091E800877FFE
:100C20008093E800CE0103966AE270E0F5DD12C021
:100C300060910E01AE014F5F5F4F43DCBC01009736
:100C400009F43CC08091E800877F8093E8008981A7
:100C50009A8181DE8091E8008B778093E8002EC036
:100C6000803861F58091E800877F8093E80080916B
:100C700005018093F1008091E8008E778093E80071
:100C800083DC1CC08823D1F490910C019230B0F425
:100C90008091E800877F8093E8009093050174DCE1
:100CA00080910501882331F48091E30087FD02C023
:100CB00081E001C084E080930901D1DB8091E800EC
:100CC00083FF0AC08091EB0080628093EB008091EB
:100CD000E800877F8093E800AC960FB6F894DEBFFB
:100CE0000FBECDBFCF91DF911F910F910895089551
:100CF0001F9380910901882361F01091E9001092FF
:100D0000E9008091E80083FF01C086DE1770109330
:100D1000E9001F910895A1E21A2EAA1BBB1BFD0139
:100D20000DC0AA1FBB1FEE1FFF1FA217B307E407CA
:100D3000F50720F0A21BB30BE40BF50B661F771F22
:100D4000881F991F1A9469F7609570958095909502
:0E0D50009B01AC01BD01CF010895F894FFCFC7
:040D5E0080BB000056
:00000001FF
