:1000000068C1000084C1000082C1000080C10000FE
:100010007EC100007CC100007AC1000078C10000F0
:1000200076C1000074C100008CC7000070C10000E0
:100030006EC100006CC100006AC1000068C1000010
:1000400066C1000064C1000062C1000060C1000020
:100050005EC100005CC100005AC1000058C1000030
:1000600056C1000054C1000052C1000050C1000040
:100070004EC100004CC100004AC1000048C1000050
:1000800046C1000044C1000042C1000040C1000060
:100090003EC100003CC100001B5B33316D446576FE
:1000A00020456E756D204572726F720D0A202D2DE0
:1000B000204572726F7220436F64652025640D0ABB
:1000C000202D2D20537562204572726F7220436F70
:1000D00064652025640D0A202D2D20496E2053745F
:1000E0006174652025640D0A1B5B33376D001B5B53
:1000F00033316D486F7374204D6F646520457272A3
:100100006F720D0A202D2D204572726F7220436F81
:1001100064652025640D0A1B5B33376D004A6F79D7
:10012000737469636B20456E756D65726174656487
:100130002E0D0A00202D2D204572726F7220436F04
:1001400064653A2025640D0A1B5B33376D004E6FE2
:100150007420612076616C6964204A6F79737469D8
:10016000636B2E1B5B33376D001B5B33316D526548
:10017000706F7274205061727365204572726F7275
:100180002E0D0A0050726F63657373696E672048A5
:100190004944205265706F7274202853697A652033
:1001A0002564204279746573292E0D0A001B5B3388
:1001B000316D436F6E74726F6C204572726F722076
:1001C0002853657420436F6E666967757261746940
:1001D0006F6E292E0D0A202D2D204572726F722010
:1001E000436F64653A2025640D0A1B5B33376D004D
:1001F000202D2D204572726F7220436F64653A2066
:1002000025640D0A1B5B33376D001B5B33316D4971
:100210006E76616C6964204465766963652E0D0AAB
:10022000001B5B33316D436F6E74726F6C204572CF
:10023000726F72202847657420436F6E6669677518
:10024000726174696F6E292E0D0A004765747469B6
:100250006E6720436F6E66696720446174612E0D7E
:100260000A001B5B33326D44657669636520556E09
:1002700061747461636865642E0D0A1B5B33376DAE
:10028000001B5B33326D446576696365204174748D
:1002900061636865642E0D0A1B5B33376D001B5B61
:1002A00033366D4A6F79737469636B204849442013
:1002B00050617273657220486F73742044656D6F6E
:1002C0002072756E6E696E672E0D0A1B5B33376D7B
:1002D000000011241FBECFEFD0E2DEBFCDBF11E082
:1002E000A0E0B1E0E8E1F4E200E00BBF02C007905B
:1002F0000D92A231B107D9F715E0A2E1B1E001C03A
:100300001D92AF30B107E1F70AD20C940A1278CEF1
:10031000BF92CF92DF92EF92FF920F931F93CF93F2
:10032000DF937C0110E000E09AE2B92E80E1C82E54
:10033000D12C55C00B9DE0011124CA5EDE4F89858A
:100340009A8589309105A9F48A81882309F046C0ED
:10035000C701BE010E94910A882309F43FC08AA107
:100360009BA1ACA1BDA10097A105B105B9F110EF0A
:1003700035C0019799F58B859C85C097029770F5DC
:100380008A81882359F5C701BE010E94910A8823FA
:1003900029F188859601281B3109C9012AA13BA1B1
:1003A0004CA15DA104C0220F331F441F551F8A9525
:1003B000D2F72115310591F08B859C85C09739F4D2
:1003C0001216130614F080E208C080E106C012166F
:1003D000130614F080E401C080E8182B0F5F8091B1
:1003E0001501081708F4A6CF8BB18F70182B1BB915
:1003F000DF91CF911F910F91FF90EF90DF90CF9001
:10040000BF900895CF92DF92EF92FF920F931F93C8
:10041000DF93CF93CDB7DEB7CDB6DEB68091FA04C9
:100420008B3009F03EC081E08093A7008091A90045
:100430008F7B8093A9008091A60080FF2DC08091C2
:10044000A60085FF24C0EEB68091F6009091F700DB
:100450002DB73EB7281B390B0FB6F8943EBF0FBE21
:100460002DBF0DB71EB70F5F1F4F6091F600709143
:10047000F700C80140E050E0F7D5C80149DF2C2D56
:100480003E2DC9010FB6F8949EBF0FBE8DBF80915F
:10049000A6008E778093A6008091A9008064809347
:1004A000A9000FB6F894DEBE0FBECDBECF91DF918E
:1004B0001F910F91FF90EF90DF90CF900895909152
:1004C000FA042DB73EB7285030400FB6F8943EBF1F
:1004D0000FBE2DBFEDB7FEB7319628E930E0ADB7BE
:1004E000BEB712963C932E93119782831382648336
:1004F0001582968317820E941A0F8BB18F708069C4
:100500008BB92DB73EB7285F3F4F0FB6F8943EBF6B
:100510000FBE2DBF08951F93182FEED400D000D02A
:10052000EDB7FEB731968EEE90E0ADB7BEB712963E
:100530009C938E931197128313820E941A0F8BB192
:100540008F7080698BB90F900F900F900F90FFCF35
:1005500082E692E00E943C0F8BB18F7080618BB974
:10056000089581E892E00E943C0F8BB18F70806A01
:100570008BB908951F938BE492E00E943C0FFBD04F
:10058000182F8823C1F0813019F481E292E002C073
:100590008AE092E00E943C0F00D000D0EDB7FEB799
:1005A000319680EF91E0ADB7BEB712969C938E93D3
:1005B0001197128313C081E07DD7282F8823D1F0B3
:1005C00000D000D0EDB7FEB731968DEA91E0ADB71F
:1005D000BEB712969C938E931197228313820E942A
:1005E0001A0F8BB18F7080698BB90F900F900F909D
:1005F0000F9049C000D000D084E891E0EDB7FEB77D
:10060000928381838091EE049091EF04948383839D
:100610000E941A0F0F900F900F900F905ED1182F1D
:10062000882349F189E691E00E943C0F80911501F1
:10063000882329F48EE491E00E943C0F15C000D07D
:1006400000D0EDB7FEB7319684E391E0ADB7BEB709
:1006500012969C938E931197128313820E941A0F05
:100660000F900F900F900F908BB18F7080698BB9A6
:1006700080E020D708C08DE191E00E943C0F8BB153
:100680008F7080668BB91F91089584B7877F84BF70
:1006900038E10FB6F89430936000109260000FBEFE
:1006A00080E090E020E80FB6F894209361008093FA
:1006B00061000FBE83E390E09093CD008093CC0067
:1006C00086E08093CA001092C8003093C900539A04
:1006D0005A9A8AB1806F8AB98BB18F708BB903D463
:1006E000EBEFF4E0F0930A05E0930905F0930C05B5
:1006F000E0930B058EE0DF011D928A95E9F783E018
:100700008093FE048CEF9EE0909304058093030594
:1007100086E09FE090930605809305050895B5DF78
:100720008EE992E00E943C0F8BB18F7080618BB993
:10073000789468DEE4D6FDCFFC018181843029F411
:100740008581833011F480E0089582E00895FC01F2
:100750008181853011F480E00895843011F082E0C9
:10076000089581E00895FC018181813211F082E0D9
:10077000089580E008958F929F92AF92BF92CF929A
:10078000DF92EF92FF920F931F93DF93CF93CDB73A
:10079000DEB7C450D2400FB6F894DEBF0FBECDBF57
:1007A000AE014B5F5F4F5A83498383E0C82ED12C43
:1007B000CC0EDD1E81E0B60120E032E0F0D48530C1
:1007C00029F0863079F0882319F00EC082E04DC000
:1007D00000E010E08824992456017E010894E11C71
:1007E000F11C04C083E041C081E03FC00115110548
:1007F00039F0C501B70147EA53E08DD48823B9F039
:10080000C501B7014CE953E086D4882369F5198105
:100810000A81C501B70143EB53E07DD4882321F55C
:10082000812F902F9C01890189809A80DFCFC98018
:10083000DA80F601228127FFD9CFC114D104B1F2A9
:100840000481158181E063E040E1EE245BD2F60192
:1008500086818093AD00F401878190859093EF04A9
:100860008093EE0480E001C084E0CC5FDD4F0FB6E2
:10087000F894DEBF0FBECDBFCF91DF911F910F91D6
:10088000FF90EF90DF90CF90BF90AF909F908F90B0
:100890000895DC011696ED91FC9117970BC08181AC
:1008A0009281019721F483819481049739F0058026
:1008B000F681E02D309799F780E0089519968D9193
:1008C0009C911A978930910521F020E030E0019742
:1008D00011F421E030E0822F0895EF92FF920F9300
:1008E0001F93DF93CF93CDB7DEB7EDB6FEB6209161
:1008F000EE043091EF048DB79EB7821B930B0FB6B9
:10090000F8949EBF0FBE8DBF0DB71EB70F5F1F4F70
:1009100081E88093F20486E08093F30480E092E221
:100920009093F5048093F4041092F7041092F60467
:100930003093F9042093F8041092A700C801B3D4AF
:10094000882311F082E00AC06091EE047091EF04F8
:10095000C80145E151E04CD6811181E00FB6F89411
:10096000FEBE0FBEEDBECF91DF911F910F91FF90A4
:10097000EF900895982F20919E003091A0008091D3
:10098000A0008F7D8093A00080919F008F7D809339
:100990009F0080919E00816080939E0028C080917E
:1009A0009F0085FF06C080919F008F7D80939F00F0
:1009B00091508091FA04813011F491E01AC0809135
:1009C000A60084FF09C01092F5008091A6008F7EDA
:1009D0008093A60092E00DC08091A60081FF07C021
:1009E0008091A6008D7F8093A60093E002C099239A
:1009F000B1F620FD05C080919E008E7F80939E0001
:100A000035FF05C08091A00080628093A000892FEF
:100A1000089560919E008091A0008D7F8093A0003A
:100A200080919E00826080939E0080919E0081FD57
:100A3000FCCF80919E00816080939E001092F00414
:100A40003091A0008091A0008F7D8093A0008091C4
:100A50009F008F7D80939F002AE040ED57E08091BA
:100A60009F0085FF0BC080919F008F7D80939F002A
:100A700080919F008D7F80939F0005C0CA010197E0
:100A8000F1F7215061F735FF05C08091A000806229
:100A90008093A00060FD05C080919E008E7F8093B2
:100AA0009E008091A00082608093A0000895EF9244
:100AB0000F931F93DF93CF93CDB7DEB728970FB671
:100AC000F894DEBF0FBECDBF8091FA04853009F4E3
:100AD00094C0863068F48230B9F1833018F48823EA
:100AE000A1F004C18330D1F1843009F0FFC05DC0B2
:100AF000873009F49BC0873008F48AC0883009F435
:100B0000B3C0893009F0F2C0D7C000911301109131
:100B100014010115110509F4E9C081E02BDF682FEC
:100B2000882331F0809112018093FA0491E0DAC0B9
:100B3000C80101979093140180931301892B09F048
:100B4000D5C08091120107C088EE93E09093140104
:100B50008093130183E08093FA04C8C0809113014D
:100B600090911401019790931401809313010196C1
:100B700029F080ED97E00197F1F7B8C07798809160
:100B8000D80080618093D8008091DD008B7F8093B6
:100B9000DD008091D70080618093D7008091DD00D7
:100BA00082608093DD0084E0D6CF80919F0080FF3B
:100BB0009DC080919F008E7F80939F0080919F00B9
:100BC0008D7F80939F008091DF008D7F8093DF0079
:100BD0008091DE0082608093DE0080919E008160C3
:100BE00080939E00EDD01092FA0484E690E09093FA
:100BF00014018093130185E05CC00BDF1092FA04AE
:100C000088EC90E0909314018093130186E051C02A
:100C100080E060E040E020E000E410E0EE2472D0EC
:100C20008091AC0087FF5CC087E095CFA2EFB4E075
:100C3000E8E0F1E088E001900D928150E1F7CE010B
:100C4000019631D3682F882309F048C088858093A6
:100C50001001DFDE1092FA0488EC90E0909314010A
:100C60008093130188E025C00091100180E060E0CE
:100C700040E020E010E0EE2445D08091AC0087FFFA
:100C80002FC0A2EFB4E0E0E0F1E088E001900D9227
:100C90008150E1F780E090E006D3682F8823F1F4DB
:100CA0001092FA0484E690E090931401809313016B
:100CB00089E0809312011AC081E08093A1008AE04C
:100CC0008093FA0457DC12C0892FF9DB8091DD0094
:100CD00081608093DD003CDCB6D008C093E002C0A8
:100CE00094E060E08091FA04813071F728960FB6A5
:100CF000F894DEBF0FBECDBFCF91DF911F910F9152
:100D0000EF900895EF920F931F93E82F7E2D629539
:100D1000660F660F607C642B2F70622B382F726019
:100D200045C03093A7003E17A1F488E090E020E092
:100D300003C02F5F880F991F8017910710F425308B
:100D4000C1F7922F9295907F972B562F40E020E08D
:100D500008C05091AA009091AB004091AD00209145
:100D6000AE0091FF22C08091A9008E7F8093A900E0
:100D70008091AB008D7F8093AB008091A900816052
:100D80008093A9005093AA009093AB004093AD00CC
:100D90002093AE008091A90080628093A900809189
:100DA000AC0087FD02C080E007C03F5F373008F429
:100DB000B8CFE093A70081E01F910F91EF900895C5
:100DC0001092F80090E09093A7001092AE0010925D
:100DD000A6001092AB008091A9008E7F8093A9009D
:100DE0009F5F973081F708954091A2005091A30032
:100DF00024E68091AA008073803129F48091A600B6
:100E000080FF05C01EC08091A60082FD1AC080919F
:100E1000A60081FF02C081E008958091FA0481302C
:100E200011F482E008958091A2009091A3008417AC
:100E30009507F9F2222311F483E008952150AC01C3
:100E4000D8CF80E0089570D077D08091D8008F7788
:100E50008093D8008091D80080688093D8008091DA
:100E6000D8008F7D8093D8008091D7008F778093B2
:100E7000D7008CE089BD8EE089BD09B400FEFDCFAE
:100E800081E08093FA041092F00480E480931001D2
:100E90008091D80080648093D8008091DD008160CB
:100EA0008093DD008091DD0084608093DD0080917F
:100EB000D7008F7E8093D7006F9A779A8091DE005B
:100EC00081608093DE008091DE0084608093DE008C
:100ED0008091E0008E7F8093E0008091D800806157
:100EE0008093D8000895E7EDF0E0808181608083F1
:100EF00081E08093F104A7CF17D01ED0E0EEF0E0A0
:100F0000808181608083A8EDB0E08C918F778C9395
:100F100019BCE7EDF0E080818E7F80838C918F7E1D
:100F20008C931092F1040895E8EDF0E080818C7FBD
:100F300080831092A00008951092DA0010929F0012
:100F400008951F920F920FB60F920BB60F921124B5
:100F50002F933F934F935F936F937F938F939F93C1
:100F6000AF93BF93EF93FF9380919F0085FF0AC0DB
:100F70008091A00085FF06C080919F008F7D8093A7
:100F80009F0067D180919F0081FF15C08091A000D4
:100F900081FF11C080919F008D7F80939F00809181
:100FA0009F008E7F80939F008091A0008D7F809313
:100FB000A000CEDA48DF8091DF0081FF15C080916C
:100FC000DE0081FF11C08091DF008D7F8093DF0004
:100FD00077988091DD0081608093DD0080E09BDA6E
:100FE000B7DA81E08093FA048091DF0080FF17C0B8
:100FF0008091DE0080FF13C08091DF008E7F8093A0
:10100000DF008091DE008E7F8093DE00AADA80917F
:10101000A00082608093A00082E08093FA04809117
:10102000DF0082FF0EC08091DE0082FF0AC0809147
:10103000DF008B7F8093DF0082E060E040DA88DAB7
:1010400002DFFF91EF91BF91AF919F918F917F91BF
:101050006F915F914F913F912F910F900BBE0F9029
:101060000FBE0F901F901895BF92CF92DF92EF9214
:10107000FF920F931F93CF93DF93182F092F7B01BC
:101080006A018091AA008F7C80618093AA00ACDE07
:10109000B82E8823A9F5812F902F9C01E901C11456
:1010A000D10439F0F60180819181E81AF90AC80F5C
:1010B000D91F00E010E021C08091A60085FD15C079
:1010C0008091A6008E778093A600C114D10449F0C8
:1010D000F60180819181800F911F9183808384E04C
:1010E00010C082DE882349F00CC08091AF00899344
:1010F0000894E108F1080F5F1F4FE114F104E1F6D5
:101100008B2DDF91CF911F910F91FF90EF90DF908A
:10111000CF90BF900895AF92BF92CF92DF92EF929F
:10112000FF920F931F93CF93DF937C01EB016A0132
:1011300024C0E881F981BE2EAF2E808190E0980115
:101140008017910708F49C01E20FF31FF983E883ED
:10115000F70180819181821B930B91838083888129
:101160009981F6010995823041F0813069F4B882A5
:10117000A982F7011183008307C0F7010081118163
:1011800001151105B1F682E0DF91CF911F910F910A
:10119000FF90EF90DF90CF90BF90AF900895CF92E7
:1011A000DF92EF92FF920F931F93DF93CF93CDB710
:1011B000DEB729970FB6F894DEBF0FBECDBF6B0127
:1011C0008A01790190E89093F20496E09093F304F9
:1011D00090E0019792609093F5048093F40410924C
:1011E000F7041092F60489E090E09093F90480935C
:1011F000F8041092A700CE01019655D0282F88231D
:10120000C1F48B819C81F60191838083E816F906F5
:1012100010F425E00EC09093F9048093F804C801FF
:1012200042D0282F882329F4F8018181823009F0E7
:1012300026E0822F29960FB6F894DEBF0FBECDBFF1
:10124000CF91DF911F910F91FF90EF90DF90CF90A2
:10125000089508951F93CF93DF93182FC8EED3E01E
:1012600009C081E087DB8823D1F4209711F484E062
:1012700016C02197112329F48091A60083FFF1CF96
:101280000DC0113029F48091A60080FFEACF06C07E
:10129000123039F78091A60082FFE3CF80E0DF9122
:1012A000CF911F910895FF920F931F93CF93DF93D8
:1012B000182F092FF0909E00C091F804D091F904E6
:1012C00080919E00816080939E0081E053DB982F87
:1012D000882309F0D7C08091AA008F7C8093AA0050
:1012E0001092F5008091A6008F7E8093A6008091D9
:1012F000A9008F7B8093A900E2EFF4E081918093B5
:10130000AF0084E0EA3FF807C9F78091A60087772D
:101310008093A60080E09EDF982F882309F0B2C05A
:101320008091A90080648093A90081E023DB982F3D
:10133000882309F0A7C0212F302FC9018C0180918B
:10134000F20487FF52C08091AA008F7C8061809355
:10135000AA000115110569F52EC08091A9008F7BA7
:101360008093A90081E076DF982F882309F08AC056
:101370008091F6009091F700892B49F4C0E0D0E00D
:1013800006C08091AF00F80181938F012197809171
:10139000F6009091F700892B11F0209791F780913A
:1013A000A90080648093A9008091A6008E77809325
:1013B000A600209791F68091AA008F7C806280938E
:1013C000AA008091A9008F7B8093A90082E042DF70
:1013D000982F882309F056C08091A6008B778093C0
:1013E000A60082E037DF982F4DC001151105A9F145
:1013F0008091AA008F7C80628093AA008091A900CE
:101400008F7B8093A9001DC082E024DF982F882362
:10141000C9F580911001282F30E007C0F8018191B3
:101420008F018093AF00219739F08091F600909161
:10143000F7008217930790F38091A6008B77809333
:10144000A600209709F782E005DF982F8823D1F4C2
:101450008091A90080648093A9008091AA008F7C6C
:1014600080618093AA008091A9008F7B8093A9005E
:1014700081E0F0DE982F882329F48091A6008E77F2
:101480008093A6008091A90080648093A900F0FC5D
:1014900005C080919E008E7F80939E0081E08093A6
:1014A000A8001092A800892FDF91CF911F910F9172
:1014B000FF9008951F93182F1092F20489E08093F3
:1014C000F3041093F4041092F5041092F7041092B0
:1014D000F6041092F9041092F8041092A70080E02C
:1014E00090E0E1DE882349F41093F004112311F415
:1014F0009AE001C09BE09093FA041F910895FF9237
:101500000F931F9307EA10E0F801F080F7E0FF2245
:10151000F8011082CCDAF801F0821F910F91FF9050
:101520000895CF92DF92EF92FF920F931F93CF9384
:10153000DF936C01EB016115710509F44FC028853B
:10154000E880F9809D81992341F0F6018081981708
:1015500009F044C00894C11CD11C022F10E08AA1DC
:101560009BA1ACA1BDA18EA39FA3A8A7B9A71AA2B6
:101570001BA21CA21DA241E050E060E070E029C067
:10158000F70193E0F695E7959A95E1F7EC0DFD1DCF
:10159000808190E097012770307002C09595879503
:1015A0002A95E2F780FF0CC08AA19BA1ACA1BDA146
:1015B000842B952BA62BB72B8AA39BA3ACA3BDA3EF
:1015C0000894E11CF11C440F551F661F771F015042
:1015D000104001151105A1F681E001C080E0DF9106
:1015E000CF911F910F91FF90EF90DF90CF900895D2
:1015F0002F923F924F925F926F927F928F929F9223
:10160000AF92BF92CF92DF92EF92FF920F931F9310
:10161000DF93CF93CDB7DEB7C559D0400FB6F8945E
:10162000DEBF0FBECDBFCF57DF4F99838883C15830
:10163000D040CD57DF4F79836883C358D0401A011B
:1016400020E9822E23E0922E840E951E89ED93E0F0
:10165000DA01FC011D923197E9F7FE01FB968CE15E
:10166000DF011D928A95E9F787E0D4011D928A95E2
:10167000E9F7DA01A157BC4F81E08C939A01275B0F
:101680003C4FE7963FAF2EAFE797405B5C4FE59648
:101690005FAF4EAFE597C10188579C4FEF969FAF64
:1016A0008EAFEF976F01AA24BB24ED961FAEED9786
:1016B000EB961CAE1DAE1EAE1FAEEB974424552418
:1016C0003201F101EA52FC4FC657DF4FF983E8833C
:1016D000CA58D040CC56DF4FD982C882C459D040B6
:1016E0009601245E3F4FC457DF4F39832883CC587F
:1016F000D040A10148525C4FC257DF4F5983488305
:10170000CE58D040C057DF4FB983A883C059D040CE
:10171000C401CE56DF4F8882C259D040CD56DF4F2C
:101720009883C359D0403EC3CF57DF4FA881B981BA
:10173000C158D0404D91CF57DF4FB983A883C158CE
:10174000D040CD57DF4FE881F981C358D040319761
:10175000CD57DF4FF983E883C358D040242F30E0C2
:10176000C158DF4F39832883CF57D0402370307062
:101770002230310511F12330310539F021303105A6
:10178000A9F1EE24FF2487014FC0CF57DF4FA88176
:10179000B981C158D040ED90FD900D911D91CF576A
:1017A000DF4FB983A883C158D040CD57DF4FE881C0
:1017B000F981C358D040349731C0CF57DF4FA8814B
:1017C000B981C158D0408D919D91CF57DF4FB983DA
:1017D000A883C158D0407C0100E010E0CD57DF4F16
:1017E000E881F981C358D040329718C0CF57DF4FF6
:1017F000A881B981C158D0408D91CF57DF4FB983AF
:10180000A883C158D040E82EFF2400E010E0CD5757
:10181000DF4FE881F981C358D0403197CD57DF4F72
:10182000F983E883C358D040C158DF4F888199813C
:10183000CF57D0408C7F90708436910509F4DBC07F
:101840008536910574F58432910509F4BBC0853263
:1018500091059CF48830910509F437C189309105D0
:1018600024F4049709F086C298C08431910509F4E4
:10187000A3C0489709F07EC247C08433910509F49C
:10188000A9C08533910524F4889709F073C238C143
:101890008434910509F4A4C08435910509F06AC225
:1018A000A7C08439910509F4B1C085399105A4F424
:1018B0008038910569F1813891052CF484379105C0
:1018C00009F058C2A0C08438910509F4A3C080393A
:1018D000910509F04FC21CC0803B9105C9F0813BC6
:1018E00091054CF4803A910509F412C1843A9105AE
:1018F00009F040C22AC0843B910509F43EC0803CF7
:10190000910509F037C263C1F5012701380133C2DF
:10191000CB57DF4FC882C558D040CA57DF4FD88257
:10192000C658D040EC961FAEEC974C7FC957DF4F9E
:101930004883C758D040970121703070C857DF4F97
:1019400039832883C858D0400DC2C457DF4F48811F
:101950005981CC58D040C416D50611F481E032C26A
:10196000D6015C96F6018AE201900D928150E1F772
:101970008CE190E0C80ED91EFDC1CC56DF4FA88186
:10198000B981C459D040CA16DB0611F482E01AC2EC
:10199000E4EEFFEFCE0EDF1EEDC12330310531F452
:1019A000C801AA27BB27F60192838183D60112962C
:1019B000FC92EE921197DEC1F601E286F38604876F
:1019C0001587D8C1D6011E96ED92FD920D931C93FA
:1019D0005197D0C1F601E28AF38A048B158BCAC1F4
:1019E000D6015696ED92FD920D931C935997C2C164
:1019F000F601E186BFC1D6011596ED92FD920D93D9
:101A00001C931897B7C1F601E082B4C1D6015A966B
:101A1000EC92B0C13E2DF601E38EC257DF4FA88194
:101A2000B981CE58D0408C91882309F440C0C0576A
:101A3000DF4FE881F981C059D0402081CE56DF4F79
:101A40008881C259D040CD56DF4F9881C359D040CC
:101A5000DC01E0E010C08C911796831759F487E001
:101A6000E89F4001112420E933E0820E931E820C8E
:101A7000931C1DC0EF5FE21770F32A3011F487E06A
:101A8000A1C187E0289F4001112440E953E0840E62
:101A9000951E820C931C2F5FC057DF4FA881B98120
:101AA000C059D0402C93F40111928A95E9F7E1E0F6
:101AB000C257DF4FA881B981CE58D040EC93D601F0
:101AC0005B968C91F401808355C1ED96FFADED9747
:101AD000F83011F486E076C1ED962FADED97E22F48
:101AE000F0E0EE0FFF1F41E050E04C0F5D1FE40FF0
:101AF000F51FF182E0822F5FED962FAFED973AC18F
:101B0000F501EB96ECAEFDAE0EAF1FAFEB9733C118
:101B1000A114B10429F4E796EEADFFADE79715C027
:101B2000E596EEADFFADE5970AC0EF968EAD9FADA1
:101B3000EF97E817F90711F485E044C137968581DE
:101B40009681892B91F7B682A582E082D601119603
:101B50008D919C91129792838183ED96BFADED9705
:101B6000BB2309F189819A8194838383DE011196D5
:101B7000ED964FADED97242F30E0220F331F2A0F43
:101B80003B1F06C012968D919C9113978D939D9348
:101B9000A217B307B9F7ED969FADED979150ED966B
:101BA0009FAFED97E8C0EB962CAD3DAD4EAD5FAD70
:101BB000EB97241535054605570508F4DCC054821B
:101BC00043820894411C511C611C711CD4C0A11497
:101BD000B10411F484E0F6C0D5011596ED91FC91A5
:101BE0001697C9C0DE015996CB57DF4F8881C5587B
:101BF000D040CA57DF4F9881C658D0409C01F901A8
:101C00008AE101900D928150E1F7FD8AEC8AB88E4D
:101C1000AF8AF601838D8E8BED96FFADED97FF2396
:101C2000F9F049815A81FE013196ED968FADED971D
:101C3000282F30E0220F331F2E0F3F1F04C0828158
:101C4000938181939193E217F307C9F75D8F4C8FCE
:101C5000ED96BFADED97B150ED96BFAFED9712C0C9
:101C6000EB962CAD3DAD4EAD5FADEB972415350534
:101C70004605570538F05D8E4C8E0894411C511C6A
:101C8000611C711CC957DF4F3881C758D0403038AC
:101C900011F41B8A0CC0C957DF4F4881C758D04088
:101CA000403919F451E05B8B02C082E08B8BEB89E9
:101CB000F0E0EE0FFF1FE80DF91D818192819A8BF4
:101CC000898BD6012C9181819281820F911D928303
:101CD0008183EB89F0E0EE0FFF1FE80DF91DC65779
:101CE000DF4FA881B981CA58D0402D913C918181A4
:101CF00092818217930708F4C901C657DF4FE88124
:101D0000F981CA58D04091838083D1018C9184316C
:101D100011F483E057C0BAE28B9FF0011124319691
:101D2000E20DF31DDE0151968AE20D900192815081
:101D3000E1F7C857DF4FE881F981C858D040EF2B51
:101D400051F4CE0141960E944904882321F0D1012B
:101D50008C918F5F8C93EC96BFADEC97BF5FEC9648
:101D6000BFAFEC97F601828DEC96FFADEC97F817BC
:101D700008F438CFF501C158DF4F28813981CF579A
:101D8000D0402C703070232B61F4ED961FAEED9790
:101D9000EB961CAE1DAE1EAE1FAEEB974424552431
:101DA00032015F01CD57DF4F48815981C358D04080
:101DB000452B09F0B9CCD1018C91882311F080E03A
:101DC00001C088E0CB56DF4F0FB6F894DEBF0FBEE0
:101DD000CDBFCF91DF911F910F91FF90EF90DF90DA
:101DE000CF90BF90AF909F908F907F906F905F90BB
:101DF0004F903F902F900895982F8091C80085FFB5
:101E0000FCCF9093CE0080E090E008958091C800D0
:101E100087FD03C02EEF3FEF0BC08091C80087FD08
:101E200003C02FEF3FEF04C08091CE00282F30E099
:101E3000C9010895DF93CF93CDB7DEB7FE01359684
:101E400061917191A0910B05B0910C0513968C9145
:101E50001397886013968C9380910B0590910C05D5
:101E6000AF013FD0E0910B05F0910C052381277F56
:101E70002383CF91DF9108950F931F93CF93DF9327
:101E8000EC01E0910B05F0910C05838181FF21C0ED
:101E900000E010E00EC0E0910B05F0910C052085EC
:101EA0003185BF01F9010995892B11F00FEF1FEF63
:101EB0002196FE018491882371F7E0910B05F09142
:101EC0000C05208531858AE0BF01F9010995892B30
:101ED00011F00FEF1FEFC801DF91CF911F910F910C
:101EE00008952F923F924F925F926F927F928F92BE
:101EF0009F92AF92BF92CF92DF92EF92FF920F9399
:101F00001F93DF93CF93CDB7DEB72B970FB6F8941F
:101F1000DEBF0FBECDBF3C012B015A01FC01178271
:101F20001682838181FD03C06FEF7FEFB9C19AE014
:101F3000892E1E010894211C311CF3012381F2011A
:101F400023FD859123FF81912F01882309F4A5C1E9
:101F5000853239F423FD859123FF81912F0185324C
:101F600021F490E0B301CCD1E8CF982FFF24EE24E8
:101F70009924FFE1FF15D0F09B3269F09C3228F4E0
:101F8000903259F0933291F40EC09D3249F0903363
:101F900069F441E024C052E0F52A84E0F82A28C020
:101FA00098E0F92A25C0E0E1FE2A22C0F7FC29C00A
:101FB000892F80538A3070F4F6FE05C0989C902CCF
:101FC0001124980E15C0E89CE02C1124E80EF0E2D4
:101FD000FF2A0EC09E3229F4F6FC5FC140E4F42AC9
:101FE00007C09C3619F450E8F52A02C0983649F427
:101FF000F20123FD959123FF91912F01992309F07F
:10200000B8CF892F8554833018F08052833038F44C
:1020100044E050E0A40EB51E5FE359830FC0933631
:1020200031F0933779F0933509F052C01FC0F501B4
:102030008081898342E050E0A40EB51E610101E079
:1020400010E011C0F501C080D180F6FC03C06FEF35
:102050007FEF02C0692D70E042E050E0A40EB51E93
:10206000C60143D18C015FE7F52213C0F501C080A2
:10207000D180F6FC03C06FEF7FEF02C0692D70E0E6
:1020800042E050E0A40EB51EC60124D18C0150E8F8
:10209000F52AF3FE06C018C080E290E0B30130D10B
:1020A000EA948E2D90E008171907B0F30DC0F601E1
:1020B000F7FC8591F7FE81916F0190E0B30120D18B
:1020C000E110EA94015010400115110581F7E2C0BA
:1020D000943611F0993661F5F7FE08C0F5012081BC
:1020E00031814281538184E090E00AC0F501808112
:1020F00091819C01442737FD4095542F82E090E068
:10210000A80EB91E9FE6F92257FF09C050954095C9
:10211000309521953F4F4F4F5F4FE0E8FE2ACA01AF
:10212000B901A1012AE030E017D1D82ED2183FC062
:10213000953729F41F2D1F7E2AE030E01DC01F2D8A
:10214000197F9F3661F0903720F4983509F0A5C0CB
:102150000FC0903739F0983709F09FC004C028E0CD
:1021600030E00AC0106114FD146020E130E004C0CA
:1021700014FD166020E132E017FF08C0F501608110
:1021800071818281938144E050E008C0F501808133
:102190009181BC0180E090E042E050E0A40EB51EC9
:1021A000A101DAD0D82ED2188FE7F82EF122F6FE50
:1021B0000BC05EEFF522D91438F4F4FE07C0F2FC30
:1021C00005C08FEEF82202C01D2D01C0192DF4FEAE
:1021D0000DC0FE01ED0DF11D8081803319F499EEE3
:1021E000F92208C01F5FF2FE05C003C08F2D86785C
:1021F00009F01F5F0F2DF3FC13C0F0FE0EC01E157B
:1022000010F09D2C0AC09D2C9E0C911A1E2D05C00D
:1022100080E290E0B30174D01F5F1E15C8F304C0C4
:102220001E1510F4E11A01C0EE2404FF0EC080E375
:1022300090E0B30165D002FF1BC001FD03C088E739
:1022400090E00EC088E590E00BC0802F867881F08A
:1022500001FF02C08BE201C080E2F7FC8DE290E05A
:10226000B3014ED005C080E390E0B30149D09A9409
:10227000D914C8F3DA94F101ED0DF11D808190E0DD
:10228000B3013ED0DD20B1F705C080E290E0B3019C
:1022900037D0EA94EE20C9F750CEF30166817781FA
:1022A000CB012B960FB6F894DEBF0FBECDBFCF91FA
:1022B000DF911F910F91FF90EF90DF90CF90BF9033
:1022C000AF909F908F907F906F905F904F903F90D6
:1022D0002F900895FC010590615070400110D8F7CF
:1022E000809590958E0F9F1F0895FC01615070405E
:1022F00001900110D8F7809590958E0F9F1F08953B
:102300000F931F93CF93DF938C01EB018B8181FFA0
:102310001BC082FF0DC02E813F818C819D812817BB
:10232000390764F4E881F9810193F983E88306C0F1
:10233000E885F985802F0995892B31F48E819F815D
:1023400001969F838E8302C00FEF1FEFC801DF91BC
:10235000CF911F910F910895FA01AA27283051F1CA
:10236000203181F1E8946F936E7F6E5F7F4F8F4FC6
:102370009F4FAF4FB1E03ED0B4E03CD0670F781F25
:10238000891F9A1FA11D680F791F8A1F911DA11D0A
:102390006A0F711D811D911DA11D20D009F4689443
:1023A0003F912AE0269F11243019305D3193DEF6EB
:1023B000CF010895462F4770405D4193B3E00FD0A1
:1023C000C9F7F6CF462F4F70405D4A3318F0495D8C
:1023D00031FD4052419302D0A9F7EACFB4E0A6956F
:1023E0009795879577956795BA95C9F70097610591
:1023F000710508959B01AC010A2E069457954795E7
:1024000037952795BA95C9F7620F731F841F951FDB
:08241000A01D0895F894FFCF10
:10241800000501000000000080060001000008001F
:02242800400072
:00000001FF
