:1000000051C100006DC100006BC1000069C100005A
:1000100067C1000065C1000063C1000061C100004C
:100020005FC100005DC1000068C6000059C100004A
:1000300057C1000055C1000053C1000051C100006C
:100040004FC100004DC100004BC1000049C100007C
:1000500047C1000045C1000043C1000041C100008C
:100060003FC100003DC100003BC1000039C100009C
:1000700037C1000035C1000033C1000031C10000AC
:100080002FC100002DC100002BC1000029C10000BC
:1000900027C1000025C1000064583A25326420645D
:1000A000593A25326420427574746F6E3A25640D96
:1000B0000A001B5B33316D44657620456E756D20FB
:1000C0004572726F720D0A202D2D204572726F726B
:1000D00020436F64652025640D0A202D2D20537563
:1000E00062204572726F7220436F64652025640D33
:1000F0000A202D2D20496E205374617465202564DB
:100100000D0A1B5B33376D001B5B33316D486F731A
:1001100074204D6F6465204572726F720D0A202D38
:100120002D204572726F7220436F64652025640D27
:100130000A1B5B33376D004D6F75736520456E7517
:100140006D6572617465642E0D0A001B5B33316D41
:10015000436F6E74726F6C204572726F72202853F9
:1001600065742050726F746F636F6C292E0D0A20B6
:100170002D2D204572726F7220436F64653A2025E1
:10018000640D0A1B5B33376D001B5B33316D436FAE
:100190006E74726F6C204572726F72202853657492
:1001A00020436F6E66696775726174696F6E292E80
:1001B0000D0A202D2D204572726F7220436F6465E9
:1001C0003A2025640D0A1B5B33376D00202D2D204E
:1001D0004572726F7220436F64653A2025640D0A80
:1001E0001B5B33376D001B5B33316D496E76616C81
:1001F0006964204465766963652E0D0A001B5B33D4
:10020000316D436F6E74726F6C204572726F722025
:100210002847657420436F6E6669677572617469FB
:100220006F6E292E0D0A0047657474696E6720434E
:100230006F6E66696720446174612E0D0A001B5B56
:1002400033326D44657669636520556E61747461FF
:10025000636865642E0D0A1B5B33376D001B5B33CF
:10026000326D4465766963652041747461636865C5
:10027000642E0D0A1B5B33376D001B5B33366D4DEF
:100280006F7573652048494420486F737420446536
:100290006D6F2072756E6E696E672E0D0A1B5B3373
:1002A000376D000011241FBECFEFD0E2DEBFCDBFFF
:1002B00011E0A0E0B1E0EAEFF8E100E00BBF02C01E
:1002C00007900D92AA31B107D9F711E0AAE1B1E088
:1002D00001C01D92AC33B107E1F78ED10C947B0CB9
:1002E0008FCEDF93CF9300D00F92CDB7DEB7809142
:1002F00027018B3009F067C081E08093A7008091CF
:10030000A9008F7B8093A9008091A60080FD04C086
:100310008BB18F708BB952C08091A60085FF49C008
:10032000CE01019663E070E040E050E079D53A817B
:10033000131614F490E105C0332311F090E201C0CC
:1003400090E02B81121614F4906802C02111906481
:100350004981411190EF8BB18F70982B9BB98DB76C
:100360009EB708970FB6F8949EBF0FBE8DBFEDB72E
:10037000FEB7319688E990E0ADB7BEB712969C9370
:100380008E931197832F992787FD9095938382836E
:10039000822F992787FD90959583848346831782C2
:1003A000BAD78DB79EB708960FB6F8949EBF0FBE0A
:1003B0008DBF8091A6008E778093A6008091A900C2
:1003C00080648093A9000F900F900F90CF91DF91E0
:1003D0000895909127012DB73EB7285030400FB6B1
:1003E000F8943EBF0FBE2DBFEDB7FEB7319622EB9E
:1003F00030E0ADB7BEB712963C932E93119782832F
:100400001382648315829683178285D78BB18F7090
:1004100080698BB92DB73EB7285F3F4F0FB6F89470
:100420003EBF0FBE2DBF08951F93182F41D400D09B
:1004300000D0EDB7FEB7319688E091E0ADB7BEB71A
:1004400012969C938E9311971283138264D78BB16B
:100450008F7080698BB90F900F900F900F90FFCF26
:100460008EE392E07AD78BB18F7080618BB908955B
:100470008DE592E072D78BB18F70806A8BB9089549
:100480001F9387E292E069D7DDD0182F8823B9F057
:10049000813019F48DEF91E002C086EE91E05DD7D6
:1004A00000D000D0EDB7FEB731968CEC91E0ADB73F
:1004B000BEB712969C938E931197128313C081E05E
:1004C000D5D6282F8823C9F000D000D0EDB7FEB7CD
:1004D000319689E891E0ADB7BEB712969C938E93A2
:1004E00011972283138217D78BB18F7080698BB9D4
:1004F0000F900F900F900F9033C0AFE1B1E0E0E0AC
:10050000F1E088E001900D928150E1F71092A70090
:1005100080E090E0A4D5282F8823D9F000D000D027
:10052000EDB7FEB731968BE491E0ADB7BEB712964A
:100530009C938E93119722831382EDD68BB18F708B
:1005400080698BB90F900F900F900F9080E08ED63E
:1005500007C087E391E001D78BB18F7080668BB9BC
:100560001F91089584B7877F84BF38E10FB6F89450
:1005700030936000109260000FBE80E090E020E8B1
:100580000FB6F89420936100809361000FBE83E35F
:1005900090E09093CD008093CC0086E08093CA00D9
:1005A0001092C8003093C900539A5A9A8AB1806F4A
:1005B0008AB98BB18F708BB972D3E8E2F1E0F09316
:1005C0003701E0933601F0933901E09338018EE072
:1005D000DF011D928A95E9F783E080932B018DE678
:1005E00099E0909331018093300187E799E09093EF
:1005F0003301809332010895B5DF8AE792E0ADD6EA
:100600008BB18F7080618BB978946BDE54D6FDCF3F
:10061000FC018181843041F48581833029F4878114
:10062000823011F480E0089582E00895FC01818118
:10063000853011F480E00895843011F082E008954F
:1006400081E00895AF92BF92CF92DF92EF92FF9236
:100650000F931F93DF93CF93CDB7DEB7C450D24033
:100660000FB6F894DEBF0FBECDBFAE014B5F5F4F3C
:100670005A83498383E0C82ED12CCC0EDD1E81E045
:10068000B60120E032E067D4853029F0863069F089
:10069000882319F00CC082E037C000E010E056015A
:1006A0007E010894E11CF11C04C083E02DC081E0B0
:1006B0002BC00115110539F0C501B70146E153E022
:1006C00006D4882361F0C501B70148E053E0FFD3A9
:1006D000882311F084E018C009811A81EACFC9800B
:1006E000DA80F601228127FFE4CFC114D10409F397
:1006F0000481158181E063E040E1EE24DFD1F60161
:1007000086818093AD0080E0CC5FDD4F0FB6F8941A
:10071000DEBF0FBECDBFCF91DF911F910F91FF9034
:10072000EF90DF90CF90BF90AF900895982F2091D9
:100730009E003091A0008091A0008F7D8093A0004A
:1007400080919F008F7D80939F0080919E008160AB
:1007500080939E0028C080919F0085FF06C08091F5
:100760009F008F7D80939F00915080912701813061
:1007700011F491E01AC08091A60084FF09C0109284
:10078000F5008091A6008F7E8093A60092E00DC0B8
:100790008091A60081FF07C08091A6008D7F809385
:1007A000A60093E002C09923B1F620FD05C0809118
:1007B0009E008E7F80939E0035FF05C08091A00033
:1007C00080628093A000892F089560919E0080919F
:1007D000A0008D7F8093A00080919E008260809316
:1007E0009E0080919E0081FDFCCF80919E008160E3
:1007F00080939E0010921D013091A0008091A00076
:100800008F7D8093A00080919F008F7D80939F00BB
:100810002AE040ED57E080919F0085FF0BC080915A
:100820009F008F7D80939F0080919F008D7F80939C
:100830009F0005C0CA010197F1F7215061F735FF0C
:1008400005C08091A00080628093A00060FD05C07B
:1008500080919E008E7F80939E008091A000826098
:100860008093A0000895EF920F931F93DF93CF938F
:10087000CDB7DEB728970FB6F894DEBF0FBECDBF59
:1008800080912701853009F494C0863068F4823065
:10089000B9F1833018F48823A1F004C18330D1F179
:1008A000843009F0FFC05DC0873009F49BC08730F9
:1008B00008F48AC0883009F4B3C0893009F0F2C066
:1008C000D7C000911B0110911C010115110509F4FD
:1008D000E9C081E02BDF682F882331F080911A0175
:1008E0008093270191E0DAC0C801019790931C0121
:1008F00080931B01892B09F0D5C080911A0107C094
:1009000088EE93E090931C0180931B0183E0809319
:100910002701C8C080911B0190911C010197909301
:100920001C0180931B01019629F080ED97E001974F
:10093000F1F7B8C077988091D80080618093D80093
:100940008091DD008B7F8093DD008091D7008061F6
:100950008093D7008091DD0082608093DD0084E089
:10096000D6CF80919F0080FF9DC080919F008E7F99
:1009700080939F0080919F008D7F80939F00809146
:10098000DF008D7F8093DF008091DE0082608093A6
:10099000DE0080919E00816080939E00EDD01092D9
:1009A000270184E690E090931C0180931B0185E071
:1009B0005CC00BDF1092270188EC90E090931C0143
:1009C00080931B0186E051C080E060E040E020E0C1
:1009D00000E410E0EE2472D08091AC0087FF5CC090
:1009E00087E095CFAFE1B1E0E0E1F1E088E0019090
:1009F0000D928150E1F7CE01019631D3682F882303
:100A000009F048C0888580931801DFDE1092270125
:100A100088EC90E090931C0180931B0188E025C036
:100A20000091180180E060E040E020E010E0EE245A
:100A300045D08091AC0087FF2FC0AFE1B1E0E8E086
:100A4000F1E088E001900D928150E1F780E090E0C4
:100A500006D3682F8823F1F41092270184E690E0F2
:100A600090931C0180931B0189E080931A011AC0A6
:100A700081E08093A1008AE08093270101DD12C00C
:100A8000892FA7DC8091DD0081608093DD00E8DCA8
:100A9000B6D008C093E002C094E060E080912701E6
:100AA000813071F728960FB6F894DEBF0FBECDBF28
:100AB000CF91DF911F910F91EF900895EF920F93D7
:100AC0001F93E82F7E2D6295660F660F607C642B66
:100AD0002F70622B382F726045C03093A7003E17ED
:100AE000A1F488E090E020E003C02F5F880F991FF9
:100AF0008017910710F42530C1F7922F9295907FBF
:100B0000972B562F40E020E008C05091AA0090910A
:100B1000AB004091AD002091AE0091FF22C08091CA
:100B2000A9008E7F8093A9008091AB008D7F809378
:100B3000AB008091A90081608093A9005093AA0026
:100B40009093AB004093AD002093AE008091A9003C
:100B500080628093A9008091AC0087FD02C080E094
:100B600007C03F5F373008F4B8CFE093A70081E0BB
:100B70001F910F91EF9008951092F80090E09093DC
:100B8000A7001092AE001092A6001092AB008091C8
:100B9000A9008E7F8093A9009F5F973081F7089509
:100BA0004091A2005091A30024E68091AA00807396
:100BB000803129F48091A60080FF05C01EC080917D
:100BC000A60082FD1AC08091A60081FF02C081E0CC
:100BD000089580912701813011F482E00895809179
:100BE000A2009091A30084179507F9F2222311F433
:100BF00083E008952150AC01D8CF80E0089570D0F3
:100C000077D08091D8008F778093D8008091D800DA
:100C100080688093D8008091D8008F7D8093D80021
:100C20008091D7008F778093D7008CE089BD8EE0CC
:100C300089BD09B400FEFDCF81E0809327011092A9
:100C40001D0180E4809318018091D8008064809316
:100C5000D8008091DD0081608093DD008091DD000F
:100C600084608093DD008091D7008F7E8093D700D1
:100C70006F9A779A8091DE0081608093DE00809188
:100C8000DE0084608093DE008091E0008E7F8093A0
:100C9000E0008091D80080618093D8000895E7ED4E
:100CA000F0E080818160808381E080931E01A7CF86
:100CB00017D01ED0E0EEF0E0808181608083A8ED47
:100CC000B0E08C918F778C9319BCE7EDF0E08081D8
:100CD0008E7F80838C918F7E8C9310921E0108955D
:100CE000E8EDF0E080818C7F80831092A000089571
:100CF0001092DA0010929F0008951F920F920FB683
:100D00000F920BB60F9211242F933F934F935F9343
:100D10006F937F938F939F93AF93BF93EF93FF93C3
:100D200080919F0085FF0AC08091A00085FF06C0CA
:100D300080919F008F7D80939F0067D180919F005D
:100D400081FF15C08091A00081FF11C080919F009C
:100D50008D7F80939F0080919F008E7F80939F0066
:100D60008091A0008D7F8093A0007ADB48DF809186
:100D7000DF0081FF15C08091DE0081FF11C08091EE
:100D8000DF008D7F8093DF0077988091DD008160A8
:100D90008093DD0080E048DB63DB81E08093270106
:100DA0008091DF0080FF17C08091DE0080FF13C0BC
:100DB0008091DF008E7F8093DF008091DE008E7F48
:100DC0008093DE0055DB8091A00082608093A000BC
:100DD00082E0809327018091DF0082FF0EC0809126
:100DE000DE0082FF0AC08091DF008B7F8093DF00EE
:100DF00082E060E0EEDA34DB02DFFF91EF91BF9139
:100E0000AF919F918F917F916F915F914F913F91A2
:100E10002F910F900BBE0F900FBE0F901F90189543
:100E2000BF92CF92DF92EF92FF920F931F93CF93D7
:100E3000DF93182F092F7B016A018091AA008F7C14
:100E400080618093AA00ACDEB82E8823A9F5812F9B
:100E5000902F9C01E901C114D10439F0F601808181
:100E60009181E81AF90AC80FD91F00E010E021C0EB
:100E70008091A60085FD15C08091A6008E77809395
:100E8000A600C114D10449F0F60180819181800F40
:100E9000911F9183808384E010C082DE882349F013
:100EA0000CC08091AF0089930894E108F1080F5FAE
:100EB0001F4FE114F104E1F68B2DDF91CF911F91CB
:100EC0000F91FF90EF90DF90CF90BF900895AF9279
:100ED000BF92CF92DF92EF92FF920F931F93CF9327
:100EE000DF937C01EB016A0124C0E881F981BE2E09
:100EF000AF2E808190E098018017910708F49C0143
:100F0000E20FF31FF983E883F70180819181821B4F
:100F1000930B9183808388819981F60109958230B2
:100F200041F0813069F4B882A982F701118300830E
:100F300007C0F7010081118101151105B1F682E0AA
:100F4000DF91CF911F910F91FF90EF90DF90CF90A5
:100F5000BF90AF900895CF92DF92EF92FF920F93E0
:100F60001F93DF93CF93CDB7DEB729970FB6F894D1
:100F7000DEBF0FBECDBF6B018A01790190E890936F
:100F80001F0196E09093200190E00197926090936A
:100F9000220180932101109224011092230189E003
:100FA00090E090932601809325011092A700CE0136
:100FB000019655D0282F8823C1F48B819C81F6019E
:100FC00091838083E816F90610F425E00EC0909313
:100FD000260180932501C80142D0282F882329F4B7
:100FE000F8018181823009F026E0822F29960FB620
:100FF000F894DEBF0FBECDBFCF91DF911F910F914F
:10100000FF90EF90DF90CF90089508951F93CF93B6
:10101000DF93182FC8EED3E009C081E087DB882377
:10102000D1F4209711F484E016C02197112329F4FC
:101030008091A60083FFF1CF0DC0113029F480917B
:10104000A60080FFEACF06C0123039F78091A600D3
:1010500082FFE3CF80E0DF91CF911F910895FF924F
:101060000F931F93CF93DF93182F092FF0909E00BB
:10107000C0912501D091260180919E0081608093CE
:101080009E0081E053DB982F882309F0D7C0809120
:10109000AA008F7C8093AA001092F5008091A60090
:1010A0008F7E8093A6008091A9008F7B8093A900FA
:1010B000EFE1F1E081918093AF0081E0E732F80742
:1010C000C9F78091A60087778093A60080E09EDF15
:1010D000982F882309F0B2C08091A9008064809382
:1010E000A90081E023DB982F882309F0A7C0212FD6
:1010F000302FC9018C0180911F0187FF52C0809160
:10110000AA008F7C80618093AA000115110569F502
:101110002EC08091A9008F7B8093A90081E076DFAB
:10112000982F882309F08AC08091F6009091F700EB
:10113000892B49F4C0E0D0E006C08091AF00F801EF
:1011400081938F0121978091F6009091F700892B70
:1011500011F0209791F78091A90080648093A900F5
:101160008091A6008E778093A600209791F68091BB
:10117000AA008F7C80628093AA008091A9008F7B57
:101180008093A90082E042DF982F882309F056C09F
:101190008091A6008B778093A60082E037DF982F9E
:1011A0004DC001151105A9F18091AA008F7C8062C4
:1011B0008093AA008091A9008F7B8093A9001DC015
:1011C00082E024DF982F8823C9F580911801282F09
:1011D00030E007C0F80181918F018093AF00219723
:1011E00039F08091F6009091F7008217930790F301
:1011F0008091A6008B778093A600209709F782E064
:1012000005DF982F8823D1F48091A9008064809312
:10121000A9008091AA008F7C80618093AA008091B0
:10122000A9008F7B8093A90081E0F0DE982F8823AE
:1012300029F48091A6008E778093A6008091A90062
:1012400080648093A900F0FC05C080919E008E7F91
:1012500080939E0081E08093A8001092A800892FBF
:10126000DF91CF911F910F91FF9008951F93182F39
:1012700010921F0189E080932001109321011092A8
:101280002201109224011092230110922601109243
:1012900025011092A70080E090E0E1DE882349F468
:1012A00010931D01112311F49AE001C09BE090936B
:1012B00027011F910895FF920F931F9307EA10E0F3
:1012C000F801F080F7E0FF22F8011082CCDAF80193
:1012D000F0821F910F91FF900895982F8091C80080
:1012E00085FFFCCF9093CE0080E090E00895809140
:1012F000C80087FD03C02EEF3FEF0BC08091C800F0
:1013000087FD03C02FEF3FEF04C08091CE00282F50
:1013100030E0C9010895DF93CF93CDB7DEB7FE016A
:10132000359661917191A0913801B0913901139670
:101330008C911397886013968C93809138019091CB
:101340003901AF013FD0E0913801F091390123819B
:10135000277F2383CF91DF9108950F931F93CF931E
:10136000DF93EC01E0913801F0913901838181FF35
:1013700021C000E010E00EC0E0913801F091390189
:1013800020853185BF01F9010995892B11F00FEFF7
:101390001FEF2196FE018491882371F7E0913801B7
:1013A000F0913901208531858AE0BF01F901099565
:1013B000892B11F00FEF1FEFC801DF91CF911F9123
:1013C0000F9108952F923F924F925F926F927F926A
:1013D0008F929F92AF92BF92CF92DF92EF92FF9245
:1013E0000F931F93DF93CF93CDB7DEB72B970FB635
:1013F000F894DEBF0FBECDBF3C012B015A01FC01AA
:1014000017821682838181FD03C06FEF7FEFB9C120
:101410009AE0892E1E010894211C311CF3012381BE
:10142000F20123FD859123FF81912F01882309F487
:10143000A5C1853239F423FD859123FF81912F01C8
:10144000853221F490E0B301CCD1E8CF982FFF246E
:10145000EE249924FFE1FF15D0F09B3269F09C3215
:1014600028F4903259F0933291F40EC09D3249F035
:10147000903369F441E024C052E0F52A84E0F82A70
:1014800028C098E0F92A25C0E0E1FE2A22C0F7FC36
:1014900029C0892F80538A3070F4F6FE05C0989CCD
:1014A000902C1124980E15C0E89CE02C1124E80E15
:1014B000F0E2FF2A0EC09E3229F4F6FC5FC140E440
:1014C000F42A07C09C3619F450E8F52A02C0983671
:1014D00049F4F20123FD959123FF91912F01992366
:1014E00009F0B8CF892F8554833018F080528330AB
:1014F00038F444E050E0A40EB51E5FE359830FC0FA
:10150000933631F0933779F0933509F052C01FC00C
:10151000F5018081898342E050E0A40EB51E61018F
:1015200001E010E011C0F501C080D180F6FC03C0DD
:101530006FEF7FEF02C0692D70E042E050E0A40E33
:10154000B51EC60143D18C015FE7F52213C0F5013A
:10155000C080D180F6FC03C06FEF7FEF02C0692D21
:1015600070E042E050E0A40EB51EC60124D18C010B
:1015700050E8F52AF3FE06C018C080E290E0B301FF
:1015800030D1EA948E2D90E008171907B0F30DC002
:10159000F601F7FC8591F7FE81916F0190E0B301B0
:1015A00020D1E110EA94015010400115110581F796
:1015B000E2C0943611F0993661F5F7FE08C0F501E6
:1015C000208131814281538184E090E00AC0F5019D
:1015D000808191819C01442737FD4095542F82E002
:1015E00090E0A80EB91E9FE6F92257FF09C050955A
:1015F0004095309521953F4F4F4F5F4FE0E8FE2AD1
:10160000CA01B901A1012AE030E017D1D82ED218C1
:101610003FC0953729F41F2D1F7E2AE030E01DC002
:101620001F2D197F9F3661F0903720F4983509F00F
:10163000A5C00FC0903739F0983709F09FC004C09B
:1016400028E030E00AC0106114FD146020E130E0B1
:1016500004C014FD166020E132E017FF08C0F50158
:10166000608171818281938144E050E008C0F5017E
:1016700080819181BC0180E090E042E050E0A40EC6
:10168000B51EA101DAD0D82ED2188FE7F82EF1229C
:10169000F6FE0BC05EEFF522D91438F4F4FE07C055
:1016A000F2FC05C08FEEF82202C01D2D01C0192DDD
:1016B000F4FE0DC0FE01ED0DF11D8081803319F4A3
:1016C00099EEF92208C01F5FF2FE05C003C08F2DFE
:1016D000867809F01F5F0F2DF3FC13C0F0FE0EC0DB
:1016E0001E1510F09D2C0AC09D2C9E0C911A1E2DCB
:1016F00005C080E290E0B30174D01F5F1E15C8F3EF
:1017000004C01E1510F4E11A01C0EE2404FF0EC03F
:1017100080E390E0B30165D002FF1BC001FD03C070
:1017200088E790E00EC088E590E00BC0802F8678B7
:1017300081F001FF02C08BE201C080E2F7FC8DE284
:1017400090E0B3014ED005C080E390E0B30149D0F2
:101750009A94D914C8F3DA94F101ED0DF11D80814A
:1017600090E0B3013ED0DD20B1F705C080E290E00B
:10177000B30137D0EA94EE20C9F750CEF301668169
:101780007781CB012B960FB6F894DEBF0FBECDBF8D
:10179000CF91DF911F910F91FF90EF90DF90CF904D
:1017A000BF90AF909F908F907F906F905F904F9081
:1017B0003F902F900895FC010590615070400110FA
:1017C000D8F7809590958E0F9F1F0895FC0161506A
:1017D000704001900110D8F7809590958E0F9F1F53
:1017E00008950F931F93CF93DF938C01EB018B81AF
:1017F00081FF1BC082FF0DC02E813F818C819D81A6
:101800002817390764F4E881F9810193F983E883A3
:1018100006C0E885F985802F0995892B31F48E81E2
:101820009F8101969F838E8302C00FEF1FEFC80137
:10183000DF91CF911F910F910895FA01AA272830C7
:1018400051F1203181F1E8946F936E7F6E5F7F4F8D
:101850008F4F9F4FAF4FB1E03ED0B4E03CD0670F09
:10186000781F891F9A1FA11D680F791F8A1F911D5C
:10187000A11D6A0F711D811D911DA11D20D009F4AC
:1018800068943F912AE0269F11243019305D3193EE
:10189000DEF6CF010895462F4770405D4193B3E0D7
:1018A0000FD0C9F7F6CF462F4F70405D4A3318F07E
:1018B000495D31FD4052419302D0A9F7EACFB4E02F
:1018C000A6959795879577956795BA95C9F70097E7
:1018D0006105710508959B01AC010A2E0694579588
:1018E000479537952795BA95C9F7620F731F841FDF
:0A18F000951FA01D0895F894FFCF86
:1018FA00210B0000000000000005010000000000AC
:0A190A008006000100000800400004
:00000001FF
