:100000008BC00000A7C00000A5C00000A3C0000076
:10001000A1C000009FC000009DC000009BC0000068
:1000200099C0000097C00000E5C70000A6C7000007
:1000300091C000008FC000008DC000008BC0000088
:1000400089C0000087C0000085C0000083C0000098
:1000500081C000007FC000007DC000007BC00000A8
:1000600079C0000077C0000075C0000073C00000B8
:1000700071C000006FC000006DC000006BC00000C8
:1000800069C0000067C0000065C0000063C00000D8
:1000900061C000005FC000001201100100000008F4
:1000A000EB03452001000102DC01090220000101EF
:1000B0000080320904000002080650000705830290
:1000C000400001070504024000010403090418036D
:1000D0004400650061006E002000430061006D0077
:1000E00065007200610000002E034C0055004600C0
:1000F000410020004D006100730073002000530098
:1001000074006F0072006100670065002000440009
:1001100065006D006F00000011241FBECFEFD0E21C
:10012000DEBFCDBF11E0A0E0B1E0ECEDF7E100E013
:100130000BBF02C007900D92A434B107D9F711E0AC
:10014000A4E4B1E001C01D92A137B107E1F78CD161
:100150000C94EC0B55CF8BB18F70806A8BB91092D9
:10016000440108958BB18F7080618BB908950F930E
:100170001F93DF93CF9300D0CDB7DEB78091680196
:10018000843009F0F9C08093E9008091E80082FF93
:10019000C9C01A8219828E010F5F1F4F05C080915E
:1001A0004401882309F0BEC085E491E06FE070E06F
:1001B000A8010E948609853091F3809145019091B4
:1001C0004601A0914701B091480185559345A2444D
:1001D000B34489F480915201882369F480915101DC
:1001E00090E08F719070892B31F4809153018823B6
:1001F00011F0813170F08091EB0080628093EB0010
:1002000083E08093E9008091EB0080628093EB00B3
:1002100089C01A8219828E010F5F1F4F05C080911D
:100220004401882309F07EC06091530184E591E088
:1002300070E0A8010E948609853089F38091E8006A
:100240008B778093E8008BB18F7080628BB980913F
:10025000510187FF03C083E08093E9008DD421E042
:10026000282720930C018091490190914A01A09187
:100270004B01B0914C018093040190930501A09330
:100280000601B093070180914D0190914E01A0911C
:100290004F01B09150018093080190930901A09300
:1002A0000A01B0930B01213049F40097A105B10573
:1002B00029F08091EB0080628093EB0084E08093D2
:1002C000E90004C080914401882341F58091EB004E
:1002D00085FDF8CF83E08093E90004C0809144015C
:1002E0008823E1F48091EB0085FDF8CF1A82198212
:1002F0008E010F5F1F4F04C080914401882371F469
:1003000080E091E06DE070E0A8010E94D70985309F
:1003100099F38091E8008E778093E8008BB18F701D
:1003200080668BB980914401882331F180E180930C
:10033000EA001092EA0088E08093EA001092EA0056
:1003400084E08093E9008091EB0080618093EB0072
:100350008091EB0088608093EB0083E08093E9005C
:100360008091EB0080618093EB008091EB008860CE
:100370008093EB00109244010F900F90CF91DF918A
:100380001F910F91089580916A018E3F81F08F3FF8
:10039000F9F4809169018132D9F48091E800877F76
:1003A0008093E80038D581E08093440108958091DE
:1003B0006901813A69F48091E800877F8093E800C1
:1003C0001092F1008091E8008E778093E80023C5B9
:1003D00008950F931F9383E061E842E3E7D4082F69
:1003E00084E060E842E3E2D410E090E008231923BF
:1003F00000FF02C090E601C090E98BB18F70982B8E
:100400009BB91F910F91089584B7877F84BF88E1BE
:100410000FB6F89480936000109260000FBE80E0E9
:1004200090E020E80FB6F89420936100809361007B
:100430000FBE8AB1806F8AB98BB18F708BB9209A49
:10044000289A84B1866084B923982B9A8DB58160EF
:100450008DBD20988CE58CBD8DB183608DB98EB13A
:1004600083608EB974D57EC0CFDF8BB18F70806111
:100470008BB978947CDE0E94D90BFCCFDA019230E4
:1004800049F0933061F09130F9F4E8E9F0E022E1CD
:1004900030E01EC0EAEAF0E020E230E019C081302E
:1004A00049F0813018F0823079F408C0EAECF0E0CD
:1004B000849107C0EEECF0E0849103C0E8EEF0E038
:1004C0008491282F30E004C0E0E0F0E020E030E04C
:1004D000ED93FC93C90108959C018EB183608EB9A0
:1004E00080E42030380758F420FF05C08EB18C7F9F
:1004F00081608EB908958EB18C7F82608EB9089527
:100500008EB19EB193609EB99EB183709C7F892B02
:100510008EB90895F5DF87ED8EBD0DB407FEFDCFD2
:100520001EBC0DB407FEFDCF0EB407FEF9CFE8CF19
:100530009C013695279536E0969587953A95E1F793
:100540008EBD0DB407FEFDCF822F880F880F880F58
:10055000872B8EBD0DB407FEFDCF6EBD0DB407FE1B
:10056000FDCF08958EB18C7F82608EB987ED8EBDF0
:100570000DB407FEFDCF1EBC0DB407FEFDCF0EB4BB
:1005800001FE15C0BDDF8DE38EBD0DB407FEFDCFAE
:100590008AE28EBD0DB407FEFDCF8FE78EBD0DB490
:1005A00007FEFDCF8AE98EBD0DB407FEFDCF8EB1EB
:1005B0008C7F81608EB987ED8EBD0DB407FEFDCFB7
:1005C0001EBC0DB407FEFDCF0EB401FE15C098DFB2
:1005D0008DE38EBD0DB407FEFDCF8AE28EBD0DB456
:1005E00007FEFDCF8FE78EBD0DB407FEFDCF8AE974
:1005F0008EBD0DB407FEFDCF8EB183608EB9089518
:100600008EB18C7F82608EB98FE98EBD0DB407FEEE
:10061000FDCF1EBC0DB407FEFDCF9EB58EB183602D
:100620008EB99F3111F080E008958EB18C7F81608A
:100630008EB98FE98EBD0DB407FEFDCF1EBC0DB483
:1006400007FEFDCF9EB58EB183608EB980E09F31ED
:1006500009F481E00895CF92DF92EF92FF920F9319
:100660001F93DF93CF930F92CDB7DEB77A01F9E0F6
:10067000660F771F881F991FFA95D1F79B01AC0170
:10068000EAE05695479537952795EA95D1F7890180
:100690004FEFC42E43E0D42EC622D722C9011CDF5F
:1006A00082ED8EBD0DB407FEFDCFC801B60140DF5F
:1006B0001EBC0DB407FEFDCF1EBC0DB407FEFDCF62
:1006C0001EBC0DB407FEFDCF1EBC0DB407FEFDCF52
:1006D000C3D3882309F0C5C094E0D694C7949A95F3
:1006E000E1F79C2D82EDC82EACC0DD248091E8009E
:1006F00085FD0BC08091E8008E778093E800998398
:10070000ABD39981882309F0ACC09034E9F40F5F32
:100710001F4FC801E1DECEBC0DB407FEFDCFC801FE
:1007200060E070E005DF1EBC0DB407FEFDCF1EBC0F
:100730000DB407FEFDCF1EBC0DB407FEFDCF1EBCE1
:100740000DB407FEFDCF90E01EBC0DB407FEFDCF3B
:100750008EB58093F1001EBC0DB407FEFDCF8EB5A3
:100760008093F1001EBC0DB407FEFDCF8EB58093C3
:10077000F1001EBC0DB407FEFDCF8EB58093F100D5
:100780001EBC0DB407FEFDCF8EB58093F1001EBCDC
:100790000DB407FEFDCF8EB58093F1001EBC0DB4E5
:1007A00007FEFDCF8EB58093F1001EBC0DB407FE91
:1007B000FDCF8EB58093F1001EBC0DB407FEFDCFBA
:1007C0008EB58093F1001EBC0DB407FEFDCF8EB533
:1007D0008093F1001EBC0DB407FEFDCF8EB5809353
:1007E000F1001EBC0DB407FEFDCF8EB58093F10065
:1007F0001EBC0DB407FEFDCF8EB58093F1001EBC6C
:100800000DB407FEFDCF8EB58093F1001EBC0DB474
:1008100007FEFDCF8EB58093F1001EBC0DB407FE20
:10082000FDCF8EB58093F100809144018823C9F4F7
:100830009F5FD39480E2D81609F058CF0894E1085E
:10084000F108E114F10409F050CF8091E80085FD32
:1008500005C08091E8008E778093E8008EB18360B8
:100860008EB90F90CF91DF911F910F91FF90EF9074
:10087000DF90CF900895AF92BF92CF92DF92EF9228
:10088000FF920F931F93DF93CF930F92CDB7DEB7F5
:100890007A0129E0660F771F881F991F2A95D1F7E3
:1008A0009B01AC019AE056954795379527959A9507
:1008B000D1F789018FEFC82E83E0D82EC622D72228
:1008C000C9010ADE83E58EBD0DB407FEFDCFC80168
:1008D00060E070E02DDE1EDE84E88EBD0DB407FE04
:1008E000FDCF80E090E0B60123DEB6D2882309F088
:1008F000EAC0B4E0D694C794BA95E1F79C2D5701AD
:10090000A5E0AA0CBB1CAA95E1F7DD24BDC0CC2450
:100910008091E80085FD0BC08091E8008B77809383
:10092000E800998399D29981882309F0CCC090344A
:1009300009F039C0EFDDDD2011F483E801C086E85D
:100940008EBD0DB407FEFDCFC80160E070E0F0DDA4
:100950000F5F1F4F8EB18370813009F4D826C80114
:10096000BBDD20E4A216B10478F4D4DDDD2011F45F
:1009700083E501C085E58EBD0DB407FEFDCFC8013E
:1009800060E070E0D5DDC6DDDD2011F484E801C053
:1009900087E88EBD0DB407FEFDCF80E090E060E0FB
:1009A00070E0C6DD90E08091F1008EBD0DB407FED1
:1009B000FDCF8091F1008EBD0DB407FEFDCF80917B
:1009C000F1008EBD0DB407FEFDCF8091F1008EBD0C
:1009D0000DB407FEFDCF8091F1008EBD0DB407FE72
:1009E000FDCF8091F1008EBD0DB407FEFDCF80914B
:1009F000F1008EBD0DB407FEFDCF8091F1008EBDDC
:100A00000DB407FEFDCF8091F1008EBD0DB407FE41
:100A1000FDCF8091F1008EBD0DB407FEFDCF80911A
:100A2000F1008EBD0DB407FEFDCF8091F1008EBDAB
:100A30000DB407FEFDCF8091F1008EBD0DB407FE11
:100A4000FDCF8091F1008EBD0DB407FEFDCF8091EA
:100A5000F1008EBD0DB407FEFDCF8091F1008EBD7B
:100A60000DB407FEFDCF80914401882361F59F5F9F
:100A7000C39430E2C31609F04BCF0894E108F108A3
:100A8000E0EEFFEFAE0EBF1EE114F10409F03FCF20
:100A900041DDDD2011F483E801C086E88EBD0DB490
:100AA00007FEFDCFC80160E070E042DD33DD8091DC
:100AB000E80085FD05C08091E8008B778093E80011
:100AC0008EB183608EB90F90CF91DF911F910F91FE
:100AD000FF90EF90DF90CF90BF90AF900895CF93AD
:100AE000DF93282F6091590170915801809157012F
:100AF00090915601C0915C01D0915B01603030E86B
:100B0000730730E0830730E0930768F080910F01AE
:100B1000807F856080930F0181E28093190110929C
:100B20001A0180E026C0222319F0AE0194DD02C034
:100B3000AE01A1DE9E0140E050E089E0220F331FAC
:100B4000441F551F8A95D1F780914D0190914E0118
:100B5000A0914F01B0915001821B930BA40BB50BD8
:100B600080934D0190934E01A0934F01B09350019B
:100B700081E0DF91CF9108950F931F93CF93DF937F
:100B8000809154018D3109F4ABC08E3178F48330FB
:100B900009F457C0843020F4882309F4E3C0EBC083
:100BA0008231B9F08A3109F0E6C0BBC0883209F45D
:100BB000B3C0893238F48E3109F4D4C0853209F0DB
:100BC000DAC065C08A3209F4A5C08F3209F0D3C0FB
:100BD000C9C0C0915801D09157018091550190E052
:100BE00083709070892B09F07FC080915601882313
:100BF00009F07AC08E01C532D10510F004E210E090
:100C00008FE191E0B80140E050E0D1D3CE01801BEC
:100C1000910B60E070E01CD48091E8008E778093A7
:100C2000E800980140E050E080914D0190914E0124
:100C3000A0914F01B0915001821B930BA40BB50BF7
:100C400088C010915801012F133108F002E18DE0A6
:100C500091E0602F70E040E050E0A9D3812F90E058
:100C6000801B910960E070E0F3D38091E8008E77FB
:100C70008093E80080914D0190914E01A0914F0129
:100C8000B0915001801B9109A109B10962C0109275
:100C9000F1001092F1008FE78093F1008FEF8093C5
:100CA000F1001092F1001092F10082E08093F100C7
:100CB0001092F10080914401882309F066C0809170
:100CC000E8008E778093E80080914D0190914E016D
:100CD000A0914F01B09150010897A109B10939C005
:100CE0008091550182FD08C080910F01807F856051
:100CF00080930F0184E246C083DC882399F58091BC
:100D00000F01807F846080930F011092190110926F
:100D10001A013BC080E001C081E0E1DE8823A9F137
:100D200036C01092F1001092F1001092F100109272
:100D3000F1008091E8008E778093E80080914D016A
:100D400090914E01A0914F01B09150010497A109DB
:100D5000B10980934D0190934E01A0934F01B09340
:100D6000500115C010924D0110924E0110924F018A
:100D7000109250010CC080910F01807F856080939C
:100D80000F0180E280931901C2CF80E00AC08091F8
:100D90000F01807F80930F011092190110921A01A8
:100DA00081E0DF91CF911F910F910895382F282F67
:100DB0002CC02093E900231721F4762F942F50E0C4
:100DC00006C07091EC009091ED005091F00091FF01
:100DD0001BC08091EB008E7F8093EB008091ED0033
:100DE0008D7F8093ED008091EB0081608093EB001C
:100DF0007093EC009093ED005093F0008091EE0022
:100E000087FD02C080E008952F5F273090F2309375
:100E1000E90081E008958091690188239CF404C071
:100E2000809168018823B9F08091E80082FFF8CFB3
:100E30008091E8008B778093E800089580916801A5
:100E4000882349F08091E80080FFF8CF8091E80086
:100E50008E778093E80008954091E4005091E5007A
:100E600024E68091EC0080FF24C08091E80080FDA2
:100E70001EC080916801882311F482E008958530B6
:100E800011F483E008958091EB0085FF02C081E0BA
:100E900008958091E4009091E5008417950709F387
:100EA000222311F484E008952150AC01DACF80E0D0
:100EB00008958091E80082FFDCCFF9CFEF92FF9296
:100EC0000F931F934DD054D008ED10E0F8018081AE
:100ED0008F77808380818068808380818F7D80830D
:100EE000E7EDF0E080818068808319BC1092680192
:100EF00010926401109266011092650180EEE82E56
:100F0000F12CF70180818B7F8083F80180818160E3
:100F1000808380E060E042E049DFE1EEF0E0808144
:100F20008E7F8083E2EEF0E080818160808380812B
:100F300088608083F70180818E7F8083F8018081C3
:100F4000806180831F910F91FF90EF900895E7EDEE
:100F5000F0E080818160808381E080936701AECF83
:100F6000E8EDF0E080818C7F80831092E2000895AC
:100F70001092DA001092E10008951F920F920FB6BE
:100F80000F920BB60F9211241F932F933F934F9301
:100F90005F936F937F938F939F93AF93BF93EF93E1
:100FA000FF93E9EEF0E0108117701082E0EFF0E0BF
:100FB0008081877F808378948DD2A9EEB0E01C92E7
:100FC000E0EFF0E08081886080831C93FF91EF91D7
:100FD000BF91AF919F918F917F916F915F914F9151
:100FE0003F912F911F910F900BBE0F900FBE0F904E
:100FF0001F9018951F920F920FB60F920BB60F927B
:1010000011242F933F934F935F936F937F938F930D
:101010009F93AF93BF93EF93FF938091E10082FF83
:101020000AC08091E20082FF06C08091E1008B7FC0
:101030008093E100BDD38091DA0080FF1DC08091D4
:10104000D80080FF19C08091DA008E7F8093DA008B
:101050008091D90080FF0CC08CE089BD8EE089BDF5
:1010600009B400FEFDCF81E08093680174D804C00C
:1010700019BC1092680176D88091E10080FF18C0F9
:101080008091E20080FF14C08091E2008E7F809307
:10109000E2008091E20080618093E2008091D800BC
:1010A00080628093D80019BC85E08093680180D36A
:1010B0008091E10084FF2DC08091E20084FF29C06F
:1010C0008CE089BD8EE089BD09B400FEFDCF809122
:1010D000D8008F7D8093D8008091E1008F7E80932F
:1010E000E1008091E2008F7E8093E2008091E20037
:1010F00081608093E20080916401882331F48091C3
:10110000E30087FD02C081E001C084E080936801B4
:101110004FD38091E10083FF27C08091E20083FFDD
:1011200023C08091E100877F8093E10082E080937B
:101130006801109264018091E1008E7F8093E1004C
:101140008091E2008E7F8093E2008091E2008061D6
:101150008093E20080E060E042E028DE8091F000D1
:1011600088608093F00024D3FF91EF91BF91AF91FD
:101170009F918F917F916F915F914F913F912F91AF
:101180000F900BBE0F900FBE0F901F9018959C01F3
:1011900040916F01509170014617570718F4F901FB
:1011A00090E03DC06115710511F0AB01F8CF809161
:1011B000E8008E778093E80040E050E0F0CF809127
:1011C00068018823F1F18530F1F18091E80083FF17
:1011D00002C081E008958091E80082FD2CC08091DA
:1011E000E80080FF1CC02091F2003091F30007C09E
:1011F00081918093F100415050402F5F3F4F411546
:10120000510519F02830310598F390E02830310568
:1012100009F491E08091E8008E778093E800411511
:10122000510569F6992359F606C080916801882313
:1012300041F0853041F08091E80082FFF6CF80E0F8
:10124000089582E0089583E008959C0140916F0124
:10125000509170014617570718F4F90190E040C00B
:101260006115710511F0AB01F8CF8091E8008E7720
:101270008093E80040E050E0F0CF8091680188233F
:1012800009F440C0853009F43FC08091E80083FF35
:1012900002C081E008958091E80082FD2DC0809118
:1012A000E80080FF1DC02091F2003091F30008C0DB
:1012B00084918093F1003196415050402F5F3F4F11
:1012C0004115510519F02830310590F390E0283090
:1012D000310509F491E08091E8008E778093E80071
:1012E0004115510551F6992341F606C080916801D8
:1012F000882341F0853041F08091E80082FFF6CFED
:1013000080E0089582E0089583E00895BF92CF922F
:10131000DF92EF92FF920F931F93CF93DF93182FDB
:10132000092F7B016A0198DDB82E8823A9F5812F4A
:10133000902F9C01E901C114D10439F0F60180819C
:101340009181E81AF90AC80FD91F00E010E021C006
:101350008091E80085FD15C08091E8008B7780932F
:10136000E800C114D10449F0F60180819181800F19
:10137000911F9183808385E010C06EDD882349F042
:101380000CC08091F10089930894E108F1080F5F87
:101390001F4FE114F104E1F68B2DDF91CF911F91E6
:1013A0000F91FF90EF90DF90CF90BF900895BF9284
:1013B000CF92DF92EF92FF920F931F93CF93DF9321
:1013C000182F092F7B016A0147DDB82E8823A9F564
:1013D000812F902F9C01E901C114D10439F0F6014D
:1013E00080819181E81AF90AC80FD91F00E010E046
:1013F00021C08091E80085FD15C08091E8008E77BE
:101400008093E800C114D10449F0F60180819181F4
:10141000800F911F9183808385E010C01DDD88239C
:1014200049F00CC089918093F1000894E108F1081B
:101430000F5F1F4FE114F104E1F68B2DDF91CF9187
:101440001F910F91FF90EF90DF90CF90BF90089584
:10145000DF92EF92FF920F931F93CF93DF93EC01F4
:101460008B01FADCD82E882361F50115110529F0CE
:10147000F80180819181C81BD90BEE24FF241FC085
:101480008091E80085FD15C08091E8008E778093FB
:10149000E8000115110549F0F801808191818E0D58
:1014A0009F1D9183808385E00DC0D6DC882339F0B1
:1014B00009C01092F10021970894E11CF11C2097BB
:1014C000F9F68D2DDF91CF911F910F91FF90EF9045
:1014D000DF9008950F931F93DF93CF93CDB7DEB7BF
:1014E000AC970FB6F894DEBF0FBECDBFE9E6F1E0D2
:1014F0008091F100819321E0E137F207C9F70E9462
:10150000C3018091E80083FF3AC180916901309165
:101510006A01353009F487C0363040F43130C9F102
:10152000313070F0333009F02AC133C0383009F45B
:10153000F7C0393009F406C1363009F020C197C030
:10154000803821F0823809F01AC108C090916501F5
:1015500080916601882399F0926011C080916D019D
:1015600087708093E9008091EB0090E025E09695EC
:1015700087952A95E1F7982F91701092E900809154
:10158000E800877F8093E8009093F1001092F100CB
:10159000D2C0882319F0823009F0F1C090E08F7139
:1015A0009070009721F0029709F0E9C00CC080917B
:1015B0006B01813009F0E3C010926601333069F5A8
:1015C000809366012AC080916B01882331F52091B8
:1015D0006D01277009F4D3C02093E9008091EB00DE
:1015E00080FF1BC0333021F48091EB00806213C078
:1015F0008091EB0080618093EB0081E090E002C07D
:10160000880F991F2A95E2F78093EA001092EA006A
:101610008091EB0088608093EB001092E90080914C
:10162000E800877F8BC0882309F0A9C010916B0167
:101630001F770FB7F8948091E800877F8093E800C8
:10164000EADB8091E80080FFFCCF8091E3008078A6
:10165000812B8093E30080688093E300112311F4D1
:1016600082E001C083E0809368010FBF88C080588A
:10167000823008F084C080916B0190916C0123E06E
:101680008C3D920709F033C083E08C838AE28B8320
:101690007FB7F894DE0115966EE040E050E011E26D
:1016A000E62FF0E010935700849140FF03C082952D
:1016B0008F706F5F8F70282F30E08A3018F0C9016B
:1016C000C79602C0C901C0968D939D934F5F5F4F2F
:1016D0004431510529F77FBF8091E800877F8093CF
:1016E000E800CE0103966AE270E051DD13C060911C
:1016F0006D01AE014F5F5F4F0E943E02BC0100973B
:1017000009F43DC08091E800877F8093E8008981DB
:101710009A819BDD8091E8008B778093E8002FC051
:10172000803869F58091E800877F8093E800809198
:1017300064018093F1008091E8008E778093E80047
:101740006ADB1DC08823D9F490916B019230B8F404
:101750008091E800877F8093E800909364015BDBD1
:1017600080916401882331F48091E30087FD02C0F9
:1017700081E001C084E0809368010E94E9018091CA
:10178000E80083FF0AC08091EB0080628093EB0049
:101790008091E800877F8093E800AC960FB6F894BC
:1017A000DEBF0FBECDBFCF91DF911F910F91089586
:1017B00008951F9380916801882361F01091E900DA
:1017C0001092E9008091E80083FF01C083DE17706A
:0C17D0001093E9001F910895F894FFCFDA
:1017DC005553425300000000000000000070000050
:1017EC00000000000A0000000000000000000000E3
:1017FC008000021F0000004C5546410000000044D0
:10180C00617461666C617368204469736B000030AD
:04181C002E3030003A
:00000001FF
