:10000000B0C00000CBC00000C9C00000C7C00000E5
:10001000C5C00000C3C00000C1C00000BFC00000D8
:10002000BDC00000BBC00000EFC20000B7C00000B0
:10003000B5C00000B3C00000B1C00000AFC00000F8
:10004000ADC00000ABC00000A9C00000A7C0000008
:10005000A5C00000A4C00000A1C000009FC0000017
:100060009DC000009BC0000099C0000097C0000028
:1000700095C0000093C0000091C000008FC0000038
:100080008DC000008BC0000089C0000087C0000048
:1000900085C0000083C000001201000200000008BB
:1000A000EB03462002000102000109027000020178
:1000B00000C0320904000000010100000924010011
:1000C000011E0001010C24020101010002030000D5
:1000D00000092403020103000100090401000001DA
:1000E00002000009040101010102000007240101CE
:1000F0000101001724020102021005401F00112B0C
:100100000022560044AC0080BB000905010D00012F
:100110000100000725010100000004030904180381
:100120004400650061006E002000430061006D0026
:10013000650072006100000028034C005500460075
:100140004100200041007500640069006F0020003C
:100150004F00750074002000440065006D006F00C2
:10016000000011241FBECFEFD0E2DEBFCDBF11E0F3
:10017000A0E0B1E0E6EAFFE000E00BBF02C00790BC
:100180000D92AC30B107D9F711E0ACE0B1E001C09D
:100190001D92A931B107E1F74CD103C731CF1F92AE
:1001A0000F920FB60F9211242F933F934F935F93AB
:1001B0006F937F938F939F937091E90080911001CB
:1001C000843009F062C080910701882309F45DC082
:1001D000809104018093E9008091E80082FF55C07E
:1001E0008091F1009091F1009C018091F20090913A
:1001F000F300892B29F48091E8008B778093E80045
:100200008091F1009091F100AC018091F200909109
:10021000F300892B29F48091E8008B778093E80024
:10022000232F330F330B332727FD3095452F550FE1
:10023000550B552747FD5095CA01820F931F959581
:100240008795682F80E890E0282739273093990018
:10025000209398004827592750939B0040939A0079
:10026000613114F090EF0DC0693014F090EB09C0CB
:10027000653014F090E305C0633014F090E101C0E4
:1002800090E08BB18F70982B9BB977707093E900D9
:100290009F918F917F916F915F914F913F912F919E
:1002A0000F900FBE0F901F9018951F938BB18F70FA
:1002B000806A8BB912E010936E0020910801309192
:1002C000090140910A0150910B0160E472E48FE052
:1002D00090E045D6215027BD14BD15BD87B180667D
:1002E00087B981EF8093900089E0809391001F91FE
:1002F00008958BB18F7080618BB915BC10929100FD
:1003000087B18F7987B90895EF92FF920F931F936A
:10031000CF93DF93F801E70180910401481709F0BA
:1003200052C0213009F04FC0613021F0613809F02E
:100330004AC02FC00115110509F447C02A8130E0D9
:1003400040E050E0A90133272227898190E0A0E016
:10035000B0E0BA2FA92F982F8827282B392B4A2BAA
:100360005B2B888190E0A0E0B0E0282B392B4A2B52
:100370005B2B209308013093090140930A015093AD
:100380000B0160E472E48FE090E0E9D5215027BDD5
:100390001CC001151105C9F083E090E091838083B2
:1003A000209108013091090140910A0150910B01FF
:1003B000CA01AA27BB278A83BB27A52F942F832F87
:1003C0008983288302C080E001C081E0DF91CF9162
:1003D0001F910F91FF90EF90089580E091E08CC401
:1003E00080E091E059D480FD02C090E901C090E620
:1003F0008BB18F70982B9BB9089584B7877F84BF8A
:1004000088E10FB6F89480936000109260000FBEF0
:1004100080E090E020E80FB6F8942093610080938C
:1004200061000FBE8AB1806F8AB98BB18F708BB9B2
:10043000D5C0E3DF8BB18F7080618BB9789418D40D
:10044000FECFDA01923049F0933061F09130F9F447
:10045000E8E9F0E022E130E01EC0EAEAF0E020E75F
:1004600030E019C0813049F0813018F0823079F4E1
:1004700008C0EAE1F1E0849107C0EEE1F1E0849187
:1004800003C0E8E3F1E08491282F30E004C0E0E00D
:10049000F0E020E030E0ED93FC93C9010895382F9F
:1004A000282F2CC02093E900231721F4762F942FB6
:1004B00050E006C07091EC009091ED005091F0007A
:1004C00091FF1BC08091EB008E7F8093EB008091A9
:1004D000ED008D7F8093ED008091EB008160809333
:1004E000EB007093EC009093ED005093F00080913E
:1004F000EE0087FD02C080E008952F5F273090F264
:100500003093E90081E008958091110188239CF4E3
:1005100004C0809110018823B9F08091E80082FF27
:10052000F8CF8091E8008B778093E8000895809160
:100530001001882349F08091E80080FFF8CF809176
:10054000E8008E778093E8000895EF92FF920F9372
:100550001F934DD054D008ED10E0F80180818F77C3
:10056000808380818068808380818F7D8083E7EDB8
:10057000F0E080818068808319BC10921001109295
:100580000C0110920E0110920D0180EEE82EF12C5C
:10059000F70180818B7F8083F80180818160808377
:1005A00080E060E042E07BDFE1EEF0E080818E7F82
:1005B0008083E2EEF0E080818160808380818860CA
:1005C0008083F70180818E7F8083F8018081806144
:1005D00080831F910F91FF90EF900895E7EDF0E079
:1005E00080818160808381E080930F01AECFE8ED50
:1005F000F0E080818C7F80831092E2000895109259
:10060000DA001092E10008951F920F920FB60F9238
:100610000BB60F9211242F933F934F935F936F93D9
:100620007F938F939F93AF93BF93EF93FF938091AB
:10063000E10082FF0AC08091E20082FF06C0809143
:10064000E1008B7F8093E10012D38091DA0080FF7C
:100650001DC08091D80080FF19C08091DA008E7F84
:100660008093DA008091D90080FF0CC08CE089BDB6
:100670008EE089BD09B400FEFDCF81E080931001BA
:1006800014DE04C019BC1092100133DE8091E10029
:1006900080FF18C08091E20080FF14C08091E200CA
:1006A0008E7F8093E2008091E20080618093E2007F
:1006B0008091D80080628093D80019BC85E0809337
:1006C0001001D5D28091E10084FF2DC08091E2001D
:1006D00084FF29C08CE089BD8EE089BD09B400FE8D
:1006E000FDCF8091D8008F7D8093D8008091E1006C
:1006F0008F7E8093E1008091E2008F7E8093E20004
:100700008091E20081608093E20080910C01882357
:1007100031F48091E30087FD02C081E001C084E0F4
:1007200080931001A4D28091E10083FF22C08091C8
:10073000E20083FF1EC08091E100877F8093E1008B
:1007400082E08093100110920C018091E1008E7F75
:100750008093E1008091E2008E7F8093E20080919F
:10076000E20080618093E20080E060E042E097DE9A
:100770007ED2FF91EF91BF91AF919F918F917F9129
:100780006F915F914F913F912F910F900BBE0F9002
:100790000FBE0F901F9018959C014091170150912A
:1007A00018014617570718F4F90190E03DC061158C
:1007B000710511F0AB01F8CF8091E8008E7780933E
:1007C000E80040E050E0F0CF809110018823F1F183
:1007D0008530F1F18091E80083FF02C081E0089547
:1007E0008091E80082FD2CC08091E80080FF1CC051
:1007F0002091F2003091F30007C081918093F100C5
:10080000415050402F5F3F4F4115510519F028309E
:10081000310598F390E02830310509F491E080919A
:10082000E8008E778093E8004115510569F6992319
:1008300059F606C080911001882341F0853041F0BF
:100840008091E80082FFF6CF80E0089582E008956D
:1008500083E008959C016115710529F48091E800F9
:100860008B778093E800F90122C0809110018823E2
:1008700071F1853071F18091E80083FF02C081E061
:1008800008958091E80082FFF0CF06C08091F100CA
:1008900081936150704031F08091F2009091F300AB
:1008A000892BA1F78091E8008B778093E800611590
:1008B0007105D9F606C080911001882341F085307A
:1008C00041F08091E80080FFF6CF80E0089582E05B
:1008D000089583E008959C014091170150911801FB
:1008E0004617570718F4F90190E040C061157105EB
:1008F00011F0AB01F8CF8091E8008E778093E8008B
:1009000040E050E0F0CF80911001882309F440C00E
:10091000853009F43FC08091E80083FF02C081E088
:1009200008958091E80082FD2DC08091E80080FF4D
:100930001DC02091F2003091F30008C08491809393
:10094000F1003196415050402F5F3F4F4115510506
:1009500019F02830310590F390E02830310509F482
:1009600091E08091E8008E778093E8004115510571
:1009700051F6992341F606C080911001882341F079
:10098000853041F08091E80082FFF6CF80E0089545
:1009900082E0089583E008950F931F93DF93CF9330
:1009A000CDB7DEB7AC970FB6F894DEBF0FBECDBFA4
:1009B000E1E1F1E08091F100819321E0E931F2077A
:1009C000C9F70BDD8091E80083FF38C180911101E8
:1009D00030911201353009F487C0363040F431309F
:1009E000C9F1313070F0333009F028C133C03830EC
:1009F00009F4F6C0393009F405C1363009F01EC1DA
:100A000097C0803821F0823809F018C108C0909151
:100A10000D0180910E01882399F0926011C08091A0
:100A2000150187708093E9008091EB0090E025E04C
:100A3000969587952A95E1F7982F91701092E90085
:100A40008091E800877F8093E8009093F1001092F6
:100A5000F100D1C0882319F0823009F0EFC090E096
:100A60008F719070009721F0029709F0E7C00CC0D9
:100A700080911301813009F0E1C010920E013330F2
:100A800069F580930E012AC080911301882331F506
:100A900020911501277009F4D1C02093E9008091BD
:100AA000EB0080FF1BC0333021F48091EB008062AB
:100AB00013C08091EB0080618093EB0081E090E0B7
:100AC00002C0880F991F2A95E2F78093EA001092DE
:100AD000EA008091EB0088608093EB001092E900BF
:100AE0008091E800877F8AC0882309F0A7C0109111
:100AF00013011F770FB7F8948091E800877F8093E8
:100B0000E80002DD8091E80080FFFCCF8091E300E7
:100B10008078812B8093E30080688093E300112329
:100B200011F482E001C083E0809310010FBF86C002
:100B30008058823008F082C0809113019091140196
:100B400023E08C3D920709F033C083E08C838AE276
:100B50008B837FB7F894DE0115966EE040E050E09D
:100B600011E2E62FF0E010935700849140FF03C09C
:100B700082958F706F5F8F70282F30E08A3018F069
:100B8000C901C79602C0C901C0968D939D934F5F5E
:100B90005F4F4431510529F77FBF8091E800877F7F
:100BA0008093E800CE0103966AE270E0F5DD12C0A2
:100BB00060911501AE014F5F5F4F43DCBC010097B0
:100BC00009F43CC08091E800877F8093E800898128
:100BD0009A8181DE8091E8008B778093E8002EC0B7
:100BE000803861F58091E800877F8093E8008091EC
:100BF0000C018093F1008091E8008E778093E800EB
:100C000083DC1CC08823D1F4909113019230B0F49E
:100C10008091E800877F8093E80090930C0174DC5A
:100C200080910C01882331F48091E30087FD02C09C
:100C300081E001C084E080931001D2DB8091E80064
:100C400083FF0AC08091EB0080628093EB0080916B
:100C5000E800877F8093E800AC960FB6F894DEBF7B
:100C60000FBECDBFCF91DF911F910F9108950895D1
:100C70001F9380911001882361F01091E900109278
:100C8000E9008091E80083FF01C086DE17701093B1
:100C9000E9001F91089508951F93CF93DF93EC010E
:100CA0001F8211E08981181721F42A813B8150E8C5
:100CB00006C08C811817C1F42D813E8150E040E0C0
:100CC00088E090E003C04F5F880F991F8217930759
:100CD000D0F360E0511161E060644295407F46606E
:100CE000812FDDDB882321F01F5F1730D9F681E0EB
:100CF000DF91CF911F9108952F923F925F926F9253
:100D00007F928F929F92AF92BF92CF92DF92EF929B
:100D1000FF920F931F93DF93CF9300D0CDB7DEB731
:100D20003C012DB63EB68091E80083FFFFC04091A4
:100D30001101842F90E08F7190708130910561F4E2
:100D4000F301808190E02091150130911601281760
:100D5000390709F0EBC02EC0029761F5F3019181CC
:100D6000992319F460E070E00AC020E09068809157
:100D70001501891321E081E02827622F70E0F3013B
:100D80002481222319F480E090E009C090E0809152
:100D90001501821391E081E09827892F90E020E0EF
:100DA00030E0672B11F021E030E0822B932B892B70
:100DB00009F4BCC090901201FBE09F16A9F0F91550
:100DC00030F0892D8150843008F0B0C02BC021E86C
:100DD000921608F4ABC034E8391508F06CC06FEF18
:100DE000961609F0A3C013C0413009F09FC080914E
:100DF000E800877F8093E80087DB90E08091130113
:100E0000811191E0F3019783C30145DF8FC0415207
:100E1000423008F08BC08091E800877F8093E80023
:100E200073DB84C0423209F081C08090150150907C
:100E30001401C301692D482D252D00E010E0EE249A
:100E4000FF2462DA882309F471C0BDB6AEB6809182
:100E50001701909118019A8389832DB73EB7281BFB
:100E6000390B0FB6F8943EBF0FBE2DBFCDB6DEB620
:100E70000894C11CD11C8091E800877F8093E80012
:100E800069817A81C601E6DC8091E8008E778093E3
:100E9000E800C301692D482D252D8E010F5F1F4FDE
:100EA000760132DA2B2D3A2DC9010FB6F8949EBF88
:100EB0000FBE8DBF3BC0423AC9F5CDB68EB640914C
:100EC00015012091140180911701909118019A83C6
:100ED00089836DB77EB7681B790B0FB6F8947EBF18
:100EE0000FBE6DBFADB6BEB60894A11CB11CC30148
:100EF000692D8E010F5F1F4F750106DA882371F08F
:100F00008091E800877F8093E80069817A81C5013C
:100F100043DC8091E8008B778093E8008C2D982D3E
:100F20009C010FB6F8943EBF0FBE2DBF0FB6F894CC
:100F30003EBE0FBE2DBE0F900F90CF91DF911F913F
:100F40000F91FF90EF90DF90CF90BF90AF909F9068
:100F50008F907F906F905F903F902F900895A1E2C7
:100F60001A2EAA1BBB1BFD010DC0AA1FBB1FEE1F23
:100F7000FF1FA217B307E407F50720F0A21BB30B6E
:100F8000E40BF50B661F771F881F991F1A9469F7EA
:100F900060957095809590959B01AC01BD01CF0146
:060FA0000895F894FFCF54
:0C0FA600010000000100010080BB000001
:00000001FF
