:10000000A6C00000C1C00000BFC00000BDC000000D
:10001000BBC00000B9C00000B7C00000B5C0000000
:10002000B3C00000B1C00000BFC20000ADC00000FE
:10003000ABC00000A9C00000A7C00000A5C0000020
:10004000A3C00000A1C000009FC000009DC0000030
:100050009BC0000099C0000097C0000095C0000040
:1000600093C0000091C000008FC000008DC0000050
:100070008BC0000089C0000087C0000085C0000060
:1000800083C0000081C000007FC000007DC0000070
:100090007BC0000079C000001201100100000008C0
:1000A000EB03482001000102000109026500020182
:1000B00000C0320904000000010100000924010011
:1000C00001090001010904010002010300000724E5
:1000D000010001410006240201010006240202027F
:1000E00000092403010301020100092403020401A1
:1000F000010100090502024000010000052501017F
:1001000001090581024000010000052501010304E9
:1001100003090418034400650061006E00200043D9
:100120000061006D0065007200610000001E034C5C
:100130000055004600410020004D004900440049A0
:10014000002000440065006D006F000000001124D5
:100150001FBECFEFD0E2DEBFCDBF11E0A0E0B1E027
:10016000E0E0FDE000E00BBF02C007900D92A03080
:10017000B107D9F711E0A0E0B1E001C01D92AE30A7
:10018000B107E1F7F3D0BAC53BCF8BB18F70806A6E
:100190008BB908958BB18F7080618BB908951F93CF
:1001A000DF93CF9300D000D0CDB7DEB780910501AB
:1001B000843009F08EC081E08093E9008091E800EE
:1001C00080FF55C013B18CB1809590E08073907022
:1001D000959587951095107E182B809100018127A9
:1001E000629B02C040E001C049E0382F90E086FFEA
:1001F00005C016FD02C090E801C090E987FD02C06D
:100200002CE306C017FD02C090E801C090E92DE381
:1002100033FF06C013FD02C090E801C090E92EE351
:1002200034FF06C014FD02C090E801C090E92FE33E
:1002300035FF04C015FF4AC090E949C09923A9F0D1
:10024000892F82958F708983942B9A832B8380E4E6
:100250008C83CE01019664E070E040E050E07DD3F5
:100260008091E8008E778093E8001093000182E08F
:100270008093E9008091E80082FF2BC0CE010196B7
:1002800064E070E040E050E016D389818F708930DF
:1002900071F48C81882359F08B81813410F490E2C1
:1002A00001C090E18BB18F70982B9BB903C08BB1CB
:1002B0008F708BB98091F2009091F300892B49F4F3
:1002C0008091E8008B778093E80003C090E82BE3EF
:1002D000B7CF0F900F900F900F90CF91DF911F919C
:1002E00008950F931F9381E061E842E376D0082FD1
:1002F00082E060E842E371D010E090E00823192327
:1003000000FF02C090E601C090E98BB18F70982B7E
:100310009BB91F910F91089584B7877F84BF88E1AF
:100320000FB6F89480936000109260000FBE80E0DA
:1003300090E020E80FB6F89420936100809361006C
:100340000FBE84B18F7184B98DB18F7C8DB985B1A9
:10035000806E85B98EB180638EB98AB1806F8AB99B
:100360008BB18F708BB96A98729A08C1D5DF8BB147
:100370008F7080618BB9789412DFADD4FDCFDA0134
:10038000923049F0933061F09130F9F4E8E9F0E00F
:1003900022E130E01EC0EAEAF0E025E630E019C0D4
:1003A000813049F0813018F0823079F408C0EFE0F4
:1003B000F1E0849107C0E3E1F1E0849103C0EDE254
:1003C000F1E08491282F30E004C0E0E0F0E020E08C
:1003D00030E0ED93FC93C9010895382F282F2CC0ED
:1003E0002093E900231721F4762F942F50E006C0C4
:1003F0007091EC009091ED005091F00091FF1BC0C6
:100400008091EB008E7F8093EB008091ED008D7FDB
:100410008093ED008091EB0081608093EB007093FE
:10042000EC009093ED005093F0008091EE0087FD7A
:1004300002C080E008952F5F273090F23093E900EA
:1004400081E008958091060188239CF404C0809186
:1004500005018823B9F08091E80082FFF8CF8091F0
:10046000E8008B778093E800089580910501882348
:1004700049F08091E80080FFF8CF8091E8008E7706
:100480008093E80008954091E4005091E50024E64F
:100490008091EC0080FF24C08091E80080FD1EC0A8
:1004A00080910501882311F482E00895853011F4CC
:1004B00083E008958091EB0085FF02C081E00895FC
:1004C0008091E4009091E5008417950709F32223B9
:1004D00011F484E008952150AC01DACF80E0089552
:1004E0008091E80082FFDCCFF9CFEF92FF920F936B
:1004F0001F934DD054D008ED10E0F80180818F7724
:10050000808380818068808380818F7D8083E7ED18
:10051000F0E080818068808319BC10920501109200
:100520000101109203011092020180EEE82EF12CDD
:10053000F70180818B7F8083F801808181608083D7
:1005400080E060E042E049DFE1EEF0E080818E7F14
:100550008083E2EEF0E0808181608083808188602A
:100560008083F70180818E7F8083F80180818061A4
:1005700080831F910F91FF90EF900895E7EDF0E0D9
:1005800080818160808381E080930401AECFE8EDBB
:10059000F0E080818C7F80831092E20008951092B9
:1005A000DA001092E10008951F920F920FB60F9299
:1005B0000BB60F9211242F933F934F935F936F933A
:1005C0007F938F939F93AF93BF93EF93FF9380910C
:1005D000E10082FF0AC08091E20082FF06C08091A4
:1005E000E1008B7F8093E10075D38091DA0080FF7A
:1005F0001DC08091D80080FF19C08091DA008E7FE5
:100600008093DA008091D90080FF0CC08CE089BD16
:100610008EE089BD09B400FEFDCF81E08093050125
:10062000B4DD04C019BC10920501B4DD8091E10075
:1006300080FF18C08091E20080FF14C08091E2002A
:100640008E7F8093E2008091E20080618093E200DF
:100650008091D80080628093D80019BC85E0809397
:10066000050138D38091E10084FF2DC08091E20024
:1006700084FF29C08CE089BD8EE089BD09B400FEED
:10068000FDCF8091D8008F7D8093D8008091E100CC
:100690008F7E8093E1008091E2008F7E8093E20064
:1006A0008091E20081608093E200809101018823C3
:1006B00031F48091E30087FD02C081E001C084E055
:1006C0008093050107D38091E10083FF22C08091D0
:1006D000E20083FF1EC08091E100877F8093E100EC
:1006E00082E080930501109201018091E1008E7FEC
:1006F0008093E1008091E2008E7F8093E200809100
:10070000E20080618093E20080E060E042E065DE2C
:10071000E1D2FF91EF91BF91AF919F918F917F9126
:100720006F915F914F913F912F910F900BBE0F9062
:100730000FBE0F901F9018959C0140910C01509195
:100740000D014617570718F4F90190E03DC06115F7
:10075000710511F0AB01F8CF8091E8008E7780939E
:10076000E80040E050E0F0CF809105018823F1F1EE
:100770008530F1F18091E80083FF02C081E00895A7
:100780008091E80082FD2CC08091E80080FF1CC0B1
:100790002091F2003091F30007C081918093F10025
:1007A000415050402F5F3F4F4115510519F02830FF
:1007B000310598F390E02830310509F491E08091FB
:1007C000E8008E778093E8004115510569F699237A
:1007D00059F606C080910501882341F0853041F02B
:1007E0008091E80082FFF6CF80E0089582E00895CE
:1007F00083E008959C0140910C0150910D01461732
:10080000570718F4F90190E040C06115710511F027
:10081000AB01F8CF8091E8008E778093E80040E04C
:1008200050E0F0CF80910501882309F440C0853065
:1008300009F43FC08091E80083FF02C081E0089581
:100840008091E80082FD2DC08091E80080FF1DC0EE
:100850002091F2003091F30008C084918093F10060
:100860003196415050402F5F3F4F4115510519F0CF
:100870002830310590F390E02830310509F491E0FB
:100880008091E8008E778093E8004115510551F67C
:10089000992341F606C080910501882341F08530F7
:1008A00041F08091E80082FFF6CF80E0089582E079
:1008B000089583E00895BF92CF92DF92EF92FF9266
:1008C0000F931F93CF93DF93182F092F7B016A019A
:1008D000DADDB82E8823B1F5812F902F9C01E90134
:1008E000C114D10439F0F60180819181E81AF90A26
:1008F000C80FD91F00E010E022C08091E80085FDFC
:1009000016C08091E8008B778093E800E4D1C11491
:10091000D10449F0F60180819181800F911F91836C
:10092000808385E010C0AFDD882349F00CC0809142
:10093000F10089930894E108F1080F5F1F4FE1145B
:10094000F104D9F68B2DDF91CF911F910F91FF907C
:10095000EF90DF90CF90BF900895BF92CF92DF923B
:10096000EF92FF920F931F93CF93DF93182F092FCE
:100970007B016A0188DDB82E8823B1F5812F902F85
:100980009C01E901C114D10439F0F6018081918103
:10099000E81AF90AC80FD91F00E010E022C08091C0
:1009A000E80085FD16C08091E8008E778093E8000E
:1009B00092D1C114D10449F0F60180819181800F58
:1009C000911F9183808385E010C05DDD882349F00D
:1009D0000CC089918093F1000894E108F1080F5F41
:1009E0001F4FE114F104D9F68B2DDF91CF911F91A8
:1009F0000F91FF90EF90DF90CF90BF9008950F93ED
:100A00001F93DF93CF93CDB7DEB7AC970FB6F894B3
:100A1000DEBF0FBECDBFE6E0F1E08091F100819333
:100A200021E0EE30F207C9F755D18091E80083FF4D
:100A300038C18091060130910701353009F487C033
:100A4000363040F43130C9F1313070F0333009F0D4
:100A500028C133C0383009F4F6C0393009F405C173
:100A6000363009F01EC197C0803821F0823809F075
:100A700018C108C09091020180910301882399F068
:100A8000926011C080910A0187708093E900809183
:100A9000EB0090E025E0969587952A95E1F7982F51
:100AA00091701092E9008091E800877F8093E800C0
:100AB0009093F1001092F100D1C0882319F0823098
:100AC00009F0EFC090E08F719070009721F00297CD
:100AD00009F0E7C00CC080910801813009F0E1C045
:100AE00010920301333069F5809303012AC080918D
:100AF0000801882331F520910A01277009F4D1C03B
:100B00002093E9008091EB0080FF1BC0333021F47B
:100B10008091EB00806213C08091EB008061809334
:100B2000EB0081E090E002C0880F991F2A95E2F760
:100B30008093EA001092EA008091EB008860809335
:100B4000EB001092E9008091E800877F8AC088233B
:100B500009F0A7C0109108011F770FB7F894809192
:100B6000E800877F8093E8006DDC8091E80080FFDB
:100B7000FCCF8091E3008078812B8093E300806834
:100B80008093E300112311F482E001C083E080939D
:100B900005010FBF86C08058823008F082C0809166
:100BA00008019091090123E08C3D920709F033C0C0
:100BB00083E08C838AE28B837FB7F894DE011596FD
:100BC0006EE040E050E011E2E62FF0E010935700B5
:100BD000849140FF03C082958F706F5F8F70282FC4
:100BE00030E08A3018F0C901C79602C0C901C0962A
:100BF0008D939D934F5F5F4F4431510529F77FBF20
:100C00008091E800877F8093E800CE0103966AE236
:100C100070E092DD12C060910A01AE014F5F5F4F3C
:100C2000AEDBBC01009709F43CC08091E800877FEF
:100C30008093E80089819A81DDDD8091E8008B77DF
:100C40008093E8002EC0803861F58091E800877FAE
:100C50008093E800809101018093F1008091E80089
:100C60008E778093E800EEDB1CC08823D1F490914E
:100C700008019230B0F48091E800877F8093E8000B
:100C800090930101DFDB80910101882331F4809191
:100C9000E30087FD02C081E001C084E0809305018C
:100CA00020DB8091E80083FF0AC08091EB00806226
:100CB0008093EB008091E800877F8093E800AC96FA
:100CC0000FB6F894DEBF0FBECDBFCF91DF911F915D
:100CD0000F91089508951F9380910501882361F075
:100CE0001091E9001092E9008091E80083FF01C0B3
:100CF00086DE17701093E9001F910895F894FFCFD6
:00000001FF
