:100000009FC10000BBC10000B9C10000B7C1000022
:10001000B5C10000B3C10000B1C10000AFC1000014
:10002000ADC10000ABC100000C945009A7C1000095
:10003000A5C10000A3C10000A1C100009FC1000034
:100040009DC100009BC1000099C1000097C1000044
:1000500095C1000093C1000091C100008FC1000054
:100060008DC100008BC1000089C1000087C1000064
:1000700085C1000083C1000081C100007FC1000074
:100080007DC100007BC1000079C1000077C1000084
:1000900075C1000073C100001B5B33316D436F6D90
:1000A0006D616E64204572726F7220282553292E6F
:1000B0000D0A202D2D204572726F7220436F6465EA
:1000C0002025640D0A1B5B33376D005472616E731B
:1000D000616374696F6E204661696C00526573706C
:1000E0006F6E736520436F646520213D204F4B0088
:1000F000446F6E652E0D0A00436C6F73696E672046
:1001000053657373696F6E2E2E2E0D0A004F706546
:100110006E696E672053657373696F6E2E2E2E0D98
:100120000A00202020446576696365205665727355
:10013000696F6E3A2025730D0A002020204D6F64F0
:10014000656C3A2025730D0A002020204D616E75E4
:1001500066616374757265723A2025730D0A0052E8
:10016000657472696576696E672044657669636552
:1001700020496E666F2E2E2E0D0A001B5B33316DEB
:1001800044657620456E756D204572726F720D0A5A
:10019000202D2D204572726F7220436F64652025DB
:1001A000640D0A202D2D20537562204572726F72E6
:1001B00020436F64652025640D0A202D2D20496E93
:1001C0002053746174652025640D0A1B5B33376D01
:1001D000001B5B33316D486F7374204D6F64652075
:1001E0004572726F720D0A202D2D204572726F724A
:1001F00020436F64652025640D0A1B5B33376D0057
:100200005374696C6C20496D61676520446576693B
:10021000636520456E756D6572617465642E0D0AA7
:10022000001B5B33316D436F6E74726F6C204572CF
:10023000726F72202853657420436F6E666967750C
:10024000726174696F6E292E0D0A202D2D20457262
:10025000726F7220436F64653A2025640D0A1B5B40
:1002600033376D00202D2D204572726F7220436F41
:1002700064653A2025640D0A1B5B33376D001B5BF8
:1002800033316D496E76616C6964204465766963CB
:10029000652E0D0A001B5B33316D436F6E74726FF8
:1002A0006C204572726F72202847657420436F6E10
:1002B00066696775726174696F6E292E0D0A004751
:1002C000657474696E6720436F6E66696720446168
:1002D00074612E0D0A001B5B33326D0D0A44657686
:1002E00069636520556E61747461636865642E0D81
:1002F0000A1B5B33376D001B5B33326D44657669D7
:1003000063652041747461636865642E0D0A1B5B2C
:1003100033376D001B5B33366D5374696C6C204949
:100320006D61676520486F73742044656D6F20723E
:10033000756E6E696E672E0D0A1B5B33376D00009C
:1003400011241FBECFEFD0E2DEBFCDBF11E0A0E091
:10035000B1E0ECE7FFE100E00BBF02C007900D92B7
:10036000A231B107D9F711E0A2E1B1E001C01D92BD
:10037000AC37B107E1F721D30C94BC0F41CECF933A
:10038000DF93FC01DB012081EB01922F04C081810E
:100390008993915032969923D1F7A20FB11D1C92E7
:1003A000DF91CF910895482F662319F42BEC30E0AC
:1003B00002C02CED30E000D000D000D0EDB7FEB789
:1003C000319688E990E0ADB7BEB712969C938E93B4
:1003D000119733832283448315820E94CC0C8BB106
:1003E0008F7080698BB98DB79EB706960FB6F8945B
:1003F0009EBF0FBE8DBF0895909167012DB73EB788
:10040000285030400FB6F8943EBF0FBE2DBFEDB759
:10041000FEB731962BE731E0ADB7BEB712963C93ED
:100420002E93119782831382648315829683178299
:100430000E94CC0C8BB18F7080698BB92DB73EB701
:10044000285F3F4F0FB6F8943EBF0FBE2DBF0895F3
:1004500086ED92E00E94EE0C8BB18F7080618BB9BB
:10046000089587EF92E00E94EE0C8BB18F70806A46
:100470008BB908952F923F924F925F926F927F9225
:100480008F929F92AF92BF92CF92DF92EF92FF92A4
:100490000F931F93DF93CF9300D00F92CDB7DEB7AA
:1004A0002DB73EB73A8329832DB63EB73B83809163
:1004B00067018B3009F0AFC18BB18F7080628BB94F
:1004C0008FE591E00E94EE0C28E1322E9DE2492E4C
:1004D00091E0592ED201E32D1D92EA95E9F78CE0C7
:1004E00090E0A0E0B0E080932D0190932E01A093C6
:1004F0002F01B093300181E090E09093320180931E
:10050000310181E090E190933401809333013DD338
:1005100066D3882309F055C1609145017091460169
:100520006C5070402DB73EB7261B370B0FB6F894B2
:100530003EBF0FBE2DBF0DB71EB70F5F1F4FC801C7
:100540000FD38091A6008E778093A600D8011896CD
:10055000EC91F0E0EE0FFF1FE00FF11F3996A28142
:10056000B381AA0FBB1FAE0FBF1F1696ED91FC9172
:100570001197EE0FFF1F3496EA0FFB1FA081B18188
:10058000AA0FBB1F1496AE0FBF1FED91FC911197E0
:10059000EE0FFF1F3496EA0FFB1F00811181000F41
:1005A000111F0C5F1F4F0E0F1F1FF80180812DB709
:1005B0003EB7281B31090FB6F8943EBF0FBE2DBFC2
:1005C000EDB6FEB60894E11CF11CC801B701D7DEF8
:1005D00000D000D0EDB7FEB7319689E491E0ADB719
:1005E000BEB712969C938E931197E282F3820E947B
:1005F000CC0CF8018081E82EFF24EE0CFF1C08943F
:10060000E11CF11CE00EF11ED7018C910F900F90B0
:100610000F900F90EDB7FEB7E81BF1090FB6F894F5
:10062000FEBF0FBEEDBF0DB71EB70F5F1F4FC70157
:10063000B801A5DE00D000D0EDB7FEB731968AE351
:1006400091E0ADB7BEB712969C938E93119702833B
:1006500013830E94CC0CD701EC91F0E0EE0FFF1F4A
:100660003196EE0DFF1D80810F900F900F900F902F
:100670002DB73EB7281B31090FB6F8943EBF0FBE09
:100680002DBF0DB71EB70F5F1F4FCF01B80177DE2B
:1006900000D000D0EDB7FEB7319682E291E0ADB761
:1006A000BEB712969C938E931197028313830E9478
:1006B000CC0C0F900F900F900F9091D2882309F0DF
:1006C00080C08091490190914A01039709F087C049
:1006D000E0904B01F0904C01B1E0EB16F10409F011
:1006E0007EC08DE091E00E94EE0CF201232D11926C
:1006F0002A95E9F790E1692E712C812C912C60925A
:100700002D0170922E0180922F0190923001F09273
:100710003201E092310182E090E1909334018093C4
:10072000330181E0A82EB12CC12CD12CA09239012B
:10073000B0923A01C0923B01D0923C0126D24FD2F6
:10074000882309F03EC08091490190914A010397A6
:1007500009F045C0E0904B01F0904C0131E0E31608
:10076000F10409F03CC088EF90E00E94EE0CD20149
:100770001D923A94E9F760922D0170922E018092B9
:100780002F0190923001F0923201E092310183E02A
:1007900090E19093340180933301A0923501B0929F
:1007A0003601C0923701D0923801A0923901B0923F
:1007B0003A01C0923B01D0923C01E7D110D288238C
:1007C00011F060E00FC08091490190914A010397B8
:1007D00031F480914B0190914C01019741F080914F
:1007E0004B0161E0E0DD80E00E94770C14C080EFF7
:1007F00090E00E94EE0C8BB18F7080668BB980E028
:100800000E94770C222D3B81C9010FB6F8949EBF40
:100810000FBE8DBF08C0822D9B819C010FB6F8943E
:100820003EBF0FBE2DBFE981FA810FB6F894FEBF1F
:100830000FBEEDBF0F900F900F90CF91DF911F91E2
:100840000F91FF90EF90DF90CF90BF90AF909F906F
:100850008F907F906F905F904F903F902F90089572
:100860001F93182FF8D400D000D0EDB7FEB7319603
:1008700081ED91E0ADB7BEB712969C938E93119720
:10088000128313820E94CC0C8BB18F7080698BB95C
:100890000F900F900F900F90FFCF1F938FEB92E070
:1008A0000E94EE0CBBD0182F8823C1F0813019F4C0
:1008B00085E992E002C08EE792E00E94EE0C00D043
:1008C00000D0EDB7FEB7319684E692E0ADB7BEB783
:1008D00012969C938E931197128314C081E00E940C
:1008E000770C282F8823D1F000D000D0EDB7FEB7C9
:1008F000319681E292E0ADB7BEB712969C938E938B
:100900001197228313820E94CC0C8BB18F70806967
:100910008BB90F900F900F900F9008C080E092E07D
:100920000E94EE0C8BB18F7080668BB91F91089579
:1009300084B7877F84BF28E10FB6F89420936000C6
:10094000109260000FBEE1E6F0E080E88083108244
:1009500083E390E09093CD008093CC0086E0809379
:10096000CA001092C8002093C900539A5A9A8AB1BB
:10097000806F8AB98BB18F708BB964D4E8E6F1E0EF
:10098000F0937701E0937601F0937901E093780199
:100990008EE0DF011D928A95E9F783E080936B0179
:1009A0008EEA9CE0909371018093700188EB9CE04B
:1009B00090937301809372010895BADF84E193E00C
:1009C0000E94EE0C8BB18F7080618BB9789452DDF0
:1009D000B3D7FDCFFC018181843059F48581863005
:1009E00041F48681813029F48781813011F480E0DF
:1009F000089582E00895FC018181853049F4838166
:100A000090E0837090700297029730F480E0089530
:100A1000843011F481E0089582E008956F927F920E
:100A20008F929F92AF92BF92CF92DF92EF92FF92FE
:100A30000F931F93DF93CF93CDB7DEB7C450D2404F
:100A40000FB6F894DEBF0FBECDBFAE014B5F5F4F58
:100A50005A8349838E010D5F1F4F81E0B80120E06A
:100A600032E0A3D5853029F0863091F0882319F043
:100A700011C082E05FC088249924EE24FF24CC2496
:100A8000DD24AA24BB2438018E010F5F1F4F04C050
:100A900083E050C081E04EC08114910439F0C3015D
:100AA000B8014BEF54E03DD5882391F0C301B80164
:100AB0004AEE54E036D5882311F084E03BC08980AB
:100AC0009A80AA24BB24CC24DD24EE24FF24E4CF86
:100AD000E981FA81828187FD02C06F0107C08381AD
:100AE0008370833011F07F0101C05F01E114F104D4
:100AF00099F2C114D10481F2F7010481158181E0DA
:100B000062E040E12281EE24ACD2F601048115813D
:100B100082E062E040E22281A4D2F50104811581E5
:100B200083E063E040E122819CD2F50186818093DD
:100B3000AD0080E0CC5FDD4F0FB6F894DEBF0FBE96
:100B4000CDBFCF91DF911F910F91FF90EF90DF907C
:100B5000CF90BF90AF909F908F907F906F900895AF
:100B60000F931F9321E02093A70009EA10E0F801FA
:100B700020812F7B208340E050E025D4F801908134
:100B8000906490831F910F91089582E08093A70055
:100B90008091A9008F7B8093A9008DE291E06CE0A9
:100BA00070E040E050E066D48091310190913201D4
:100BB000019779F460912D016C5031F089E391E057
:100BC00070E040E050E056D48091A6008B7780938F
:100BD000A6008091A90080648093A90008954091A7
:100BE000A2005091A30081E08093A7008091A9000A
:100BF0008F7B8093A90020E137E272E061E042C080
:100C00008091A2009091A3008417950731F02150A4
:100C1000304011F483E00895AC018091A900806414
:100C20008093A9007093A7008091A9008F7B809387
:100C3000A9008091A60081FD10C08091A900806468
:100C40008093A9006093A7008091A9008F7B809377
:100C5000A9008091A60081FF0FC09091AA00809109
:100C6000AA008073803111F080E001C080E89F709D
:100C7000892B26D681E0089580916701813011F497
:100C800082E008958091A60080FFBACF85E491E0CC
:100C90006CE070E040E050E096D380914901909183
:100CA0004A01039779F4609145016C5031F081E578
:100CB00091E070E040E050E086D38091A6008E770E
:100CC0008093A6008091A90080648093A90080E0B1
:100CD0000895982F20919E003091A0008091A0004F
:100CE0008F7D8093A00080919F008F7D80939F00D7
:100CF00080919E00816080939E0028C080919F001B
:100D000085FF06C080919F008F7D80939F0091504A
:100D100080916701813011F491E01AC08091A600A2
:100D200084FF09C01092F5008091A6008F7E809309
:100D3000A60092E00DC08091A60081FF07C08091BF
:100D4000A6008D7F8093A60093E002C09923B1F6A0
:100D500020FD05C080919E008E7F80939E0035FF10
:100D600005C08091A00080628093A000892F089523
:100D700060919E008091A0008D7F8093A000809163
:100D80009E00826080939E0080919E0081FDFCCF3A
:100D900080919E00816080939E0010925D01309151
:100DA000A0008091A0008F7D8093A00080919F0083
:100DB0008F7D80939F002AE040ED57E080919F0057
:100DC00085FF0BC080919F008F7D80939F00809155
:100DD0009F008D7F80939F0005C0CA010197F1F7A6
:100DE000215061F735FF05C08091A000806280939B
:100DF000A00060FD05C080919E008E7F80939E00C4
:100E00008091A00082608093A0000895EF920F93DC
:100E10001F93DF93CF93CDB7DEB728970FB6F89423
:100E2000DEBF0FBECDBF80916701853009F494C04D
:100E3000863068F48230B9F1833018F48823A1F049
:100E400004C18330D1F1843009F0FFC05DC0873028
:100E500009F49BC0873008F48AC0883009F4B3C015
:100E6000893009F0F2C0D7C000911301109114012C
:100E70000115110509F4E9C081E02BDF682F8823F3
:100E800031F0809112018093670191E0DAC0C801CE
:100E900001979093140180931301892B09F0D5C019
:100EA0008091120107C088EE93E090931401809323
:100EB000130183E080936701C8C080911301909172
:100EC000140101979093140180931301019629F066
:100ED00080ED97E00197F1F7B8C077988091D8003E
:100EE00080618093D8008091DD008B7F8093DD004E
:100EF0008091D70080618093D7008091DD0082606F
:100F00008093DD0084E0D6CF80919F0080FF9DC05C
:100F100080919F008E7F80939F0080919F008D7FA6
:100F200080939F008091DF008D7F8093DF00809110
:100F3000DE0082608093DE0080919E00816080935D
:100F40009E00EDD01092670184E690E0909314012A
:100F50008093130185E05CC00BDF1092670188EC81
:100F600090E0909314018093130186E051C080E0DB
:100F700060E040E020E000E410E0EE2472D08091D8
:100F8000AC0087FF5CC087E095CFAFE5B1E0E8E05B
:100F9000F1E088E001900D928150E1F7CE010196D9
:100FA00088D3682F882309F048C088858093100172
:100FB000DFDE1092670188EC90E09093140180933B
:100FC000130188E025C00091100180E060E040E05E
:100FD00020E010E0EE2445D08091AC0087FF2FC0C8
:100FE000AFE5B1E0E0E0F1E088E001900D928150E2
:100FF000E1F780E090E05DD3682F8823F1F4109250
:10100000670184E690E0909314018093130189E0D6
:10101000809312011AC081E08093A1008AE080933E
:1010200067013BDC12C0892FE7D98091DD00816028
:101030008093DD000DDAB6D008C093E002C094E0E2
:1010400060E080916701813071F728960FB6F894BF
:10105000DEBF0FBECDBFCF91DF911F910F91EF90FB
:101060000895EF920F931F93E82F7E2D6295660FE0
:10107000660F607C642B2F70622B382F726045C026
:101080003093A7003E17A1F488E090E020E003C071
:101090002F5F880F991F8017910710F42530C1F733
:1010A000922F9295907F972B562F40E020E008C01A
:1010B0005091AA009091AB004091AD002091AE00FC
:1010C00091FF22C08091A9008E7F8093A90080911A
:1010D000AB008D7F8093AB008091A90081608093ED
:1010E000A9005093AA009093AB004093AD002093C9
:1010F000AE008091A90080628093A9008091AC002D
:1011000087FD02C080E007C03F5F373008F4B8CFEA
:10111000E093A70081E01F910F91EF900895109246
:10112000F80090E09093A7001092AE001092A600F5
:101130001092AB008091A9008E7F8093A9009F5FE1
:10114000973081F708954091A2005091A30024E6C2
:101150008091AA008073803129F48091A60080FFDD
:1011600005C01EC08091A60082FD1AC08091A60015
:1011700081FF02C081E0089580916701813011F400
:1011800082E008958091A2009091A30084179507B2
:10119000F9F2222311F483E008952150AC01D8CF55
:1011A00080E0089570D077D08091D8008F778093B9
:1011B000D8008091D80080688093D8008091D800B2
:1011C0008F7D8093D8008091D7008F778093D70050
:1011D0008CE089BD8EE089BD09B400FEFDCF81E0C1
:1011E0008093670110925D0180E4809310018091EB
:1011F000D80080648093D8008091DD008160809366
:10120000DD008091DD0084608093DD008091D70057
:101210008F7E8093D7006F9A779A8091DE008160ED
:101220008093DE008091DE0084608093DE008091F8
:10123000E0008E7F8093E0008091D80080618093F1
:10124000D8000895E7EDF0E080818160808381E03F
:1012500080935E01A7CF17D01ED0E0EEF0E0808132
:1012600081608083A8EDB0E08C918F778C9319BC5E
:10127000E7EDF0E080818E7F80838C918F7E8C9370
:1012800010925E010895E8EDF0E080818C7F80830C
:101290001092A00008951092DA0010929F00089515
:1012A0001F920F920FB60F920BB60F9211242F932D
:1012B0003F934F935F936F937F938F939F93AF93DE
:1012C000BF93EF93FF9380919F0085FF0AC08091A9
:1012D000A00085FF06C080919F008F7D80939F00B6
:1012E000BED180919F0081FF15C08091A00081FF39
:1012F00011C080919F008D7F80939F0080919F00FF
:101300008E7F80939F008091A0008D7F8093A000AE
:101310009FD848DF8091DF0081FF15C08091DE00FB
:1013200081FF11C08091DF008D7F8093DF0077986F
:101330008091DD0081608093DD0080E091DA88D8C3
:1013400081E0809367018091DF0080FF17C080916A
:10135000DE0080FF13C08091DF008E7F8093DF006E
:101360008091DE008E7F8093DE007BD88091A0008C
:1013700082608093A00082E0809367018091DF000B
:1013800082FF0EC08091DE0082FF0AC08091DF00E4
:101390008B7F8093DF0082E060E02ED859D802DF97
:1013A000FF91EF91BF91AF919F918F917F916F913D
:1013B0005F914F913F912F910F900BBE0F900FBEF9
:1013C0000F901F901895BF92CF92DF92EF92FF92ED
:1013D0000F931F93CF93DF93182F092F7B016A017F
:1013E0008091AA008F7C80618093AA00ACDEB82E29
:1013F0008823A9F5812F902F9C01E901C114D10404
:1014000039F0F60180819181E81AF90AC80FD91FD5
:1014100000E010E021C08091A60085FD15C08091FC
:10142000A6008E778093A600C114D10449F0F6017E
:1014300080819181800F911F9183808384E010C00F
:1014400082DE882349F00CC08091AF008993089414
:10145000E108F1080F5F1F4FE114F104E1F68B2D55
:10146000DF91CF911F910F91FF90EF90DF90CF9080
:10147000BF900895BF92CF92DF92EF92FF920F93A9
:101480001F93CF93DF93182F092F7B016A0180915F
:10149000AA008F7C80628093AA0055DEB82E882334
:1014A000A9F5812F902F9C01E901C114D10439F0D5
:1014B000F60180819181E81AF90AC80FD91F00E06E
:1014C00010E021C08091A60085FD15C08091A60086
:1014D0008B778093A600C114D10449F0F601808176
:1014E0009181800F911F9183808384E010C02BDE57
:1014F000882349F00CC089918093AF000894E108DB
:10150000F1080F5F1F4FE114F104E1F68B2DDF911D
:10151000CF911F910F91FF90EF90DF90CF90BF90F0
:101520000895AF92BF92CF92DF92EF92FF920F9306
:101530001F93CF93DF937C01EB016A0124C0E88104
:10154000F981BE2EAF2E808190E09801801791071F
:1015500008F49C01E20FF31FF983E883F70180810F
:101560009181821B930B9183808388819981F601FD
:101570000995823041F0813069F4B882A982F7017F
:101580001183008307C0F701008111810115110546
:10159000B1F682E0DF91CF911F910F91FF90EF9014
:1015A000DF90CF90BF90AF900895CF92DF92EF92EF
:1015B000FF920F931F93DF93CF93CDB7DEB7299799
:1015C0000FB6F894DEBF0FBECDBF6B018A01790163
:1015D00090E890935F0196E09093600190E001970E
:1015E0009260909362018093610110926401109265
:1015F000630189E090E09093660180936501109209
:10160000A700CE01019655D0282F8823C1F48B81E5
:101610009C81F60191838083E816F90610F425E099
:101620000EC09093660180936501C80142D0282FB7
:10163000882329F4F8018181823009F026E0822F85
:1016400029960FB6F894DEBF0FBECDBFCF91DF91C4
:101650001F910F91FF90EF90DF90CF900895089524
:101660001F93CF93DF93182FC8EED3E009C081E01A
:1016700030DB8823D1F4209711F484E016C0219741
:10168000112329F48091A60083FFF1CF0DC0113002
:1016900029F48091A60080FFEACF06C0123039F706
:1016A0008091A60082FFE3CF80E0DF91CF911F9170
:1016B0000895FF920F931F93CF93DF93182F092F55
:1016C000F0909E00C0916501D091660180919E00CE
:1016D000816080939E0081E0FCDA982F882309F0D6
:1016E000D7C08091AA008F7C8093AA001092F50049
:1016F0008091A6008F7E8093A6008091A9008F7BA9
:101700008093A900EFE5F1E081918093AF0081E043
:10171000E736F807C9F78091A60087778093A6007F
:1017200080E09EDF982F882309F0B2C08091A90045
:1017300080648093A90081E0CCDA982F882309F097
:10174000A7C0212F302FC9018C0180915F0187FF35
:1017500052C08091AA008F7C80618093AA000115FD
:10176000110569F52EC08091A9008F7B8093A90097
:1017700081E076DF982F882309F08AC08091F600F7
:101780009091F700892B49F4C0E0D0E006C0809129
:10179000AF00F80181938F0121978091F60090911D
:1017A000F700892B11F0209791F78091A9008064B0
:1017B0008093A9008091A6008E778093A600209741
:1017C00091F68091AA008F7C80628093AA0080911C
:1017D000A9008F7B8093A90082E042DF982F8823A5
:1017E00009F056C08091A6008B778093A60082E016
:1017F00037DF982F4DC001151105A9F18091AA007E
:101800008F7C80628093AA008091A9008F7B809357
:10181000A9001DC082E024DF982F8823C9F580919C
:101820001001282F30E007C0F80181918F018093CB
:10183000AF00219739F08091F6009091F700821760
:10184000930790F38091A6008B778093A600209752
:1018500009F782E005DF982F8823D1F48091A90051
:1018600080648093A9008091AA008F7C806180931E
:10187000AA008091A9008F7B8093A90081E0F0DE0F
:10188000982F882329F48091A6008E778093A60054
:101890008091A90080648093A900F0FC05C080912C
:1018A0009E008E7F80939E0081E08093A80010921E
:1018B000A800892FDF91CF911F910F91FF9008957C
:1018C00092E090935F0191E0909360011092620129
:1018D000109261018093630110926401109266017D
:1018E000109265011092A70080E090E0E2CE1F9375
:1018F000182F10925F0189E08093600110936101BD
:1019000010926201109264011092630110926601BC
:10191000109265011092A70080E090E0CADE882353
:1019200049F410935D01112311F49AE001C09BE08A
:10193000909367011F910895FF920F931F9307EAF9
:1019400010E0F801F080F7E0FF22F80110825EDA83
:10195000F801F0821F910F91FF900895982F8091C8
:10196000C80085FFFCCF9093CE0080E090E0089502
:101970008091C80087FD03C02EEF3FEF0BC0809120
:10198000C80087FD03C02FEF3FEF04C08091CE0059
:10199000282F30E0C9010895DF93CF93CDB7DEB78C
:1019A000FE01359661917191A0917801B091790114
:1019B00013968C911397886013968C93809178017D
:1019C00090917901AF013FD0E0917801F0917901D8
:1019D0002381277F2383CF91DF9108950F931F9356
:1019E000CF93DF93EC01E0917801F091790183814D
:1019F00081FF21C000E010E00EC0E0917801F0917D
:101A0000790120853185BF01F9010995892B11F0F4
:101A10000FEF1FEF2196FE018491882371F7E0916B
:101A20007801F0917901208531858AE0BF01F901C3
:101A30000995892B11F00FEF1FEFC801DF91CF91AE
:101A40001F910F9108952F923F924F925F926F9244
:101A50007F928F929F92AF92BF92CF92DF92EF923E
:101A6000FF920F931F93DF93CF93CDB7DEB72B97E2
:101A70000FB6F894DEBF0FBECDBF3C012B015A015B
:101A8000FC0117821682838181FD03C06FEF7FEF17
:101A9000B9C19AE0892E1E010894211C311CF30162
:101AA0002381F20123FD859123FF81912F0188235A
:101AB00009F4A5C1853239F423FD859123FF819175
:101AC0002F01853221F490E0B301CCD1E8CF982FDB
:101AD000FF24EE249924FFE1FF15D0F09B3269F03A
:101AE0009C3228F4903259F0933291F40EC09D321A
:101AF00049F0903369F441E024C052E0F52A84E0D3
:101B0000F82A28C098E0F92A25C0E0E1FE2A22C080
:101B1000F7FC29C0892F80538A3070F4F6FE05C087
:101B2000989C902C1124980E15C0E89CE02C112450
:101B3000E80EF0E2FF2A0EC09E3229F4F6FC5FC1E7
:101B400040E4F42A07C09C3619F450E8F52A02C094
:101B5000983649F4F20123FD959123FF91912F01CD
:101B6000992309F0B8CF892F8554833018F080521B
:101B7000833038F444E050E0A40EB51E5FE359838F
:101B80000FC0933631F0933779F0933509F052C096
:101B90001FC0F5018081898342E050E0A40EB51E8C
:101BA000610101E010E011C0F501C080D180F6FCB8
:101BB00003C06FEF7FEF02C0692D70E042E050E09C
:101BC000A40EB51EC60143D18C015FE7F52213C0F8
:101BD000F501C080D180F6FC03C06FEF7FEF02C03B
:101BE000692D70E042E050E0A40EB51EC60124D17C
:101BF0008C0150E8F52AF3FE06C018C080E290E0A0
:101C0000B30130D1EA948E2D90E008171907B0F394
:101C10000DC0F601F7FC8591F7FE81916F0190E010
:101C2000B30120D1E110EA940150104001151105D3
:101C300081F7E2C0943611F0993661F5F7FE08C0DD
:101C4000F501208131814281538184E090E00AC016
:101C5000F501808191819C01442737FD4095542FE7
:101C600082E090E0A80EB91E9FE6F92257FF09C056
:101C700050954095309521953F4F4F4F5F4FE0E88D
:101C8000FE2ACA01B901A1012AE030E017D1D82EFD
:101C9000D2183FC0953729F41F2D1F7E2AE030E06F
:101CA0001DC01F2D197F9F3661F0903720F49835A5
:101CB00009F0A5C00FC0903739F0983709F09FC0E0
:101CC00004C028E030E00AC0106114FD146020E177
:101CD00030E004C014FD166020E132E017FF08C0B8
:101CE000F501608171818281938144E050E008C0F8
:101CF000F50180819181BC0180E090E042E050E0FC
:101D0000A40EB51EA101DAD0D82ED2188FE7F82E76
:101D1000F122F6FE0BC05EEFF522D91438F4F4FE82
:101D200007C0F2FC05C08FEEF82202C01D2D01C0D5
:101D3000192DF4FE0DC0FE01ED0DF11D80818033E3
:101D400019F499EEF92208C01F5FF2FE05C003C026
:101D50008F2D867809F01F5F0F2DF3FC13C0F0FE66
:101D60000EC01E1510F09D2C0AC09D2C9E0C911AC1
:101D70001E2D05C080E290E0B30174D01F5F1E15D8
:101D8000C8F304C01E1510F4E11A01C0EE2404FFCC
:101D90000EC080E390E0B30165D002FF1BC001FDDF
:101DA00003C088E790E00EC088E590E00BC0802F6C
:101DB000867881F001FF02C08BE201C080E2F7FC6F
:101DC0008DE290E0B3014ED005C080E390E0B30116
:101DD00049D09A94D914C8F3DA94F101ED0DF11DAC
:101DE000808190E0B3013ED0DD20B1F705C080E2F4
:101DF00090E0B30137D0EA94EE20C9F750CEF3015A
:101E000066817781CB012B960FB6F894DEBF0FBEAB
:101E1000CDBFCF91DF911F910F91FF90EF90DF9099
:101E2000CF90BF90AF909F908F907F906F905F907A
:101E30004F903F902F900895FC01059061507040A5
:101E40000110D8F7809590958E0F9F1F0895FC0183
:101E50006150704001900110D8F7809590958E0FD9
:101E60009F1F08950F931F93CF93DF938C01EB0176
:101E70008B8181FF1BC082FF0DC02E813F818C8131
:101E80009D812817390764F4E881F9810193F9836A
:101E9000E88306C0E885F985802F0995892B31F400
:101EA0008E819F8101969F838E8302C00FEF1FEF6B
:101EB000C801DF91CF911F910F910895FA01AA27D0
:101EC000283051F1203181F1E8946F936E7F6E5F7D
:101ED0007F4F8F4F9F4FAF4FB1E03ED0B4E03CD02B
:101EE000670F781F891F9A1FA11D680F791F8A1F0E
:101EF000911DA11D6A0F711D811D911DA11D20D075
:101F000009F468943F912AE0269F11243019305D2E
:101F10003193DEF6CF010895462F4770405D41931F
:101F2000B3E00FD0C9F7F6CF462F4F70405D4A336C
:101F300018F0495D31FD4052419302D0A9F7EACF34
:101F4000B4E0A6959795879577956795BA95C9F763
:101F500000976105710508959B01AC010A2E069456
:101F60005795479537952795BA95C9F7620F731F0F
:0C1F7000841F951FA01D0895F894FFCF5A
:101F7C0000050100000000008006000100000800C0
:021F8C00400013
:00000001FF
